:100000000C94A9020C94C6020C943C1D0C94C602DC
:100010000C94C6020C94C6020C94C6020C94C60240
:100020000C94C6020C94C6020C9453240C942525FF
:100030000C946D1F0C94C6020C94C6020C94C6025C
:100040000C94C6020C94C6020C94C6020C94C60210
:100050000C94C6020C9412200C94C6020C94C60296
:100060000C94C6020C94C6020C94C6020C94C602F0
:100070000C94C6020C94C6020C94C6020C94C602E0
:100080000C94C6020C94C6020C94C6020C94C602D0
:100090000C94C6020C94C6020C94C6020C94C602C0
:1000A0000C94C6020C94C6020C94C6028F068F06EE
:1000B000BB06BB064C07DA087408DA086807E007D5
:1000C000F207F2078008A30888088B0896089008B2
:1000D0009B08051877180D18D717DB171118DE17AE
:1000E00014181F18E9176D18ED172318F1172718A2
:1000F0005118F5172B185B18FB1731183B18E2172E
:100100001818E5171B1800183618471867186918CB
:10011000D31709188018771C7D1C6B1C711C831C5D
:10012000891C8F1C8D25B425AC26B425AC26002651
:100130002326AC267A26892600000107020703073A
:100140000407050706000001010802080308040867
:10015000050806010002010902090309040905094D
:1001600006020003010A020A030A040A050A06033A
:100170000004010402040304040405040604000549
:10018000010502050305040505050605000601062F
:100190000206030604060506060600070107020715
:1001A00003070407050706070008010802080308FB
:1001B00004080508060800090109020903090409E1
:1001C00005090609000A010A020A030A040A050AC7
:1001D000060A000B010B020B030B040B050B060BAD
:1001E000000C010C020C030C040C050C060C000D99
:1001F000010D020D030D040D050D060D29001E0055
:100200001F0020002100220045002B0414001A00CA
:100210000800150017002D002B0004001600070031
:1002200009000A002E00A2521D001B000600190042
:1002300005000000737C6152A85262522C004C00F1
:1002400000000000000000000000A452A1520000C5
:100250000000000000000000F056280000004400EC
:100260002300240025002600270035002F001C0055
:1002700018000C0012001300310030000B000D00BC
:100280000E000F0033003400000011001000360093
:1002900037003800B25200002A00280052005100F6
:1002A00050004F000000B152B452000000000000A6
:1002B00000000000460049000000000000000000AF
:1002C00001003A003B003C003D003E0001000100FF
:1002D00063005F006000610054005600010062008E
:1002E0005C005D005E0055005700010000005900F1
:1002F0005A005B000000000001000100007C0100CA
:1003000001000100000000000000000000000100EA
:1003100001000000000000000000000001000100DA
:10032000000001003F004000410042004300000087
:1003300000004A004D00520000004B000000000089
:100340000000500051004F000000000000004E006F
:10035000000000000000000001000000010001009A
:10036000537C567C547C577C000001000100000047
:10037000000000000000000001000100000000007B
:100380000000000001003A003B003C003D003E0040
:100390000100010001000100010001000100010055
:1003A0000100010001000100010001000100010045
:1003B0000100010001000100010000000100010036
:1003C0000100010001000100000000000000000029
:1003D000000001000100000000000000000000001B
:1003E00001000100000001003F0040004100420008
:1003F00043000100010001000100010001000100B3
:1004000001000100010001000100010001000100E4
:1004100000000100010001000100010001000000D6
:1004200001000100010001000100010000000100C5
:1004300001000000000000000000000001000100B9
:10044000000000000000000034034400610063006D
:10045000740079006C002D004D0061006E00750085
:1004600066006F0072006D002000280035007800E3
:1004700036002B0033002B003200290000000E0351
:100480006A006500720076006900730000000403D2
:10049000090409023B00020100A0FA09040000015E
:1004A000030101000921110100012240000705811B
:1004B00003080001090401000103000000092111E3
:1004C0000100012232000705820320000112010011
:1004D00002000000084D44373520000102000105EC
:1004E000010980A101850319012AB700150126B76A
:1004F00000950175108100C0050C0901A10185045A
:1005000019012AA002150126A0029501751081008B
:10051000C005010906A101050719E029E715002515
:10052000019508750181029501750881010507197A
:100530000029FF150026FF009506750881000508B3
:100540001901290595057501910295017503910120
:10055000C00011241FBECFEFDAE0DEBFCDBF11E037
:10056000A0E0B1E0E8EFFEE402C005900D92A23AEF
:10057000B107D9F725E0A2EAB1E001C01D92A83D7C
:10058000B207E1F70E948A170C947A270C940000B6
:10059000899731F4FB018281811102C00E94EC0E27
:1005A00081E00895CF93DF93EC0161E00E94F409AC
:1005B000882339F00E947B1E80FD03C083E50E94E2
:1005C0003A06CE01DF91CF9108958330B0F46E30BA
:1005D000A0F4473090F492E6899FF001112487E05F
:1005E000689FE00DF11D1124E40FF11DEE0FFF1FB8
:1005F000E450FE4F85919491089580E090E0089535
:100600000E94E502089581E008950E94C8020895BD
:1006100008950E9408030895A5E0B0E0E2E1F3E048
:100620000C94FA2649835A833091B60189819A81C4
:10063000311114C0662359F0222349F00E94D80AD0
:10064000182F682F89819A810E94B40A03C00E94E2
:10065000C60A182F69817A81812F04C00E94D80AA6
:1006600069817A810E9475122596E3E00C94162721
:10067000FC01262F408151816281738184810E9417
:100680000C03089581E00895CF93DF93EC0160E0BF
:100690000E943803BE010E940903DF91CF910895A3
:1006A0000E94E01308950E94DA13089508950E94AD
:1006B00069090E9456032FEF84E39CE0215080409B
:1006C0009040E1F700C0000008950E9457030E9487
:1006D000382008950E9457030E94492008950F93DF
:1006E0001F93CF93DF938C0161E00E943803EC01EC
:1006F000B8010E94261B882309F450C0B801CE011E
:100700000E940503882309F449C0B801CE010E9464
:10071000B618882309F442C0B801CE010E945F1CBC
:100720008823E1F1B801CE010E94AF178823B1F10F
:10073000B801CE010E94C51B882381F1F801828196
:10074000882341F1C3308CE7D807D1F040F4C115BC
:10075000FCE7DF0791F0C130DC47A1F01BC0CB35CF
:10076000ECE7DE07A9F0CC35FCE7DF0771F0CA350E
:10077000DC4781F40E94EC0F0DC00E9465030EC09F
:100780000E94F40F0E946A0309C00E94E20F02C097
:100790000E94F00FC8010E94030301C080E0DF91B6
:1007A000CF911F910F9108950E94461F0E94FE0352
:1007B00008950E9402040E944F1F089508950E9408
:1007C000DE03089581E008950895CF93DF93D82F35
:1007D0000E94E203C82F882319F08D2F0E94E403A2
:1007E0008C2FDF91CF9108950895CF93C82F0E9449
:1007F000DF038C2F0E94E503CF91089580E00E94D3
:10080000F50308950E94671E0E94F5030895CF9393
:100810000E94671EC82F8091A401C81779F0C09369
:10082000A4010E94DB1F6093A5017093A601809331
:10083000A7019093A8018C2F0E94F503CF910895F2
:10084000442319F08091B80108959C0143E0369546
:1008500027954A95E1F7FB01E20FF31F9C012770F2
:10086000332781E090E001C0880F2A95EAF7908154
:10087000982381E009F480E008959C0153E03695C7
:1008800027955A95E1F7DC01A770BB2781E090E03E
:1008900001C0880FAA95EAF7FB01E20FF31F44237A
:1008A00019F09081892B03C08095908189238083E2
:1008B0000895A0E0B0E0EFE5F4E00C94F526FC012B
:1008C00091819E30A0F5C081C73088F58F01C92E77
:1008D000D12CD0E07E0187E0989FE00CF11C112420
:1008E000428169EA71E0C7010E9420048823C9F0AF
:1008F00087E08C9DF0018D9DF00D1124CE0FDF1F40
:10090000CC0FDD1FFE01E75CFE4FE491D80111968C
:10091000EC93FE01E85CFE4FC491F801C08341E016
:1009200001C040E069EA71E0C7010E943D04CDB713
:10093000DEB7E8E00C941127ABE0B0E0E2EAF4E0C7
:100940000C94F9264F83588769877A878B876111C2
:100950000E94FC0E9F8188852A853B85232B31F0E0
:100960008F3F31F481E09F3F19F403C081E001C063
:1009700080E080FD04C0CE0107960E9459048E01DC
:100980000F5F1F4F86E0F80111928A95E9F785E025
:10099000FE013796D80101900D928A95E1F780917A
:1009A000A80582FF11C00E94700E882319F082E012
:1009B0000E94B00F0E94570E81110E94200F0E94CA
:1009C000860E81110E94B00E99818A812C813D8111
:1009D000232B31F08F3F31F481E09F3F19F403C0A6
:1009E00081E001C080E080FF09C049815A816B81AC
:1009F0007C818D819E810E94B10D05C0C8010E943D
:100A000042038111F2CF2B96E4E00C941527FC01F0
:100A1000808191810E940A0B92959F70963051F4CB
:100A2000863F41F08091B80191E089278093B80119
:100A30009093B7010895CF93882309F4A0C0C82FDD
:100A40008238C1F40E94671E81FD99C069E38091DC
:100A50000001909101010E94151F0E942E0F2FEF9F
:100A600087EE93E0215080409040E1F700C0000005
:100A700069E319C0833801F50E94671E80FD7FC0BD
:100A800063E580910001909101010E94151F0E9471
:100A90002E0F2FEF81EE94E0215080409040E1F73F
:100AA00000C0000063E580910001909101010E9467
:100AB000181F0E942E0F63C08438C1F40E94671E65
:100AC00082FD5DC067E480910001909101010E9468
:100AD000151F0E942E0F2FEF81EE94E021508040D1
:100AE0009040E1F700C0000067E4DDCF8CEF8C0F91
:100AF000813AF8F48C2F0E943B1A811140C06C2F70
:100B000080910001909101010E94DF1E882349F02D
:100B10006C2F80910001909101010E94181F0E948A
:100B20002E0F6C2F80910001909101010E94151FE2
:100B3000C0CF80E28C0F883048F4C77081E001C0DC
:100B4000880FCA95EAF70E94DF0EB3CFEBE5EC0FF2
:100B5000E33040F4F0E0E65AFE4F808190E00E94DE
:100B6000891E0DC0C85AC93150F4EC2FF0E0EE0FC9
:100B7000FF1FE85DFE4F808191810E94AE1ECF91E4
:100B80000895882309F45DC0682F823879F40E94A3
:100B9000671E81FF56C069E38091000190910101B9
:100BA0000E94151F0E942E0F69E310C08338B9F40C
:100BB0000E94671E80FF45C063E58091000190910F
:100BC00001010E94151F0E942E0F63E58091000114
:100BD000909101010E94181F0E942E0F08958438E1
:100BE00079F40E94671E82FF2CC067E480910001A7
:100BF000909101010E94151F0E942E0F67E4E6CF1D
:100C00008CEF860F813A10F380E2860F883048F42B
:100C1000677081E001C0880F6A95EAF70E94E50ECF
:100C2000DBCF8BE5860F833028F480E090E00E94D4
:100C3000891E0895685A693120F480E090E00E948E
:100C4000AE1E08951F93CF93DF93182FEB010E94E0
:100C50001B05209741F08FE99FE00197F1F700C055
:100C600000002197F6CF812F0E94C105DF91CF911F
:100C70001F910895893319F060E070E002C060E5CB
:100C800070E00E9422060895882321F00E94DF0E62
:100C90000E942E0F0895882321F00E94E50E0E94E5
:100CA0002E0F0895A0E0B0E0E8E5F6E00C94F426FD
:100CB0007C01EB01FC011281D580D2949FE0D92206
:100CC0000E94D50E8823D9F01123C9F08D2F807F83
:100CD000803441F090E29C0F983088F0803611F417
:100CE000C63F69F08091A80582FF09C082E00E949A
:100CF000B00F0E94D50E91E0C82EC92601C0C12CAC
:100D0000BD2EB2948FE0B8228B2D90E08C309105EF
:100D100008F050C2FC01EA5AFF4F0C94E5260D2F53
:100D20000F708D2F807F11F00295007F112399F0B5
:100D3000002309F4BAC180E28C0F883010F0C11191
:100D400004C0802F0E94DF0E03C0802F0E94EF0E90
:100D50000E942E0FAAC18C2F0E94C105002309F406
:100D600029C280E28C0F883048F1CC2339F1802FE2
:100D70000E94F50E26C00D2F0F708D2F807F8032C0
:100D800011F00295007FCC2321F0C13009F459C045
:100D900064C08091A80582FD17C0112349F000238B
:100DA00029F0802F0E94DF0E0E942E0F80E07EC16E
:100DB00080E00E94C105002309F4FCC1802F0E943D
:100DC000E50E0E942E0FF6C11123C1F0DD2009F4BB
:100DD0004EC0F1E0DF1206C00E94FF0E802B0E9481
:100DE000090FE8C122E0802FD21242C00E944406BF
:100DF0000E94200F0E94540E802B16C0D11003C0F9
:100E00000E94200F45C081E0D81211C00E94DC0E64
:100E1000802309F4CFC1802F0E944B060E94200F2F
:100E20000E94540E009580230E947C0FC3C192E063
:100E3000D91609F4BFC1802F0E944B060E94200FD3
:100E4000B9C1112329F0E5E0ED1508F4B3C10FC0D5
:100E5000F4E0FD1508F4AEC11BC0112361F0DD20E4
:100E600031F0F701858180FF20C18F708583802F4D
:100E70000E9444069FC1DD2059F0C93309F02BC1FF
:100E8000FFEF27EE83E0F15020408040E1F721C1E1
:100E9000802F0E944B068EC18D2F8695869583707C
:100EA00019F0813059F086C1112319F0CE019370E9
:100EB00002C080E090E00E94891E84C1112319F0D5
:100EC000CE01937002C080E090E00E94AE1E7AC115
:100ED0008D2F8370B9F5111171C14C2F4295469534
:100EE0004770440F440F8C2F8F7090E09C01042EAC
:100EF00002C0220F331F0A94E2F7C4FF0AC08FE03A
:100F000090E002C0880F991F4A95E2F7809590956E
:100F100002C080E090E04D2F469546954370822BAD
:100F2000932B423049F058F4413019F00E94D30914
:100F300045C10E94CA0942C10E94DC093FC10E940A
:100F4000C7093CC1112319F08D2F817001C086950E
:100F5000882309F433C14C2F429546954770440FBE
:100F6000440F8C2F8F7090E09C01042E02C0220F42
:100F7000331F0A94E2F7C4FF0AC08FE090E002C07A
:100F8000880F991F4A95E2F78095909502C080E0FE
:100F900090E04D2F469546954370822B932B42301F
:100FA00049F058F4413019F00E944F0A07C10E94DD
:100FB000460A04C10E94580A01C10E94E809FEC005
:100FC0000D2F0F70112339F0802F0E94140A8C2FDF
:100FD0000E944406F3C08C2F0E944B06802F0E9473
:100FE000240AECC0C23FD9F028F4C03F41F0C13F11
:100FF00051F157C0C33FC9F0C43F09F152C011239A
:1010000029F094E09D1508F4D5C004C0E5E0ED1585
:1010100008F4D0C08D2F8F710E94360ACBC08D2F5F
:101020008F71112309F447C05CC0112329F08D2F63
:101030008F710E94080ABEC00E94EF09BBC0809158
:10104000A80582FD06C08D2F8F71112309F449C0B8
:1010500032C01123B9F00E946C0E843039F40E9422
:10106000A60F8D2F8F710E94240AA3C0F1E0FD15F9
:1010700008F49FC00D2F0F71802F0E94140A63E0A7
:10108000802F08C021E02D1540F40E94A60F64E0D7
:101090008D2F8F710E94880F8CC081E00E94B00F4D
:1010A00088C0112359F0DD2021F08C2F0E941B05F0
:1010B00081C08D2F8F710E94140A7CC0DD2079F0D1
:1010C000C93349F48FEF97EEE3E081509040E04060
:1010D000E1F700C000008C2F0E94C1056BC08D2F6E
:1010E0008F710E94240A66C08C2F90E0FC01E05FA3
:1010F000F109E730F105A0F5EE59FF4F0C94E52614
:10110000112309F468C09091B80181E0892705C0D6
:101110001093B80157C081E081278093B80152C075
:10112000111150C081E08093B80155C011114AC01F
:101130001092B80150C0112319F00E94990E42C0BC
:101140000E94B90E48C0112339F08091B70188235D
:10115000D1F21092B70136C0F4E0FD15A0F63BC005
:101160008091B701DD20C1F0882341F09091B80152
:1011700081E089278093B8011092B7018C2F112349
:1011800019F00E941B051EC00E94C10586E0F701F0
:1011900011928A95E9F71FC08823A1F0111112C09E
:1011A0009091B80181E089278093B8011092B7012E
:1011B00012C0C12C88EF8B0D843020F40E94671E72
:1011C0000E94F503112339F0D07FD03611F4C63FC9
:1011D00011F00E94C70ECC2089F00E946C0E80FD99
:1011E0000DC0F70112820E94660E0E94140AC70108
:1011F0000E941B090E94660E0E94240ACDB7DEB72A
:10120000E9E00C9410270F931F93CF93DF93EC0129
:10121000688179818A810E94150B8C010E94610A84
:101220000E94B809B801CE010E945206DF91CF9109
:101230001F910F910895CF93DF93EC0198818981DD
:101240002B813C81232B31F08F3F31F481E09F3F94
:1012500019F403C081E001C080E080FD1AC0CE0116
:101260000E946F0381110FC00E94D50E882389F060
:101270008A81882371F08091A80582FF0AC082E0EC
:101280000E94B00F06C0CE010E940309CE010E9449
:101290004403DF91CF910895882321F00E94F50E39
:1012A0000E942E0F089580E090E00E94891E80E049
:1012B00090E00E94AE1E0E94FC0E0E942E0F089528
:1012C00080910001909101010E941B1F0E9453090F
:1012D00008950E94EC0E0E946009089592959F70F7
:1012E000963079F010F4925001C09A50923068F420
:1012F000803F69F018F4883E40F409C0843F29F427
:1013000006C0883E20F0813F11F080E0089581E022
:101310000895FC019081818123813481232B31F058
:101320008F3F31F481E09F3F19F403C081E001C099
:1013300080E080FD07C0808191810E940A0B0E949D
:101340006E09089580E00895A5E0B0E0EAEAF9E0CA
:101350000C94FB262596E2E00C941727A6E0B0E05B
:10136000E4EBF9E00C94FB262696E2E00C941727B8
:10137000089508950E94B90908950E94BA09089530
:101380000E94BD099093F0018093EF0108950E949F
:10139000C00908952091EF013091F001822B932B29
:1013A0000E94C00908952091EF013091F00182233D
:1013B00093230E94C00908952091EF013091F0011C
:1013C000822793270E94C00908950E94D20208959F
:1013D0000E94E5099093EE018093ED01089580E06D
:1013E00090E00E94E8090895009721F481E06623C7
:1013F00071F00CC021E030E002C0220F331F6A956B
:10140000E2F72823392381E0232B09F480E00895B3
:1014100021E030E0A90102C0440F551F8A95E2F790
:10142000CA010E94E809089521E030E002C0220FBD
:10143000331F8A95E2F78091ED019091EE01822BA6
:10144000932B0E94E809089521E030E002C0220FAA
:10145000331F8A95E2F7209530958091ED019091A8
:10146000EE01822393230E94E809089521E030E0F1
:1014700002C0220F331F8A95E2F78091ED0190910F
:10148000EE01822793270E94E80908952091ED013B
:101490003091EE01822B932B0E94E8090895209150
:1014A000ED013091EE01822393230E94E809089513
:1014B0002091ED013091EE01822793270E94E809E7
:1014C00008950895962F9770A1E001C0AA0F9A95EC
:1014D000EAF793E0769567959A95E1F7660F771F9F
:1014E000660F771FFA01E60FF71F40E050E0682F04
:1014F00070E090819B01042E02C0369527950A94D6
:10150000E2F72170219529272A23292721934F5F6C
:101510005F4F4430510569F70895FB01782F7770CC
:1015200023E0969587952A95E1F7880F991F880FF4
:10153000991FE80FF91F40E050E080E0219130E072
:10154000072E02C0369527950A94E2F721703327BB
:10155000042E01C0220F0A94EAF7822B4F5F5F4FDF
:101560004430510559F70895282F9E3070F4873084
:1015700060F4862F622F70E027E0929F600D711D4E
:10158000112449EB51E00E94620A08959E3070F4E4
:10159000873060F4292F90E069EB71E037E0239FFA
:1015A000800D911D11240E948D0A089580E00895F8
:1015B000A0E0B0E0EEEDFAE00C94F4267C0100919E
:1015C000ED011091EE018091EF019091F001082B57
:1015D000192BCFE0D0E0CC24C394D12CC6010C2E23
:1015E00002C0880F991F0A94E2F780239123892B68
:1015F00021F4219798F7B12C07C0BC2EB7018C2F8E
:101600000E9481120197A9F38B2DCDB7DEB7E9E0D7
:101610000C941027CF93DF93EC010E94D80ABE01EF
:101620000E948112DF91CF9108951F93CF93DF9392
:10163000EB019091B601992321F0CB010E940A0B96
:1016400013C0882349F0CB010E94D80A182F682FB5
:10165000CE010E94B40A04C0CB010E94C60A182F12
:10166000BE01812F0E948112DF91CF911F910895B9
:101670001F93CF93DF93C091F10116E08091F201A7
:10168000C81799F0D0E01C9FF0011D9FF00D1124A8
:10169000ED50FE4F4081518162817381848195813B
:1016A0000E94AE092196C770E9CFDF91CF911F91BB
:1016B0000895409123025091240260912502709177
:1016C000260280912702909128020E94AE09089577
:1016D0002091F1019091F20156E02917A9F030E034
:1016E000529FF001539FF00D1124ED50FE4F718178
:1016F000761306C07081781303C07281741306C01C
:101700002F5F3F4F2770E9CF80E0089581E0089573
:101710000F931F93CF93DF938091280282958F7050
:1017200009F05AC080912502882309F455C08091A0
:10173000F1011091F2016091230270912402C09195
:101740002602D091270291E06F3F09F090E0292F07
:1017500006E0811709F440C0209721F07F3F21F077
:1017600030E003C031E001C0322F90E030FD31C0E5
:10177000089FF001099FF00D1124DF01AD50BE4F0D
:1017800011963C911197371324C03C91361321C018
:1017900012963C91129731111CC013964D915C9199
:1017A00014974C1B5D0B483C510598F4809128021E
:1017B0008F70806180932802E850FE4F80818F7087
:1017C0008061808383E292E00E941B090E94380BB3
:1017D00003C001968770BDCFDF91CF911F910F910C
:1017E0000895A1E1B0E0E7EFFBE00C94F1268C0155
:1017F00085E0F801DE011D9601900D928A95E1F7D2
:10180000D8011296EC9090912302209124024091ED
:101810002602509127024115510531F02F3F31F436
:1018200081E09F3F19F403C081E001C080E080FDAA
:1018300079C1F801C080D1808380948083E2A82E92
:1018400082E0B82EF0902502B401641B750BFF20D6
:1018500009F412C180912802382F307F683C71054D
:1018600008F0CCC031118BC0D21214C0C91212C002
:10187000FE2CE1100FC08F708061809328020E94BF
:10188000590BC5010E941B0980912802D8011596A9
:101890008C9362C18114910439F0BFEFDB1206C052
:1018A00081E0CB1203C003C081E001C080E080FD75
:1018B00003C081E08E2502C080E090E080FF10C070
:1018C0004E2D6D2D8C2D0E94680B882349F083E2EC
:1018D00092E00E941B09E3E2F2E086E0DF019EC095
:1018E0008114910439F0BFEFDB1206C081E0CB1206
:1018F00003C003C081E001C080E080FD03C081E03F
:101900008E2502C080E090E0E82FE170BE2E80FFBF
:101910002CC04E2D6D2D8C2D0E94680BF82E811140
:1019200024C0CD86DE868D859E850E940A0B292FD8
:1019300022952F70223018F0243090F405C09F704B
:1019400059F0811109C008C19F7031F0D801159676
:101950009C91907F09F400C1805E883008F4FCC03F
:10196000C8010E941B09FB2CF7C0FE2CEE2009F4D5
:10197000F3C08091280281608093280254C0D21263
:1019800006C0C91204C0E11002C0F80199C0C80124
:101990000E948909882361F1EE2051F120912802EB
:1019A000822F82958F7090E0029774F080912302CD
:1019B0009091240298878F8319869B868A862C872C
:1019C000CE0107960E941B0986E0F801A3E2B2E06F
:1019D00001900D928A95E1F70E94880B0E94590BA5
:1019E0000AC0D21611F1C8010E94890981112CC0C8
:1019F000C8010E941B09FF24F394AEC03111F1CF3E
:101A0000782D998A888AA6016E2D89890E94A40959
:101A100083E292E00E941B0986E0D5011D928A951F
:101A2000E9F70E94590BF12C97C0C912DCCFE110E5
:101A3000DACFF8018583C8010E941B0986E0D50131
:101A40001D928A95E9F788C0EE2091F22091280234
:101A5000822F82958F7090E002970CF4B5CF809121
:101A60002302909124029A8389831B829D828C8217
:101A70002E83CE010196A6CF683C710508F044C0C4
:101A8000FE2CEE2009F4B4CFD21230C0C9122EC001
:101A90002091280220FD21C0822F82958F70482F2F
:101AA00050E041155105C9F0F80125834F3051052B
:101AB00041F08F5F982F9295907F822F8F70892BA6
:101AC0008583C8010E941B0986E0F801A3E2B2E009
:101AD00001900D928A95E1F73DC086E0F801A3E2FE
:101AE000B2E001900D928A95E1F736C0C8010E94DC
:101AF0008909811169CF8091280281608093280231
:101B0000C8010E941B0928C0782D998A888AA601DD
:101B10006E2D89890E94A40986E0D5011D928A95BF
:101B2000E9F718C0EE2009F463CFC8010E948909C3
:101B3000F82E882309F45CCF86E0F801A3E2B2E036
:101B400001900D928A95E1F783E292E00E940705E9
:101B50000E94880B0E94590B8F2D6196ECE00C942B
:101B60000D27ACE0B0E0E7EBFDE00C94FA264F83E4
:101B7000588769877A878B879C87CE0107960E9452
:101B8000F10B8823D1F09F8188852A853B85232B03
:101B900031F08F3F31F481E09F3F19F403C081E0C1
:101BA00001C080E080FD47C04F81588569857A85F6
:101BB0008B859C850E94AE093EC086E0FE0137966B
:101BC000DE01119601900D928A95E1F7FF81E8857B
:101BD0006A857B856115710531F0EF3F31F481E055
:101BE000FF3F19F403C081E001C080E080FD23C005
:101BF0002091F20130E0C901019687709927409148
:101C0000F10150E084179507F1F1F983EA837D83B0
:101C10006C8396E0929FD001939FB00D1124AD503C
:101C2000BE4FFE01319601900D929A95E1F7809397
:101C3000F2010E94380B16E08091F1019091F201BF
:101C4000891771F1189FC00111248D509E4F0E9479
:101C5000F10B882329F1E091F1011E9FF00111247D
:101C6000ED50FE4F40815181628173818481958165
:101C70000E94AE098091F10190E00196877099274A
:101C80008093F101D9CF0E9469091092F20110925C
:101C9000F101E3E2F2E086E0DF011D928A95E9F7C7
:101CA0002C96E3E00C9416278091390208950E9447
:101CB000CF1F2091370230913802821B930B9C0179
:101CC00081E02838334108F480E00895809136029D
:101CD000859585958595089580913602877008953C
:101CE0000E94CF1F2091330230913402821B930B4C
:101CF0008838934140F08091360282FB882780F932
:101D000091E0892701C080E0817008950E94CF1F73
:101D10002091310230913202821B930B883893411B
:101D200028F081E090913502913009F080E08170D7
:101D3000089582E08093350281E08093B8010E948B
:101D4000CF1F909332028093310220913302309161
:101D50003402232B21F090933402809333020895B0
:101D6000109235021092B801109232021092310294
:101D7000089580913502823019F481E08093350214
:101D800080913502833011F40E94B00E0895809145
:101D90003502823019F483E0809335028091350258
:101DA000813011F40E94B00E089590913602977020
:101DB00081E009F480E008958091440208959091B3
:101DC0004402892B809344020895809590914402A7
:101DD00089238093440208951092440208959091BB
:101DE0004302892B8093430208958095909143028A
:101DF00089238093430208951092430208958091AD
:101E00003A02089508950E94020F08950E94030F58
:101E10000895CF939091A80592FF10C090913A0237
:101E2000981761F0C82F0E94CF1F909338028093BB
:101E30003702C0933A028C2F0E94060FCF9108956B
:101E400080913A02882349F010923A0210923802A7
:101E50001092370280E00E94060F0895CF93DF931F
:101E6000E0910001F0910101809144028083E091B2
:101E70000001F0910101908180914302892B8083C0
:101E800080913A028823B9F00E94570E81110E9476
:101E9000200FE0910001F0910101908180913A02C0
:101EA000892B808380910001909101010E94D31EB3
:101EB00081110E94200FC0910001D091010148E0E2
:101EC00050E069E272E0CE010E942227892B59F08E
:101ED00088E0FE01A9E2B2E001900D928A95E1F757
:101EE000CE010E947E1EDF91CF9108950E94020FC5
:101EF00008950E94760F089590913902981721F065
:101F0000809339020E94790F08950E94020F08956C
:101F10009091A80592FF17C098E0899F9001112425
:101F2000262B209336020E94140A0E94CF1F909302
:101F3000340280933302809136028595859585958C
:101F40000E94850F08950E94140A08951092360287
:101F5000109234021092330280E00E94850F08959F
:101F6000209136028095822380933602982F9770B5
:101F700099F430E0482F082E000C550B2417350734
:101F800059F09091A80592FF07C085958595859594
:101F90000E94240A0E94A60F08959091A80592FB22
:101FA000222720F9281769F080FB92F99093A80561
:101FB0008091A7059091A8050E94151082E00E94CB
:101FC000B00F08958091A80582FB882780F991E0E1
:101FD00089270E94CD0F089581E00E94CD0F0895BA
:101FE00080E00E94CD0F08956FEF7FEF80E090E0DA
:101FF0000E946427089580E090E00E94402721E03D
:10200000873E9E4F09F020E0822F089582E090E005
:102010000E943827089583E090E00E9438270895B1
:1020200084E090E00E9440270895BC0184E090E0A5
:102030000E9464270895AB01BC018FE090E00E94EC
:1020400058270895AB01BC0183E190E00E94582716
:10205000089560E070E0CB010E942210089560E0D6
:1020600070E0CB010E941B100E942910089567EEBA
:102070007EEF80E090E00E94642760E082E090E0E4
:102080000E94462760E083E090E00E94462710927D
:10209000F0011092EF0160E074E184E090E00E94B2
:1020A000642760E086E090E00E9446276FEF87E0BB
:1020B00090E00E94462740E050E0BA0188E090E0BE
:1020C0000E94582760E08DE090E00E94462740E0A3
:1020D00050E0BA0188E190E00E94582760E087E173
:1020E00090E00E94462740E050E0BA018CE190E089
:1020F0000E94582760E070E080E290E00E94642730
:1021000040E050E0BA0188E190E00E9458270E9428
:102110002F1008950E9437100895682F8EE090E0E8
:102120000E94462708950E94DB1F60935902709316
:102130005A0280935B0290935C0260935502709305
:102140005602809357029093580208950E94731587
:10215000089508950E94A91008950E94A910089555
:102160000E94AD1008950E94A91008950E94B31016
:1021700008950E94A910089585EA93E10E945D1ECA
:102180000E94B9100E94B61008950E94AA100E94E1
:10219000A91008950E94A8130E94F40308950E94B4
:1021A000C61F0E9465130E949C150E94D6140E94AF
:1021B000CA100E9497170E94A6150E94B010089599
:1021C0000E94731581110E947C190895AAE0B0E065
:1021D000ECEEF0E10C94F3260E94FB1487E4E82E69
:1021E00082E0F82E670100E0F60111916F01802F67
:1021F0000E94C61381270F5F0E3019F08823A1F3C8
:1022000022C0811120C00E94CF1F8C018091450205
:10221000909146020817190709F450C08FEF89837F
:102220008A831B820E94CF1F8160782F9D838C83BD
:1022300049815A816B818D810E949C0410934602D2
:10224000009345023BC080915D0281FD0E94CC134A
:102250000E94A610A82E10E0812F0E94C613B82E4F
:10226000F701C080C82611F100E0DD24D3948C2D45
:102270008D21B1F0AA20A1F00E831F8391E08B2D58
:102280008D2109F490E098870E94CF1F8160782FFC
:102290009A8789874E815F8168858A850E949C0420
:1022A0000F5FDD0C073019F7F701B0821F5FFFEFFA
:1022B000EF1AFF0A1E3081F60E9493100E94E01070
:1022C0000E9407042A96EAE00C940F27CF93DF932D
:1022D0000E948612EC01811522E5920708F044C0A5
:1022E000811530E5930708F0DDC0803E910528F5A3
:1022F0008D3C910508F08EC0883A910570F4853ABE
:10230000910508F07DC08130910509F476C008F48C
:10231000E5C0049708F0E5C0E1C0813C910508F0F4
:10232000DDC0C85AD0E0CC0FDD1FC35ADE4F099084
:10233000D881C02DCE019464D5C0811560E2960786
:1023400050F4811571E0970708F0CBC0883E9105E5
:1023500008F4C7C0C3C0C11580E4D80708F4B3C0EF
:10236000DF70CE01906ABEC0C03892E5D90720F573
:10237000C03622E5D20708F06DC0C03432E5D3077D
:1023800008F053C0C03262E5D60708F045C02C2FD4
:102390002695269560E2269F90011124C37081E066
:1023A00090E002C0880F991FCA95E2F7E901C82B97
:1023B000D92BCE019D6896C0C03C72E5D70768F462
:1023C0008C2F8F71C03AD24508F05BC090E0D82FB7
:1023D000CC27CE01846F906A85C0C03E22E5D2072B
:1023E00008F458C0CE0196558F3F910511F008F0C2
:1023F00075C0DD27CE01906675C081E090E072C0A7
:10240000C55AD0E0C157DE4F8881C82FD0E0CE0139
:10241000906468C0906566C0CF718C2F90E0D82F13
:10242000CC27CE01816F906A5DC08C2F8F7186950D
:10243000869570E2879FA00111249C2F937021E064
:1024400030E0B90102C0660F771F9A95E2F7CB0121
:102450009C6814C08C2F8F718695869570E2879F3B
:10246000A00111249C2F937021E030E0B90102C03B
:10247000660F771F9A95E2F7CB019A68842B952B0C
:1024800031C00E9422138F7190E0D82FCC27CE014B
:10249000906228C0CF71DD27DC2FCC27CE01806F62
:1024A000906A20C08F710E94221395E0D695C7953F
:1024B0009A95E1F7CF70D0E0DC2FCC27D0699E0150
:1024C000282BC9010FC08D2F8F710E942213DD2789
:1024D000D0628F71BE01782BCB0104C080E090E008
:1024E00001C0CE01DF91CF9108957E3038F467307E
:1024F00028F4462F672F0E940003089580E090E0A3
:1025000008950E9475120E946611089582389105FF
:1025100069F1B0F48133910509F475C048F489324A
:10252000910509F467C08A32910509F471C00895D4
:102530008533910509F459C089339105B9F008959F
:10254000833E910589F138F4803E9105D1F0823EB9
:10255000910529F10895863E9105C9F1873E9105BF
:10256000D9F1843E910509F06CC027C02091A705E0
:1025700020FD57C021FD55C02091A80523FD5BC05B
:1025800008958091A70580FD48C08091A80580FF2F
:1025900048C08091A70584FD46C083EE51C080915C
:1025A000A70582FF3CC0F5CF8091A70582FD37C00B
:1025B0008091A80580FD35C0ECCF8091A80581FFF2
:1025C00036C08091A70584FD2EC087EE39C080916A
:1025D000A70583FF2AC0F5CF8091A70583FD25C0FD
:1025E0008091A80581FD23C0ECCF8091A70585FDD2
:1025F00022C01FC08091A70585FD1BC08091A80542
:1026000083FF19C00AC08091A70586FD16C017C0B8
:102610008091A70586FD13C010C089E311C082EE2A
:102620000FC080EE0DC080E00BC086EE09C084EEC6
:1026300007C085E305C089E203C08AE201C081E3E7
:1026400090E008959091A70592FF0DC0282F287162
:10265000283019F4877F846006C0282F2471243025
:1026600011F48B7F886093FF0DC0282F28712831CB
:1026700019F4877E846106C0282F2471243111F457
:102680008B7E88612091A80520FF0DC0382F3871FE
:10269000383019F4877F816006C0382F31713130AE
:1026A00011F48E7F886021FF0DC0282F28712831FA
:1026B00019F4877E816106C0282F2171213111F420
:1026C0008E7E886194FD877E08951092A3051092F6
:1026D000A4051092A5051092A6050895CF92DF9249
:1026E000EF92FF926B017C010E94731581110EC065
:1026F0000E94DB1FC61AD70AE80AF90AC092A3058E
:10270000D092A405E092A505F092A605FF90EF9067
:10271000DF90CF9008950F931F930E947315882325
:1027200019F00E94DB1F0EC00E94DB1F0091A30561
:102730001091A4052091A5053091A605600F711F89
:10274000821F931F1F910F91089580E008950895AF
:102750000E94FB0F811102C00E948A100E94061085
:1027600080935D020E9410109093A8058093A705A6
:102770000E94A7130E940B1090E00E94C70980914D
:10278000ED019091EE010E94E5090895E82FF0E037
:10279000E854FA4F80810895089580EA8A95F1F708
:1027A000089500C008950E94CD13089508950E94D1
:1027B000D61308950E94D71308950E94D613089542
:1027C0000E94DD1308950E94D6130895A7E0B0E09B
:1027D000ECEEF3E10C94F8260E9473156091C605A7
:1027E0008823E9F187E0F82E8E010F5F1F4FF80173
:1027F0008F2D11928A95E9F7862F90E0B8018854C1
:102800009A4F0E94B415882389F08091A90590E021
:1028100047E050E0B80188549A4F0E94222721E0F7
:1028200020935E02892B61F410E016C080915E0255
:102830008823D1F3F8011192FA94E9F710925E021D
:10284000A091A905B0E0A854BA4F87E0F801019023
:102850000D928A95E1F711E00E9453030DC070E0DC
:1028600068547A4F8091A90590E088549A4F0E944D
:102870003D160E94E31310E0812F2796E5E00C94AB
:102880001427F894E82FE295EF70F0E031A1282F9B
:102890002F7081E090E001C0880F2A95EAF7982F09
:1028A0009095932391A392A1892B82A37894089564
:1028B0000F931F93CF93DF93C9E9D1E089918F3FA5
:1028C00011F00E94411481E0C03AD807B9F7C2E97B
:1028D000D1E009E911E089918F3F11F00E94411484
:1028E0000C171D07C1F7DF91CF911F910F9108952C
:1028F000A0E0B0E0EEE7F4E10C94F5268C01C62FE1
:10290000D0E0CE0187569E4F7C01FC0190819F3F15
:1029100009F447C0D62EF894E92FE295EF70F0E065
:1029200081A19F7021E030E001C0220F9A95EAF763
:10293000822B81A382A12095282322A378940E9430
:10294000D113E2E9F1E049E951E031E0C12C2191F4
:102950002F3F89F0A22FA295AF70B0E090968C9196
:1029600090E02F7002C0959587952A95E2F780FD3B
:1029700002C0832F01C080E0C82A330F4E175F07C3
:1029800031F7F70180818F3F11F00E94411461E01F
:10299000C11001C060E08D2D0E94D313C00FD11F64
:1029A000C882CDB7DEB7E8E00C9411278091020110
:1029B00080910201811102C097E001C090E09093E4
:1029C000C60587E0891B8093A9050E9458148EE0F4
:1029D000E8EBF5E0DF01982F1D929A95E9F7EAEA16
:1029E000F5E0DF011D928A95E9F787E00E9439152D
:1029F0000E9450030895AEE0B0E0E1E0F5E10C94F0
:102A0000F8268E010F5F1F4F8EE0F80111928A9514
:102A1000E9F7F12C6F2DC8010E947814F394F7E0C8
:102A2000FF12F8CF4EE050E0B8018AEA95E00E942C
:102A3000222721E0009709F420E0892B41F08EE065
:102A4000F801AAEAB5E001900D928A95E1F760914C
:102A5000C60570E068547A4F47E08AEA95E00E9424
:102A60003A15182F0E94E613812B2E96E5E00C9460
:102A700014270895EF92FF920F931F93CF93DF9344
:102A80007C018B01C42F222349F081E080936102F5
:102A90000E94CF1F9093600280935F028091610239
:102AA000811102C080E01AC080915F0290916002A3
:102AB0000E94E71F0597B0F3D0E0AE01B701C8014F
:102AC0000E942227892B39F0AE01B701C8010E946C
:102AD0002F2781E001C080E010926102CDB7DEB700
:102AE000E6E00C941327CF93DF9380916402811169
:102AF00017C0C8ECD0E00E94DF2681110AC08FE326
:102B00009CE90197F1F700C000002197A1F782E04E
:102B100001C081E080936402823011F40E94DA26C1
:102B200081E090916402913009F080E0DF91CF91D3
:102B300008950E94731508950E94991580930201CB
:102B40000E94731581110E94EC1508950E9473155F
:102B5000811102C00E94EF15089581E090916502F5
:102B60009A3008F080E008950F931F93CF93DF937E
:102B7000EC018B01809165028A3038F4B801CE01F6
:102B80000E943A1681111DC00AC080916202909184
:102B900063020E94E71F843F914080F715C0809137
:102BA00065028F3F19F08F5F809365028091650207
:102BB0008A3060F00E94CF1F90936302809362027C
:102BC00003C01092650202C080E001C081E0DF9185
:102BD000CF911F910F9108950E94F71C08950E94B4
:102BE000FA1C0895A0E0B0E0E8EFF5E10C94F626B9
:102BF0007901C82F880FDD0B41155105A9F0FE01A1
:102C000093E0EE0FFF1F9A95E1F7ED5FFE4F818194
:102C100092818A599D4F208130E04217530708F472
:102C20009A01A9010E942F27CE010E94E21DD82EF1
:102C30008823D1F001151105B9F083E0CC0FDD1F19
:102C40008A95E1F7FE01ED5FFE4F438150E00417E6
:102C5000150708F4A801CD5FDE4F6C817D816A59AC
:102C60007D4FC7010E942F278D2DCDB7DEB7E7E03E
:102C70000C9412270E942F1708950E94461708955A
:102C8000A4E0B0E0E6E4F6E10C94F926609181025C
:102C90007091820280918302909184020E94F61FBB
:102CA000643671058105910528F10E948B13DC01C2
:102CB000CB010296A11DB11D89839A83AB83BC838E
:102CC00000E010E020E030E044E050E0BE016F5F43
:102CD0007F4F82E00E94F215182F882361F00E9436
:102CE000DB1F609381027093820280938302909332
:102CF000840201C011E0812F2496E4E00C94152792
:102D0000A0E0B0E0E6E8F6E10C94F3267C015B017C
:102D10006A010E94AD15811103C001E010E002C0FC
:102D20000AE010E0C1E0D0E0B501C701F601099565
:102D3000811115C021960C171D0794F0CC9F9001AE
:102D4000CD9F300D300D112480E090E045E34A9591
:102D5000F1F70000019682179307C1F7E5CF81E0F4
:102D6000CDB7DEB7EAE00C940F27A8E0B0E0EBEBBC
:102D7000F6E10C94F3267B01C090A001D090A10154
:102D800001E010E09E01285F3F4F40E050E060E02E
:102D900070E080E00E94F215182F882309F43EC0ED
:102DA00056018FEFA81AB80A60917D0270917E02D9
:102DB00080917F02909180020E94F61F6436710517
:102DC0008105910518F107E010E09E012F5F3F4F4C
:102DD00040E050E060E070E081E00E94F215182FC2
:102DE00067E070E0C5010E94981791E028852813DC
:102DF00090E0192339F10E94DB1F60937D027093EC
:102E00007E0280937F029093800211C067E070E0A1
:102E1000C5010E94981798858913D5CF87E0F601E0
:102E20003196DE01119601900D928A95E1F71123FA
:102E300049F087E0FE013196A6E7B2E001900D92DD
:102E40008A95E1F787E0E6E7F2E0D70101900D927D
:102E50008A95E1F7812F2896EAE00C940F270F93CB
:102E60001F93CF93DF93EC018B0145EB56E10E945A
:102E70008016882331F040E456E1B801CE010E946B
:102E80008016DF91CF911F910F9108950F931F939B
:102E9000CF93DF93C091A001D091A101CE01019603
:102EA00027E0FB01DC0101900D922A95E1F767E034
:102EB00070E00E9498178883688579858A859B854C
:102EC0000091720210917302209174023091750288
:102ED000601771078207930751F060937202709335
:102EE000730280937402909375020E946E13DF91B7
:102EF000CF911F910F9108950E94AD210E94CF1094
:102F00000E94BA2108950E94BF210E94E6100E94EB
:102F1000D92108950E94661F0E9493210E94BC102F
:102F20000E947C170E9483170E94C510FBCF089552
:102F3000FC01680F791F8FEF91E3E617F70771F037
:102F40002191822728E030E087FF03C0880F89277E
:102F500001C0880F21503109B9F7EFCF0895CF9301
:102F6000DF93FC01DB0112968C91882309F4DDC00C
:102F70009F0130572332310508F0D8C0EF010E947D
:102F800010109093A8058093A705FE01E150F0472B
:102F9000E232F10520F4E759FF4F0C94E5268091C9
:102FA000A7058160AAC08091A8058860B2C0809101
:102FB000A7058260A2C08091A70520C08091A705C7
:102FC00088609BC08091A8051EC08091A805826082
:102FD000A0C08091A705806190C08091A705806204
:102FE0008CC08091A705806488C00E946909809187
:102FF000A705806882C08091A705886084607DC035
:103000008091A8058260816084C08091A7058E7F31
:1030100074C08091A805877F7CC08091A7058D7FB3
:103020006CC08091A70520C08091A705877F65C0EF
:103030008091A8051EC08091A8058D7F6AC08091EF
:10304000A7058F7E5AC08091A7058F7D56C08091BD
:10305000A7058F7B52C00E9469098091A7058F77D1
:103060004CC08091A705877F8B7F47C08091A805C2
:103070008D7F8E7F4EC08091A70582FB222720F98D
:1030800091E0922790FB82F990FB83F936C0809102
:10309000A805982F909591708E7F892B90FB81F9D0
:1030A00038C08091A70586FB222720F991E092275E
:1030B00090FB86F922C00E9469098091A70587FBD1
:1030C000222720F991E0922790FB87F916C081E032
:1030D00001C080E00E948D101EC08091A70584FB76
:1030E000222720F991E0922790FB84F906C0809175
:1030F000A705982F909590FB80F98093A7050BC0AA
:103100008091A80583FB222720F991E0922790FB6C
:1031100083F98093A8058091A7059091A8050E9446
:1031200015100E94690980E001C081E0DF91CF9114
:1031300008958832910530F48E319105A8F40497F2
:1031400070F00FC08D32910561F018F48A9761F02C
:1031500006C08C34910541F08D32924029F080E018
:10316000089582E00E94EF0E81E00895A0E0B0E0B3
:10317000ECEBF8E10C94F626EC017B01C3378CE70D
:10318000D80749F4FB011281112309F485C00E947C
:103190008E1910E081C00E94DC0ED82E0E94FF0E16
:1031A000082F0E945B19811102C011E075C00E94B6
:1031B0005219F70112811123C1F30D290D7909F07C
:1031C00069C0C034F2E5DF07B8F4C11582E5D8075D
:1031D00008F062C0C115E0E4DE0748F4C115F0E272
:1031E000DF0740F5C63ED10509F048C055C0C115FE
:1031F00080E5D807E8F142C0C03EE2E5DE0798F47A
:10320000C03CF2E5DF0708F047C0C03682E5D807CA
:10321000A8F1C03AE2E5DE0708F43EC0C43BF2E59F
:10322000DF07D1F12BC0CE0196558F3F9105D1F02C
:10323000C8F024C0F7018581807FF9F48D2F8F714C
:10324000823169F028F4823029F5C1EED0E016C051
:10325000843111F18631F1F4C6EED2E10FC0C5EE32
:10326000D0E00CC0CE01805F9645079708F49DCF53
:10327000F7018581807F09F498CFDD270E94FC0E3D
:10328000CE010E949918C82F882321F00E942E0F8A
:103290001C2F02C00E946F19812FCDB7DEB7E7E067
:1032A0000C9412270E94CF1F88579C4E9093860241
:1032B00080938502089580918702089508958091F2
:1032C000870281110BC00E94EC0E0E94200F0E9409
:1032D000521981E0809387020E945E1908958091BF
:1032E0008702882341F082E20E944C0910928702F3
:1032F00080E00E945E19089580918702882369F01A
:103300000E94CF1F2091850230918602821B930B71
:103310008F3F9F4710F40E946F1908958091870294
:10332000882319F00E946F1908950E945F1908956B
:103330008B3109F469C058F58B3009F490C078F4EA
:10334000863009F446C020F4853009F44CC08CC0A6
:10335000873009F44BC0883009F481C085C08031C2
:1033600009F465C068F48E3009F07EC080915D027A
:1033700082FB222720F991E0922790FB82F94DC031
:10338000863109F46CC0893109F469C06DC08A3294
:10339000E9F060F4873209F464C028F48E3108F44F
:1033A00063C08D514FC08932F1F05EC0833450F458
:1033B0008A3308F046C0853309F453C0883309F4D2
:1033C0004EC052C0833409F44CC04EC00E948A10D3
:1033D00046C080915D02817F8E7F80935D0281E097
:1033E0008093880208950E94650339C080915D0230
:1033F000982F9095917090FB80F980935D029111C8
:103400002EC0897F877F10C080915D0281FB2227BB
:1034100020F991E0922790FB81F980935D02992336
:10342000F1F080915D02816080935D0218C080910F
:103430005D0283FB222720F991E0922790FB83F91C
:10344000ECCF895321E030E0A90102C0440F551FA1
:103450008A95E2F7CA010E94C7090E94690981E0C2
:10346000089581E090E0F7CF80E0089580E008952E
:103470000E94361A0895CF93DF93C82F8091880257
:10348000882319F0813059F035C00E94DC0ED82F06
:103490000E94FF0E8D2B8272823271F509C00E944C
:1034A000DC0ED82F0E94FF0E8D2B8272823261F4C7
:1034B0008C2F0E94381A811104C08C2F0E949819F9
:1034C00017C081E090E014C08C2F0E94361A811141
:1034D0000EC0C43149F018F4CB3049F00FC0C932E6
:1034E00019F0C83321F00AC01092880207C081E0A9
:1034F000817006C01092880280E002C080E0F8CFA0
:10350000DF91CF9108950895089508950E94851A36
:10351000089581E008950F931F93CF93DF93EC01FB
:103520008B010E94831A0E9469090E94EF09198386
:103530000883DF91CF911F910F910895AF92BF92B1
:10354000CF92DF92EF92FF921F93CF93DF93EC0124
:103550006B01142FE090ED01F090EE010E946909DB
:103560000E94EF0986E0180250011124CC15DD05F8
:1035700031F0CE010E941B09CA0DDB1DF7CF0E945E
:103580006909C7010E94E809812F0E94861ADF910C
:10359000CF911F91FF90EF90DF90CF90BF90AF90B1
:1035A00008950F931F93CF93DF93EB01F8013281BE
:1035B000A881B981311103C0A817B907D1F036E04D
:1035C0002302C0011124BD01681B790B4617570760
:1035D00061F026E001900D922A95E1F7288139816A
:1035E000820F931F9983888304C0BF01822F0E949A
:1035F000841ADF91CF911F910F910895CF92DF929E
:10360000EF92FF921F93CF93DF936C01EB01142F86
:103610007901842F0E94851A8AEF1802A0011124D3
:10362000CC15DD0559F4F701D183C083DF91CF912B
:103630001F91FF90EF90DF90CF900895FE01E40F6F
:10364000F51F8281882379F3EF01EACF0F931F934F
:10365000CF938B0120918B05211139C0FB01C281D1
:10366000C1118BC08435FCE79F07E9F060F4833516
:103670009C4709F082C069E872E089E895E00E9401
:103680008B1A81E017C086354CE79407B1F0873577
:103690009C4709F072C060911B0170911C014FEFB3
:1036A00083E895E011C063E875E089E895E00E9441
:1036B0008B1A82E080938B0563C060911D0170912D
:1036C0001E0141E089E892E00E949E1A59C08335AC
:1036D000FCE79F0780F186353CE7930730F088359B
:1036E0004CE7940708F44BC026C031E085359C4771
:1036F00009F430E0F8018281831709F440C02130D9
:1037000061F02230A9F46091890570918A052BE15E
:1037100031E04FEF83E895E009C060918905709131
:103720008A052DE131E041E089E892E00E94FE1A2D
:1037300010928B0524C0B8010E94891AC82F8823D3
:10374000E1F080918B05813061F08230C9F44091C5
:103750001D0150911E012FEF69E875E083E895E0A7
:1037600009C040911B0150911C0121E069E875E0FE
:1037700089E892E00E94D11A03C0C1E001C0C0E014
:103780008C2FCF911F910F910895CF93DF938631A6
:103790009C4741F5EB010E94DC0E982F8A81209115
:1037A000000130910101882379F09A7A81E009F4CF
:1037B00080E080938C05911102C069E201C065E34D
:1037C000C9010E94151F0AC080918C05811102C099
:1037D00069E201C065E3C9010E94181F0E942E0F13
:1037E00080E001C081E0DF91CF9108950F931F9396
:1037F000CF93DF93C42FD22FFC0182818823B1F0B5
:1038000040938F050E94CF1F90938E0580938D0566
:1038100080E28C0F883008F04DC0C77081E001C095
:10382000880FCA95EAF70E94440644C080918F052C
:10383000481330C080918D0590918E050E94E71F3E
:10384000883C910538F510E21D0FCD17B9F080E2E4
:103850008C0F883040F4C77081E001C0880FCA9592
:10386000EAF70E944B06183010F581E09D2F977003
:1038700001C0880F9A95EAF70E944406802F0E94A3
:103880003A061830B8F4D77081E001C0880FDA9595
:10389000EAF70AC080E28C0F883060F4C77081E0DC
:1038A00001C0880FCA95EAF70E944B0603C0802F1B
:1038B0000E943A06DF91CF911F910F9108950F93C7
:1038C000FC01E851FC47E730F10590F5CB01E557E5
:1038D000FF4F0C94E52606E221EE41EE6AE17CE71B
:1038E00023C007E225EE45EE6BE17CE71DC006E252
:1038F00021EE40EE68E17CE717C007E225EE44EEDA
:1039000069E17CE711C006E221EE42EE6CE17CE762
:103910000BC007E225EE46EE6DE17CE705C008E24C
:1039200021E045EE6EE17CE70E94F61B80E008C0D6
:10393000FB018281882319F010928F0501C081E07C
:103940000F9108958EE1499B02C08150E1F7499B98
:10395000FECF0895599880E28A95F1F7599A089513
:10396000FC012AE02A95F1F728E090E080E031E0C0
:1039700040E14A95F1F7880F499B02C08160932787
:1039800000C0000040E14A95F1F7215089F720E19D
:103990002A95F1F729B100C0000030E13A95F1F71E
:1039A0002695217092272081920F90830895A1E09F
:1039B000B0E0EDEDFCE10C94F72619828C017C015E
:1039C000E60EF11C0E151F0551F00E94A21CCE013F
:1039D00001960E94B01CF80181938F01F3CF81E022
:1039E0009981911180E02196E6E00C941327519A79
:1039F000599A08955198599AE99AE9E6F0E0808138
:103A0000837F80830895615091E001C0990F6A958A
:103A1000EAF720E031E0992361F0492F482319F0BB
:103A2000599A232701C0599840E24A95F1F7969593
:103A3000F2CF222311F0599A01C0599880E28A9559
:103A4000F1F759980895FF920F931F93CF93DF9347
:103A5000EC018C01060F111DC017D10741F0F99040
:103A60000E94AA1C68E08F2D0E94031DF5CFCDB7E0
:103A7000DEB7E5E00C9414271F920F920FB60F9259
:103A800011240F931F932F933F934F935F936F9343
:103A90007F938F939F93AF93BF93EF93FF93CF93B6
:103AA000DF931F92CDB7DEB719820E94A21CCE0110
:103AB00001960E94B01C082F069506950695902F3A
:103AC00096959570202F2570920F292F237096952B
:103AD0009695920F877089135FC0898181115CC0B0
:103AE000043008F059C080E18A95F1F7599A519A4B
:103AF00082E08A95F1F700C0599888E0089F80011C
:103B00001124D801AD5FBE4F1696ED91FC91179729
:103B10003097A9F06091A0017091A10114962D91A8
:103B20003C911597260F371F11968D919C911297F6
:103B3000680F791F13964C9113978C910995F80192
:103B4000ED5FFE4F6381662351F08091A00190915B
:103B5000A10124813581820F931F0E94231D0E94A1
:103B6000AA1C80E18A95F1F759985198599A80E1F9
:103B70008A95F1F7F801ED5FFE4F6081662351F001
:103B80008091A0019091A10121813281820F931F28
:103B90000E94D71C0E94A21C0F90DF91CF91FF9131
:103BA000EF91BF91AF919F918F917F916F915F91B5
:103BB0004F913F912F911F910F910F900FBE0F903A
:103BC0001F9018950F931F93CF93DF938430910527
:103BD0000CF06DC0EC01F894519A599885E08A95E3
:103BE000F1F700009C2F969595702C2F2570920F61
:103BF000892F83709695969523E0CC0FDD1F2A952B
:103C0000E1F7980F8E01092B0E94AA1C84E08A9587
:103C1000F1F700C068E0802F0E94031D80E18A95C3
:103C2000F1F75198599A499902C000C0FCCF87E03A
:103C300090E0499B08C0019721F4519A599A7894D1
:103C400036C000C0F6CFFE01ED5FFE4F63816623F4
:103C500081F08091A0019091A10124813581820F92
:103C6000931F0E94D71C811104C0519A599A7894CD
:103C70001FC00E94A21C80E28A95F1F75998519AC0
:103C800080E18A95F1F7CD5FDE4F6881662351F0C0
:103C90008091A0019091A10129813A81820F931F07
:103CA0000E94231D0E94AA1C789481E001C080E03C
:103CB000DF91CF911F910F9108959093A30180936D
:103CC000A2010895909396058093950508950E940A
:103CD0007315811103C0809190050895E0919505B9
:103CE000F0919605309729F00190F081E02D09952B
:103CF000089580E008950E94671E0895E09195055B
:103D0000F0919605309721F00280F381E02D09951E
:103D10000895A3E0B0E0EFE8FEE10C94FB262091CB
:103D200093053091940528173907A1F090939405D5
:103D300080939305E0919505F0919605309751F0A9
:103D400023E029839B838A830680F781E02DCE01BF
:103D5000019609952396E2E00C941727A3E0B0E0C2
:103D6000E4EBFEE10C94FB26209191053091920545
:103D700028173907A1F09093920580939105E0915F
:103D80009505F0919605309751F024E029839B83A7
:103D90008A830680F781E02DCE010196099523964E
:103DA000E2E00C941727FC01329697E080E09150F6
:103DB00029F021912223D9F38F5FF9CF089566234B
:103DC00049F0FC01329608962191621729F0E81714
:103DD000F907D1F780E0089581E008959C01FC0186
:103DE00032969FEF80E04191461789F09F3F19F48A
:103DF000411101C0982F8F5F8630A9F79F3F39F09E
:103E0000F901E90FF11D97FDFA9562830895089570
:103E10009C012A5F3F4FFC014281461301C0128280
:103E2000019682179307B9F708950E94EE1E089530
:103E30000E94081F0895029626E0FC0111922A951F
:103E4000E9F7089508950E94221F089583E0809362
:103E500097050E94231F0895811102C081E001C0CF
:103E600082E0809397050E94231F08950E942C1FD3
:103E7000089581E0809397050E94231F08950E9472
:103E8000391F089508950E94421F08950E94431FFC
:103E900008950E94421F08950E94421F08950E94A3
:103EA000421F0895CF930E944C1F0E94FB140E9452
:103EB000491FC0E08C2F0E94C613811104C0CF5F40
:103EC000CE30C1F701C081E0CF91089585B78068F9
:103ED00085BF85B7806885BF08951F920F920FB682
:103EE0000F9211248F939F93AF93BF938091980566
:103EF000811113C08091C7059091C805A091C90593
:103F0000B091CA054196A11DB11D8093C70590933C
:103F1000C805A093C905B093CA05BF91AF919F9101
:103F20008F910F900FBE0F901F9018958091CF0525
:103F3000843031F10E94D4031092980520E488E186
:103F400090E00FB6F894A895809360000FBE209380
:103F5000600083B7817F846083BF83B7816083BF44
:103F60007894889583B78E7F83BF0FB6F894A89511
:103F700080916000886180936000109260000FBEA5
:103F800008950E9469090E94D903089582E084BDC2
:103F900093E095BD9AEF97BD80936E0008952FB77B
:103FA000F8948091C7059091C805A091C905B0917A
:103FB000CA052FBF08952FB7F8946091C705709177
:103FC000C8058091C9059091CA052FBF08959C012D
:103FD0004FB7F8948091C7059091C805A091C90585
:103FE000B091CA054FBF821B930B0895CF92DF9209
:103FF000EF92FF922FB7F894C090C705D090C805F4
:10400000E090C905F090CA052FBFA7019601261BB5
:10401000370B480B590BCA01B901FF90EF90DF90A5
:10402000CF90089578941F920F920FB60F9211249B
:104030008F939F93AF93BF938091C7059091C805CD
:10404000A091C905B091CA050196A11DB11D80932B
:10405000C7059093C805A093C905B093CA05BF9141
:10406000AF919F918F910F900FBE0F901F90189559
:1040700087E797E790930108809300089AE088E12A
:104080000FB6F894A895809360000FBE90936000DF
:10409000FFCF9AE088E10FB6F894A895809360006E
:1040A0000FBE90936000FFCF8091A1050895089501
:1040B0009B019091CF059430F1F48F708093E900CB
:1040C0008FEF9091E800815095FD06C095ED9A958F
:1040D000F1F700008111F5CF8091E80085FF0BC05A
:1040E000BA01C90140E050E00E944C228091E800F2
:1040F0008E778093E800089543E050E0BC0182E0B1
:104100000E9458200895CF93DF93EC0148E050E0DF
:10411000BC0181E00E94582088E0FE01A9E9B5E0D9
:1041200001900D928A95E1F7DF91CF9108958091EA
:10413000CE05811109C00E94D7230E9434248091AA
:10414000E20084608093E20008951092CE05089505
:104150000E943F1F08956091CB0581E0611101C06D
:1041600080E00E94261F08959091CF0581E0943051
:1041700009F080E06091CB050E942C1F089542E079
:1041800061EC81E00E94502342E261EC82E00E94F7
:1041900050239091CF0581E0943009F080E0609148
:1041A000CB050E94361F08958091D105833009F414
:1041B00061C030F4813071F0823009F49BC0089501
:1041C0008A3009F487C08B3009F46CC0893009F05B
:1041D000A9C020C08091D005813A09F0A3C0809188
:1041E000E800877F8093E8008091D4059091D50501
:1041F000892B21F468E089E995E003C060E080E064
:1042000090E070E00E9491228091E8008B7780938B
:10421000E80008958091D005813209F083C0809133
:10422000D4059091D505029708F07CC08091E800F4
:10423000877F8093E8008091E80082FD05C080912F
:10424000CF058111F8CF6EC02091F3008091F2006C
:1042500090E0922B029731F48091F100813011F0BF
:10426000863021F48091F1008093A1058091E800CF
:104270008B7754C08091D005813A09F053C080916A
:10428000D4059091D505892B09F04CC08091E800A8
:10429000877F8093E8008091E80080FFFCCF8091C9
:1042A000270137C08091D0058132E1F58091D40596
:1042B0009091D505892BB1F58091E800877F809397
:1042C000E8000E9485238091D205809327010E94F7
:1042D000690908958091D005813221F58091E80027
:1042E000877F8093E8000E9485238091D305809387
:1042F000A20508958091D005813AA1F48091E8004B
:10430000877F8093E8008091E80080FFFCCF809158
:10431000A2058093F1008091E8008E778093E800F9
:104320000E948523089584B7877F84BF0FB6F894D1
:10433000A895809160008861809360001092600071
:104340000FBE90E080E80FB6F894809361009093E0
:1043500061000FBE0E94391F08950E94D7230E945A
:104360003424E2EEF0E080818460808378940E94BF
:10437000BF2608958FE191E00E94621E089580910A
:10438000CF058530A9F48091CF05853079F40E945E
:10439000961F8091CD058823B1F30E94521F882378
:1043A00091F30E9436220E946909EDCF0E94C11F3D
:1043B000089508950E94DD210895292F3327233081
:1043C0003105C9F060F42130310581F0223031052A
:1043D00009F044C08BE390E022E934E043C021328D
:1043E0003105E1F02232310549F138C082E190E037
:1043F0002DEC34E037C099278130910549F028F041
:10440000029761F5E8E4F4E005C0EEE8F4E002C0EC
:10441000EEE7F4E0849190E09F0124C061157105FE
:1044200041F061307105D1F489E090E02DEB34E08A
:1044300019C089E090E024EA34E014C061157105E8
:1044400041F06130710551F482E390E02FED34E0EA
:1044500009C080E490E021E135E004C080E090E014
:1044600020E030E0FA0131832083089580E189BDA6
:1044700082E189BD09B400FEFDCF8091D8008F7D17
:104480008093D8008091E00082608093E00080916A
:10449000E00081FDFCCF0895A0E0B0E0E2E5F2E2AB
:1044A0000C94F526EC018B017A010E94A423811162
:1044B00033C0E114F10439F0F70180819181081BC8
:1044C000190BC80FD91FC12CD12C0115110519F1D9
:1044D0008091E80085FD16C08091E8008E7780937A
:1044E000E800E114F10449F0F70180819181C80EE0
:1044F000D91ED182C08285E00FC00E94A4238823E8
:1045000021F30AC089918093F10001501109FFEF56
:10451000CF1ADF0ADACF80E0CDB7DEB7E8E00C943F
:1045200011272091D6053091D7052617370748F077
:104530006115710539F42091E8002E772093E80089
:1045400001C0B901FC0120E06115710579F180918C
:10455000CF058823F1F18530F1F18091E80083FDEA
:104560003CC08091E80082FD2EC08091E80080FF71
:10457000EBCF2091F3008091F20090E0922B611537
:10458000710551F08830910538F421912093F100A4
:10459000615071090196F3CF21E0089709F020E0FE
:1045A0008091E8008E778093E800CECF2111CFCFA5
:1045B0000AC08091CF05882361F0853061F0809139
:1045C000E80083FD0AC08091E80082FFF2CF80E01E
:1045D000089582E0089583E0089581E00895209190
:1045E000D6053091D7052617370748F061157105B4
:1045F00039F42091E8002E772093E80001C0B9013A
:10460000FC0120E06115710591F18091CF058823AF
:1046100009F440C0853009F43FC08091E80083FD73
:104620003DC08091E80082FD2FC08091E80080FFAE
:10463000E9CF2091F3008091F20090E0922B611578
:10464000710559F08830910540F424912093F100D0
:104650003196615071090196F2CF21E0089709F077
:1046600020E08091E8008E778093E800CBCF211185
:10467000CCCF0AC08091CF05882361F0853061F0EE
:104680008091E80083FD0AC08091E80082FFF2CFAC
:1046900080E0089582E0089583E0089581E0089520
:1046A000982F973068F59093E900981739F070913A
:1046B000EC002091ED005091F00003C0242F762FE4
:1046C00050E021FD02C09F5FECCF3091EB003E7FB8
:1046D0003093EB003091ED003D7F3093ED00309151
:1046E000EB0031603093EB007093EC002093ED0011
:1046F0005093F0002091EE0027FDE5CF80E0089573
:104700008F708093E90081E008958091D00587FF44
:1047100011C08091E80082FD05C08091CF05811114
:10472000F8CF11C08091E8008B770BC08091CF0546
:10473000882349F08091E80080FFF8CF8091E8005D
:104740008E778093E80008952091E4003091E50091
:1047500095E64091EC00842F817040FF23C080914A
:10476000E80080FD1DC08091CF05882399F0853039
:1047700099F08091EB0085FD11C04091E4005091CB
:10478000E5002417350729F3915011F09A01E1CF84
:1047900084E0089582E0089583E0089581E008951B
:1047A00080E008954091E80042FFDDCF08950E9427
:1047B00046240E944E24E0EEF0E0808181608083F8
:1047C000E8EDF0E080818F77808319BCA7EDB0E041
:1047D0008C918E7F8C9380818F7E80831092CE050A
:1047E00008950F931F93CF93DF930E9446240E9456
:1047F0004E24C8EDD0E088818F77888388818068D7
:10480000888388818F7D888319BC1092CF05109290
:10481000CB051092CD051092CC0500EE10E0F8010A
:1048200080818B7F808388818160888342E060E023
:1048300080E00E945023E1EEF0E080818E7F808353
:10484000E2EEF0E0808181608083808188608083F7
:10485000F80180818E7F8083888180618883DF91E9
:10486000CF911F910F910895E8EDF0E080818F7E48
:104870008083E7EDF0E080818160808384E082BF07
:1048800081E08093CE050E94F1230895E8EDF0E0E9
:1048900080818E7F80831092E20008951092DA006A
:1048A0001092E10008951F920F920FB60F921124FB
:1048B0002F933F934F935F936F937F938F939F9328
:1048C000AF93BF93EF93FF938091E10082FF0BC002
:1048D0008091E20082FF07C08091E1008B7F80938E
:1048E000E1000E94BE268091DA0080FF1FC0809107
:1048F000D80080FF1BC08091DA008E7F8093DA00A1
:104900008091D90080FF0DC080E189BD82E189BD21
:1049100009B400FEFDCF81E08093CF050E9497206F
:1049200005C019BC1092CF050E94A5208091E1001E
:1049300080FF19C08091E20080FF15C08091E200E5
:104940008E7F8093E2008091E20080618093E2009C
:104950008091D80080628093D80019BC85E0809354
:10496000CF050E94AB208091E10084FF30C0809190
:10497000E20084FF2CC080E189BD82E189BD09B4D9
:1049800000FEFDCF8091D8008F7D8093D80080916C
:10499000E1008F7E8093E1008091E2008F7E809322
:1049A000E2008091E20081608093E2008091CB057B
:1049B000882311F084E007C08091E30087FD02C0E6
:1049C00081E001C083E08093CF050E94B4208091F4
:1049D000E10083FF29C08091E20083FF25C0809120
:1049E000E100877F8093E10082E08093CF05109201
:1049F000CB058091E1008E7F8093E1008091E20001
:104A00008E7F8093E2008091E20080618093E200DB
:104A100042E060E080E00E9450238091F0008860D6
:104A20008093F0000E94A820FF91EF91BF91AF9179
:104A30009F918F917F916F915F914F913F912F91B6
:104A40000F900FBE0F901F9018951F920F920FB6E8
:104A50000F9211242F933F934F935F936F937F9304
:104A60008F939F93AF93BF93CF93DF93EF93FF9376
:104A7000C091E900CF708091EC00D82FD17080FDFB
:104A8000D0E81092E9008091F000877F8093F000D9
:104A900078940E9469251092E9008091F000886066
:104AA0008093F000CD2BCF70C093E900FF91EF9180
:104AB000DF91CF91BF91AF919F918F917F916F9136
:104AC0005F914F913F912F910F900FBE0F901F90CC
:104AD0001895AAE2B0E0EFE6F5E20C94FA26E0EDD4
:104AE000F5E08091F100819325E0E83DF207C9F7F8
:104AF0000E94D4208091E80083FF2EC18091D005D0
:104B00009091D105492F50E04A30510508F024C159
:104B1000FA01EE56FF4F0C94E526803821F08238DA
:104B200009F01AC108C08091CC059091CD05992358
:104B300089F082600FC08091D4058F70873008F0B3
:104B40000BC18093E9008091EB0085FB882780F9F9
:104B50001092E9009091E800977F9093E80080938D
:104B6000F1001092F100D1C0282F2D7F09F0F4C080
:104B7000882319F0823061F0EFC08091D205813036
:104B800009F0EAC0933009F080E08093CD052EC093
:104B90008091D20581112AC08091D4058F702FEFAA
:104BA000280F263008F0D8C08093E9002091EB0050
:104BB00020FF1CC0933021F48091EB00806214C070
:104BC0009091EB0090619093EB0021E030E0A9011F
:104BD00002C0440F551F8A95E2F74093EA001092F5
:104BE000EA008091EB0088608093EB001092E9006E
:104BF0008091E800877F8093E8000E948523ACC005
:104C00008111AAC01091D2051F778091E3008078AE
:104C1000812B8093E3008091E800877F8093E800F8
:104C20000E9485238091E80080FFFCCF8091E30003
:104C300080688093E300111102C082E001C083E02C
:104C40008093CF0589C08058823008F085C080915C
:104C5000D2059091D3058C3D53E0950779F583E01B
:104C60008A838AE289834FB7F894DE01139620E0A5
:104C70003EE051E2E32FF0E050935700E49120FF33
:104C800003C0E295EF703F5FEF708E2F90E0EA3047
:104C900010F0C79601C0C0968D939D932F5F24316D
:104CA00049F74FBF8091E800877F8093E8006AE270
:104CB00070E0CE0101960E94912216C06091D40549
:104CC0007091D505AE014F5F5F4F0E94DA21BC01A4
:104CD000892B09F441C09091E800977F9093E800F8
:104CE00089819A810E94EF228091E8008B778093DE
:104CF000E80032C0803881F58091E800877F80939A
:104D0000E8008091CB058093F1008091E8008E77D8
:104D100072CF811121C08091D2059091D30599273E
:104D20000297D4F48091E800877F8093E800809117
:104D3000D2058093CB050E9485238091CB058111FC
:104D400006C08091E30087FD02C081E001C084E0DD
:104D50008093CF050E94BF208091E80083FF0AC0A6
:104D60008091E800877F8093E8008091EB0080626B
:104D70008093EB00AA96E3E00C9416270895CF9356
:104D80008091CF058823A1F0C091E900CF70909168
:104D9000EC00892F817090FD80E8C82B1092E9000B
:104DA0008091E80083FD0E946925CF70C093E900DF
:104DB000CF9108950E94D7231092CF050895809136
:104DC000E300881F8827881F0895EE0FFF1F0590B6
:104DD000F491E02D09942F923F924F925F926F923F
:104DE0007F928F929F92AF92BF92CF92DF92EF927B
:104DF000FF920F931F93CF93DF93CDB7DEB7CA1BFC
:104E0000DB0B0FB6F894DEBF0FBECDBF09942A8826
:104E1000398848885F846E847D848C849B84AA84CE
:104E2000B984C884DF80EE80FD800C811B81AA815B
:104E3000B981CE0FD11D0FB6F894DEBF0FBECDBF26
:104E4000ED010895FB01DC0104C08D9101908019F2
:104E500021F441505040C8F7881B990B0895FB017D
:104E6000DC0102C001900D9241505040D8F70895E6
:104E7000F999FECF92BD81BDF89A992780B5089522
:104E8000A8E1B0E042E050E00C946C27262FF9999D
:104E9000FECF92BD81BDF89A019700B4021639F099
:104EA0001FBA20BD0FB6F894FA9AF99A0FBE08956A
:104EB0000396272F0E9447270E944627252F0E94EE
:104EC0004727242F0C9447270196272F0E94472716
:104ED0000C944627DC01CB01FC01F999FECF06C0FA
:104EE000F2BDE1BDF89A319600B40D9241505040A8
:084EF000B8F70895F894FFCF14
:104EF8003B02010000000100000000000000070163
:104F08000000000408000000000000830589025426
:104F180020832057207C2001E200E900EA00B50048
:104F2800B600B700CD008301CC008A01920194013C
:104F38002102230224022502260227022A02B300A4
:104F4800B4006F0070009F01CB01818283E200E909
:104F580000EA00B500B600B700CD008301CC008A96
:104F6800019201940121022302240225022602272C
:104F7800022A02B300B4006F0070009F01CB0181C8
:104F88008283F5F6F73133323690946697C6343516
:024F98006602AF
:00000001FF
