:100000000C94CB020C94E8020C949D1F0C94E80213
:100010000C94E8020C94E8020C94E8020C94E802B8
:100020000C94E8020C94E8020C94CF260C94A127BF
:100030000C94E3210C94E8020C94E8020C94E8027E
:100040000C94E8020C94E8020C94E8020C94E80288
:100050000C94E8020C9488220C94E8020C94E802B8
:100060000C94E8020C94E8020C94E8020C94E80268
:100070000C94E8020C94E8020C94E8020C94E80258
:100080000C94E8020C94E8020C94E8020C94E80248
:100090000C94E8020C94E8020C94E8020C94E80238
:1000A0000C94E8020C94E8020C94E802A006A00666
:1000B000CC06CC063F075D075508BA086207DA0789
:1000C000EC07EC076108840869086C087708710878
:1000D0007C08E519571AED19B719BB19F119BE19A2
:1000E000F419FF19C9194D1ACD19031AD119071A94
:1000F000311AD5190B1A3B1ADB19111A1B1AC2191E
:10010000F819C519FB19E019161A271A471A491ABE
:10011000B319E919601AD81EDE1ECC1ED21EE41EC9
:10012000EA1EF01E092830282829302828297C2892
:100130009F282829F6280529000001070207030740
:100140000407050706000001010802080308040867
:10015000050806010002010902090309040905094D
:1001600006020003010A020A030A040A050A06033A
:100170000004010402040304040405040604000549
:10018000010502050305040505050605000601062F
:100190000206030604060506060600070107020715
:1001A00003070407050706070008010802080308FB
:1001B00004080508060800090109020903090409E1
:1001C00005090609000A010A020A030A040A050AC7
:1001D000060A000B010B020B030B040B050B060BAD
:1001E000000C010C020C030C040C050C060C000D99
:1001F000010D020D030D040D050D060D29001E0055
:100200001F0020002100220045002B0014001A00CE
:100210000800150017002D002B040400160007002D
:1002200009000A002E00E1001D001B000600190055
:1002300005000000737C6252A85261522C004C00F1
:1002400000000000000000000000E00028000000A6
:100250000000000000000000A452F056000044001E
:100260002300240025002600270035002F001C0055
:1002700018000C0012001300310030000B000D00BC
:100280000E000F0033003400000011001000360093
:1002900037003800E50000002A0028005200510015
:1002A00050004F0000004B00E40000000000000080
:1002B000000000004E00B4520000000000000000EA
:1002C00001003A003B003C003D003E0001000100FF
:1002D00063005F006000610054005500010062008F
:1002E0005C005D005E0056005700010049005900A7
:1002F0005A005B00670000000100010001000100DE
:1003000001000100000000000000000000000100EA
:1003100001000000000000000000000001000100DA
:10032000000001003F004000410042004300000087
:1003300000004A004D00520000004B000000000089
:100340000000500051004F000000000000004E006F
:10035000000000000000000001000000010001009A
:100360000100010001000100000001000100000087
:10037000000000000000000001000100000000007B
:100380000000000001000100010001000100010067
:100390000100010001000100010001000100010055
:1003A0000100010001000100010001000100010045
:1003B0000100010001000100010000000100010036
:1003C000007C0100010001000000000000000000AE
:1003D000000001000100000000000000000000001B
:1003E0000100010000000100010001000100010006
:1003F00001000100010001000100010001000100F5
:1004000001000100010001000100010001000100E4
:1004100000000100010001000100010001000000D6
:1004200001000100537C567C547C577C0000010085
:1004300001000000000000000000000001000100B9
:100440000000000000000000300344006100630071
:10045000740079006C002D004D0061006E00750085
:1004600066006F0072006D002000280035007800E3
:1004700037002B003200290000000E036A006500DF
:100480007200760069007300000004030904090289
:100490003B00020100A0FA09040000010301010071
:1004A0000921110100012240000705810308000114
:1004B00009040100010300000009211101000122CB
:1004C0007B000705820320000112010002000000EA
:1004D000084D44373510000102000105010902A151
:1004E0000185020901A10005091901290815002546
:1004F0000195087501810205010930093115812531
:100500007F95027508810609381581257F9501754B
:10051000088106050C0A38021581257F95017508AA
:100520008106C0C005010980A101850319012AB710
:1005300000150126B700950175108100C0050C0952
:1005400001A101850419012AA002150126A0029526
:100550000175108100C005010906A101050719E018
:1005600029E7150025019508750181029501750897
:1005700081010507190029FF150026FF0095067562
:100580000881000508190129059505750191029555
:100590000175039101C011241FBECFEFDAE0DEBF69
:1005A000CDBF11E0A0E0B1E0E0E4F4E502C00590C9
:1005B0000D92A83AB107D9F725E0A8EAB1E001C049
:1005C0001D92A93EB207E1F70E94DF160C941E2A85
:1005D0000C9400008330B0F46E30A0F4473090F4F7
:1005E00092E6899FF001112487E0689FE00DF11DDC
:1005F0001124E40FF11DEE0FFF1FE450FE4F859113
:100600009491089580E090E008950E94EA02089590
:1006100081E0089581E008950E940A0308950895F5
:100620000E940F030895A5E0B0E0E9E1F3E00C9427
:100630008A2949835A833091BC0189819A81311179
:1006400014C0662359F0222349F00E94A80A182FEB
:10065000682F89819A810E94840A03C00E94960AA9
:10066000182F69817A81812F04C00E94A80A6981AC
:100670007A810E94CA112596E3E00C94A629FC0118
:10068000262F408151816281738184810E941303EE
:10069000089581E00895CF93DF93EC0160E00E941C
:1006A0003F03BE010E941003DF91CF9108950E9485
:1006B000351308950E942F13089508950E944D093F
:1006C0000E945D032FEF84E39CE021508040904026
:1006D000E1F700C0000008950E945E030E94AE2270
:1006E00008950E945E030E94BF2208950F931F93F6
:1006F000CF93DF938C0161E00E943F03EC01B801CE
:100700000E94871D882309F450C0B801CE010E94C1
:100710000C03882309F449C0B801CE010E94961A3F
:10072000882309F442C0B801CE010E94C01E88236C
:10073000E1F1B801CE010E948F198823B1F1B8010F
:10074000CE010E94261E882381F1F8018281882330
:1007500041F1C3308CE7D807D1F040F4C115FCE774
:10076000DF0791F0C130DC47A1F01BC0CB35ECE7CF
:10077000DE07A9F0CC35FCE7DF0771F0CA35DC47AE
:1007800081F40E943F0F0DC00E946C030EC00E94B6
:10079000470F0E94710309C00E94350F02C00E94DA
:1007A000430FC8010E94080301C080E0DF91CF9190
:1007B0001F910F9108950E94BC210E940504089585
:1007C0000E9409040E94C521089508950E94E5032E
:1007D000089581E008950895CF93DF93D82F0E9464
:1007E000E903C82F882319F08D2F0E94EB038C2F6B
:1007F000DF91CF9108950895CF93C82F0E94E6030B
:100800008C2F0E94EC03CF91089580E00E94FC039E
:1008100008950E94C8200E94FC030895CF930E946F
:10082000C820C82F8091AA01C81779F0C093AA01E7
:100830000E9451226093AB017093AC018093AD0193
:100840009093AE018C2F0E94FC03CF910895442316
:1008500019F08091BE0108959C0143E036952795DB
:100860004A95E1F7FB01E20FF31F9C012770332744
:1008700081E090E001C0880F2A95EAF790819823E3
:1008800081E009F480E008959C0153E036952795B6
:100890005A95E1F7DC01A770BB2781E090E001C029
:1008A000880FAA95EAF7FB01E20FF31F442319F022
:1008B0009081892B03C0809590818923808308953E
:1008C000A0E0B0E0E6E6F4E00C948529FC0191811B
:1008D0009E30A0F5C081C73088F58F01C92ED12C7C
:1008E000D0E07E0187E0989FE00CF11C112442814A
:1008F0006FEA71E0C7010E9427048823C9F087E0EE
:100900008C9DF0018D9DF00D1124CE0FDF1FCC0FBB
:10091000DD1FFE01E75CFE4FE491D8011196EC93D8
:10092000FE01E85CFE4FC491F801C08341E001C0C4
:1009300040E06FEA71E0C7010E944404CDB7DEB722
:10094000E8E00C94A129ABE0B0E0E9EAF4E00C9413
:100950008B294F83588769877A878B8761110E941B
:100960007D0E9F8188852A853B85232B31F08F3F23
:1009700031F481E09F3F19F403C081E001C080E0C1
:1009800080FD04C0CE0107960E9460049E012F5F87
:100990003F4F86E0F90111928A95E9F785E0FE0163
:1009A0003796D90101900D928A95E1F789819A8154
:1009B0004C815D81452B31F09F3F31F491E08F3FB9
:1009C00019F403C091E001C090E090FF09C0498193
:1009D0005A816B817C818D819E810E94810D05C031
:1009E000C9010E9449038111F2CF2B96E2E00C94D9
:1009F000A729FC01808191810E94DA0A92959F705B
:100A0000963051F4863F41F08091BE0191E08927F4
:100A10008093BE019093BD010895662319F00E9452
:100A2000641702C00E94BF170E9436180895CF9322
:100A3000882309F4A9C0C82F8238C1F40E94C820B5
:100A400081FDA2C069E380910001909101010E94A3
:100A500081210E94A10E2FEF87EE93E0215080406C
:100A60009040E1F700C0000069E319C0833801F548
:100A70000E94C82080FD88C063E5809100019091AC
:100A800001010E9481210E94A10E2FEF81EE94E0CE
:100A9000215080409040E1F700C0000063E5809164
:100AA0000001909101010E9484210E94A10E6CC05E
:100AB0008438C1F40E94C82082FD66C067E480913A
:100AC0000001909101010E9481210E94A10E2FEF4F
:100AD00081EE94E0215080409040E1F700C000009A
:100AE00067E4DDCF8CEF8C0F813AF8F48C2F0E94F5
:100AF0009B1C811149C06C2F8091000190910101D4
:100B00000E944B21882349F06C2F80910001909125
:100B100001010E9484210E94A10E6C2F809100018E
:100B2000909101010E948121C0CF80E28C0F88301A
:100B300048F4C77081E001C0880FCA95EAF70E94A7
:100B4000600EB3CFEBE5EC0FE33040F4F0E0E05A99
:100B5000FE4F808190E00E94F52016C0E8E5EC0F82
:100B6000E93150F4F0E0EE0FFF1FE25DFE4F8081AF
:100B700091810E941A2108C083E38C0F833120F4F5
:100B800061E08C2F0E940D05CF910895882309F410
:100B900068C0823879F40E94C82081FF62C069E38E
:100BA00080910001909101010E9481210E94A10E7B
:100BB00069E310C08338B9F40E94C82080FF51C097
:100BC00063E580910001909101010E9481210E94C2
:100BD000A10E63E580910001909101010E948421A2
:100BE0000E94A10E0895843879F40E94C82082FFE3
:100BF00038C067E480910001909101010E94812139
:100C00000E94A10E67E4E6CF9CEF980F913A10F492
:100C1000682FE0CF90E2980F983050F4877091E001
:100C200001C0990F8A95EAF7892F0E94660ED8CFE6
:100C30009BE5980F933028F480E090E00E94F52027
:100C4000089598E5980F993128F480E090E00E948B
:100C50001A21089593E3980F933118F460E00E94ED
:100C60000D0508951F93CF93DF93182FEB010E947A
:100C70001705209741F08FE99FE00197F1F700C039
:100C800000002197F6CF812F0E94C605DF91CF91FA
:100C90001F910895893319F060E070E002C060E5AB
:100CA00070E00E9432060895882321F00E94600EB1
:100CB0000E94A10E0895882321F00E94660E0E94D2
:100CC000A10E0895A0E0B0E0E8E6F6E00C948429D7
:100CD0006C01C62F172FFC01D281F580F2949FE0A2
:100CE000F9220E94560E8823D9F0DD23C9F0812F06
:100CF000807F803441F090E29C0F983088F08036FD
:100D000011F4C63F69F08091B90582FF09C082E005
:100D10000E94030F0E94560E91E0E82EE92601C0C2
:100D2000E12CB12EB2948FE0B8228B2D90E08C3064
:100D3000910508F01FC2FC01EA5AFF4F0C94752977
:100D4000012F0F70812F807F11F00295007FDD232E
:100D500099F0002309F494C180E28C0F883010F0E0
:100D6000C11104C0802F0E94600E03C0802F0E941A
:100D7000700E0E94A10E84C18C2F0E94C605002314
:100D800009F4F8C180E28C0F883040F1CC2331F1B6
:100D9000802F0E94760E25C0012F0F70812F807F3B
:100DA000803211F00295007FCC2319F0C130E1F1BF
:100DB00047C08091B90582FD17C0DD2349F00023AB
:100DC00029F0802F0E94600E0E94A10E80E059C180
:100DD00080E00E94C605002309F4CCC1802F0E9448
:100DE000660E0E94A10EC6C1DD2379F0FF2049F0F6
:100DF000F1E0FF1206C00E94800E802B0E948A0E36
:100E0000B9C10E94800E802B26C0F11003C00E9441
:100E1000970E31C021E0F21609F4ACC1802F0E9478
:100E20005B060E94970EA6C1DD2329F085E08F1591
:100E300008F4A0C10FC094E09F1508F49BC11BC02B
:100E4000DD2361F0FF2031F0F601858180FF18C1BC
:100E50008F708583802F0E9454068CC1FF2059F02B
:100E6000C93309F01EC1FFEF27EE83E0F1502040A7
:100E70008040E1F714C1802F0E945B067BC1812F67
:100E800086958695837019F0813061F073C1DD23FA
:100E900021F08C2F912F937002C080E090E00E948F
:100EA000F52070C1DD2321F08C2F912F937002C0AB
:100EB00080E090E00E941A2165C16D2F8C2F0E9466
:100EC0000D0560C1812F8370B9F5D11157C14C2F29
:100ED000429546954770440F440F8C2F8F7090E0D9
:100EE0009C01042E02C0220F331F0A94E2F7C4FFB4
:100EF0000AC08FE090E002C0880F991F4A95E2F780
:100F00008095909502C080E090E0412F46954695EF
:100F10004370822B932B423049F058F4413019F042
:100F20000E94B7092BC10E94AE0928C10E94C009C6
:100F300025C10E94AB0922C1DD2319F0812F8170E8
:100F400001C08695882309F419C14C2F4295469516
:100F50004770440F440F8C2F8F7090E09C01042E3B
:100F600002C0220F331F0A94E2F7C4FF0AC08FE0C9
:100F700090E002C0880F991F4A95E2F780959095FE
:100F800002C080E090E0412F469546954370822B49
:100F9000932B423049F058F4413019F00E941F0A57
:100FA000EDC00E94160AEAC00E94280AE7C00E940B
:100FB000CC09E4C0012F0F70DD2339F0802F0E948F
:100FC000E4098C2F0E945406D9C08C2F0E945B0626
:100FD000802F0E94F409D2C0C23F31F128F4C03FF3
:100FE00041F0C13FD1F048C0C33F29F1C43F89F06F
:100FF00043C0DD2349F094E09F1508F4BBC0812F66
:101000008F710E94060AB6C0E5E0EF1508F4B2C081
:10101000F6CF8091B90582FD18C0DD2339F0812F0C
:101020008F710E94E409A6C0DD23C9F3812F8F715F
:101030000E94F4099FC0DD2329F0812F8F710E9447
:10104000D80998C00E94D30995C0DD2351F0012F23
:101050000F71802F0E94E40963E0802F0E94E50E4B
:1010600089C081E00E94030FF1E0FF1508F082C003
:1010700082E00E94030F7EC0DD2331F0FF2079F271
:101080008C2F0E94170576C0FF2081F2C93349F4E6
:101090002FEF87EE93E0215080409040E1F700C0B1
:1010A00000008C2F0E94C60565C08C2F90E0FC01CB
:1010B000E05FF109E730F105A0F5EE59FF4F0C9420
:1010C0007529DD2309F467C09091BE0181E089276D
:1010D00005C0D093BE0156C081E08D278093BE012C
:1010E00051C0D1114FC081E08093BE0154C0D111D5
:1010F00049C01092BE014FC0DD2319F00E942E0E90
:1011000041C00E943A0E47C0DD2339F08091BD01F5
:101110008823D1F21092BD0135C0E4E0EF15A0F6AE
:101120003AC08091BD01FF20C1F0882341F0909129
:10113000BE0181E089278093BE011092BD018C2FF2
:10114000DD2319F00E9417051DC00E94C60586E028
:10115000F60111928A95E9F71EC0882399F0D11102
:1011600011C09091BE0181E089278093BE01109249
:10117000BD0111C088EF8B0D843020F40E94C8207F
:101180000E94FC03DD2339F0107F103611F4C63FB6
:1011900011F00E94480EEE2089F00E942A0E80FD78
:1011A0000DC0F60112820E94240E0E94E409C601BD
:1011B0000E94FB080E94240E0E94F409CDB7DEB7FE
:1011C000E9E00C94A0290F931F93CF93DF93EC01D8
:1011D000688179818A810E94E50A8C010E94310A26
:1011E0000E949C09B801CE010E946206DF91CF9156
:1011F0001F910F910895CF93DF93EC01988189811E
:101200002B813C81232B31F08F3F31F481E09F3FD4
:1012100019F403C081E001C080E080FD1AC0CE0156
:101220000E94760381110FC00E94560E882389F018
:101230008A81882371F08091B90582FF0AC082E01B
:101240000E94030F06C0CE010E94E308CE010E9457
:101250004B03DF91CF910895882321F00E94760EF1
:101260000E94A10E089580E090E00E94F52080E0A9
:1012700090E00E941A210E947D0E0E94A10E0E9401
:1012800055180E943618089580910001909101012F
:101290000E9487210E94330908950E946D0E0E94CA
:1012A0004409089592959F70963079F010F4925009
:1012B00001C09A50923068F4803F69F018F4883E7B
:1012C00040F409C0843F29F406C0883E20F0813FE5
:1012D00011F080E0089581E00895FC019081818102
:1012E00023813481232B31F08F3F31F481E09F3F04
:1012F00019F403C081E001C080E080FD07C0808157
:1013000091810E94DA0A0E945209089580E00895AE
:10131000A5E0B0E0EEE8F9E00C948B292596E2E038
:101320000C94A729A6E0B0E0E8E9F9E00C948B2939
:101330002696E2E00C94A729089508950E949D093D
:1013400008950E949E0908950E94A1099093F601B4
:101350008093F50108950E94A40908952091F50154
:101360003091F601822B932B0E94A40908952091BD
:10137000F5013091F601822393230E94A409089578
:101380002091F5013091F601822793270E94A4094C
:1013900008950E949D0908950E94C9099093F4013F
:1013A0008093F301089580E090E00E94CC090895B5
:1013B00021E030E0A90102C0440F551F8A95E2F7F1
:1013C000CA010E94CC09089521E030E002C0220F3A
:1013D000331F8A95E2F78091F3019091F401822BFB
:1013E000932B0E94CC09089521E030E002C0220F27
:1013F000331F8A95E2F7209530958091F301909103
:10140000F401822393230E94CC09089521E030E067
:1014100002C0220F331F8A95E2F78091F301909169
:10142000F401822793270E94CC0908952091F301AB
:101430003091F401822B932B0E94CC0908952091C6
:10144000F3013091F401822393230E94CC09089583
:101450002091F3013091F401822793270E94CC0957
:1014600008950895962F9770A1E001C0AA0F9A954C
:10147000EAF793E0769567959A95E1F7660F771FFF
:10148000660F771FFA01E60FF71F40E050E0682F64
:1014900070E090819B01042E02C0369527950A9436
:1014A000E2F72170219529272A23292721934F5FCD
:1014B0005F4F4430510569F70895FB01782F77702D
:1014C00023E0969587952A95E1F7880F991F880F55
:1014D000991FE80FF91F40E050E080E0219130E0D3
:1014E000072E02C0369527950A94E2F7217033271C
:1014F000042E01C0220F0A94EAF7822B4F5F5F4F40
:101500004430510559F70895282F9E3070F48730E4
:1015100060F4862F622F70E027E0929F600D711DAE
:1015200011244FEB51E00E94320A08959E3070F46E
:10153000873060F4292F90E06FEB71E037E0239F54
:10154000800D911D11240E945D0A089580E0089588
:10155000A0E0B0E0EEEAFAE00C9484297C0100916E
:10156000F3011091F4018091F5019091F601082B9F
:10157000192BCFE0D0E0CC24C394D12CC6010C2E83
:1015800002C0880F991F0A94E2F780239123892BC8
:1015900021F4219798F7B12C07C0BC2EB7018C2FEE
:1015A0000E94D6110197A9F38B2DCDB7DEB7E9E0E4
:1015B0000C94A029CF93DF93EC010E94A80ABE01EE
:1015C0000E94D611DF91CF9108951F93CF93DF939F
:1015D000EB019091BC01992321F0CB010E94DA0A22
:1015E00013C0882349F0CB010E94A80A182F682F46
:1015F000CE010E94840A04C0CB010E94960A182FD3
:10160000BE01812F0E94D611DF91CF911F910895C5
:101610001F93CF93DF93C091F70116E08091F801FB
:10162000C81799F0D0E01C9FF0011D9FF00D112408
:10163000E750FE4F408151816281738184819581A1
:101640000E9492092196C770E9CFDF91CF911F9137
:1016500008954091290250912A0260912B027091C5
:101660002C0280912D0290912E020E9492090895E1
:101670002091F7019091F80156E02917A9F030E088
:10168000529FF001539FF00D1124E750FE4F7181DE
:10169000761306C07081781303C07281741306C07C
:1016A0002F5F3F4F2770E9CF80E0089581E00895D4
:1016B0000F931F93CF93DF9380912E0282958F70AB
:1016C00009F05AC080912B02882309F455C08091FB
:1016D000F7011091F8016091290270912A02C091DE
:1016E0002C02D0912D0291E06F3F09F090E0292F5C
:1016F00006E0811709F440C0209721F07F3F21F0D8
:1017000030E003C031E001C0322F90E030FD31C045
:10171000089FF001099FF00D1124DF01A750BE4F73
:1017200011963C911197371324C03C91361321C078
:1017300012963C91129731111CC013964D915C91F9
:1017400014974C1B5D0B483C510598F480912E0278
:101750008F70806180932E02E250FE4F80818F70E7
:101760008061808389E292E00E94FB080E94080B5E
:1017700003C001968770BDCFDF91CF911F910F916C
:101780000895A1E1B0E0E7ECFBE00C9481298C0125
:1017900085E0F801DE011D9601900D928A95E1F732
:1017A000D8011296EC909091290220912A02409142
:1017B0002C0250912D024115510531F02F3F31F48B
:1017C00081E09F3F19F403C081E001C080E080FD0B
:1017D00079C1F801C080D1808380948089E2A82EED
:1017E00082E0B82EF0902B02B401641B750BFF2031
:1017F00009F412C180912E02382F307F683C7105A8
:1018000008F0CCC031118BC0D21214C0C91212C062
:10181000FE2CE1100FC08F70806180932E020E9419
:10182000290BC5010E94FB0880912E02D801159654
:101830008C9362C18114910439F0BFEFDB1206C0B2
:1018400081E0CB1203C003C081E001C080E080FDD5
:1018500003C081E08E2502C080E090E080FF10C0D0
:101860004E2D6D2D8C2D0E94380B882349F089E276
:1018700092E00E94FB08E9E2F2E086E0DF019EC010
:101880008114910439F0BFEFDB1206C081E0CB1266
:1018900003C003C081E001C080E080FD03C081E09F
:1018A0008E2502C080E090E0E82FE170BE2E80FF20
:1018B0002CC04E2D6D2D8C2D0E94380BF82E8111D1
:1018C00024C0CD86DE868D859E850E94DA0A292F6A
:1018D00022952F70223018F0243090F405C09F70AC
:1018E00059F0811109C008C19F7031F0D8011596D7
:1018F0009C91907F09F400C1805E883008F4FCC0A0
:10190000C8010E94FB08FB2CF7C0FE2CEE2009F456
:10191000F3C080912E02816080932E0254C0D212B7
:1019200006C0C91204C0E11002C0F80199C0C80184
:101930000E946D09882361F1EE2051F120912E0261
:10194000822F82958F7090E0029774F08091290227
:1019500090912A0298878F8319869B868A862C8786
:10196000CE0107960E94FB0886E0F801A9E2B2E0EA
:1019700001900D928A95E1F70E94580B0E94290B65
:101980000AC0D21611F1C8010E946D0981112CC044
:10199000C8010E94FB08FF24F394AEC03111F1CFBF
:1019A000782D998A888AA6016E2D89890E948809D6
:1019B00089E292E00E94FB0886E0D5011D928A959B
:1019C000E9F70E94290BF12C97C0C912DCCFE11076
:1019D000DACFF8018583C8010E94FB0886E0D501B3
:1019E0001D928A95E9F788C0EE2091F220912E028F
:1019F000822F82958F7090E002970CF4B5CF809182
:101A0000290290912A029A8389831B829D828C826B
:101A10002E83CE010196A6CF683C710508F044C024
:101A2000FE2CEE2009F4B4CFD21230C0C9122EC061
:101A300020912E0220FD21C0822F82958F70482F89
:101A400050E041155105C9F0F80125834F3051058B
:101A500041F08F5F982F9295907F822F8F70892B06
:101A60008583C8010E94FB0886E0F801A9E2B2E084
:101A700001900D928A95E1F73DC086E0F801A9E258
:101A8000B2E001900D928A95E1F736C0C8010E943C
:101A90006D09811169CF80912E02816080932E02A1
:101AA000C8010E94FB0828C0782D998A888AA6015F
:101AB0006E2D89890E94880986E0D5011D928A953C
:101AC000E9F718C0EE2009F463CFC8010E946D0940
:101AD000F82E882309F45CCF86E0F801A9E2B2E091
:101AE00001900D928A95E1F789E292E00E94F90453
:101AF0000E94580B0E94290B8F2D6196ECE00C94EC
:101B00009D29ACE0B0E0E7E8FDE00C948A294F8322
:101B1000588769877A878B879C87CE0107960E94B2
:101B2000C10B8823D1F09F8188852A853B85232B93
:101B300031F08F3F31F481E09F3F19F403C081E021
:101B400001C080E080FD47C04F81588569857A8556
:101B50008B859C850E9492093EC086E0FE013796E7
:101B6000DE01119601900D928A95E1F7FF81E885DB
:101B70006A857B856115710531F0EF3F31F481E0B5
:101B8000FF3F19F403C081E001C080E080FD23C065
:101B90002091F80130E0C9010196877099274091A2
:101BA000F70150E084179507F1F1F983EA837D830B
:101BB0006C8396E0929FD001939FB00D1124A750A3
:101BC000BE4FFE01319601900D929A95E1F78093F8
:101BD000F8010E94080B16E08091F7019091F8013E
:101BE000891771F1189FC001112487509E4F0E94E0
:101BF000C10B882329F1E091F7011E9FF001112408
:101C0000E750FE4F408151816281738184819581CB
:101C10000E9492098091F70190E0019687709927C0
:101C20008093F701D9CF0E944D091092F8011092CC
:101C3000F701E9E2F2E086E0DF011D928A95E9F71B
:101C40002C96E3E00C94A629809138028595859521
:101C500085950895809138028770089582E0809379
:101C6000370281E08093BE010895109237021092EE
:101C7000BE01089580913702823019F481E080938B
:101C8000370280913702833011F40E94350E089597
:101C900080913702823019F483E08093370280917B
:101CA0003702813011F40E94350E08959091380268
:101CB000977081E009F480E00895809143020895CF
:101CC00090914302892B80934302089580959091CF
:101CD000430289238093430208951092430208959A
:101CE00090914202892B80934202089580959091B1
:101CF000420289238093420208951092420208957D
:101D000080913902089508950E94830E08950E94DB
:101D1000840E08959091B90592FF08C09091390200
:101D2000981721F0809339020E94870E08958091C0
:101D30003902882329F01092390280E00E94870E30
:101D40000895CF93DF93E0910001F091010180911C
:101D500043028083E0910001F09101019081809124
:101D60004202892B808380913902882381F0E0919F
:101D70000001F09101019081892B80838091000105
:101D8000909101010E943F2181110E94970EC09104
:101D90000001D091010148E050E06FE272E0CE0115
:101DA0000E94C629892B59F088E0FE01AFE2B2E01B
:101DB00001900D928A95E1F7CE010E94DC20DF911F
:101DC000CF9108950E94830E08959091B90592FFD6
:101DD00011C098E0899F90011124262B209338028E
:101DE0000E94E409809138028595859585950E9429
:101DF000E20E08950E94E40908951092380280E0EE
:101E00000E94E20E089520913802809582238093EB
:101E10003802982F977099F430E0482F082E000C64
:101E2000550B2417350759F09091B90592FF07C05B
:101E30008595859585950E94F4090E94FD0E08956B
:101E40009091B90592FB222720F9281769F080FBB1
:101E500092F99093B9058091B8059091B9050E94C7
:101E6000680F82E00E94030F08958091B90582FBFC
:101E7000882780F991E089270E94200F089581E04A
:101E80000E94200F089580E00E94200F08956FEFB8
:101E90007FEF80E090E00E94082A089580E090E0C3
:101EA0000E94E42921E0873E9E4F09F020E0822F26
:101EB000089582E090E00E94DC29089583E090E09C
:101EC0000E94DC29089584E090E00E94E4290895AE
:101ED000BC0184E090E00E94082A0895AB01BC0197
:101EE0008FE090E00E94FC290895AB01BC0183E1E2
:101EF00090E00E94FC29089560E070E0CB010E9410
:101F0000750F089560E070E0CB010E946E0F0E9493
:101F10007C0F089567EE7EEF80E090E00E94082A33
:101F200060E082E090E00E94EA2960E083E090E0D7
:101F30000E94EA291092F6011092F50160E074E126
:101F400084E090E00E94082A60E086E090E00E9431
:101F5000EA296FEF87E090E00E94EA2940E050E034
:101F6000BA0188E090E00E94FC2960E08DE090E0FA
:101F70000E94EA2940E050E0BA0188E190E00E9426
:101F8000FC2960E087E190E00E94EA2940E050E00F
:101F9000BA018CE190E00E94FC2960E070E080E2F0
:101FA00090E00E94082A40E050E0BA0188E190E009
:101FB0000E94FC290E94820F08950E948A0F0895B2
:101FC000682F8EE090E00E94EA2908950E94512235
:101FD000609358027093590280935A0290935B0267
:101FE0006093540270935502809356029093570267
:101FF00008950E94C814089508950E94FC0F089542
:102000000E94FC0F08950E94001008950E94FC0F8A
:1020100008950E94061008950E94FC0F08958AEF0B
:1020200092E10E94BE200E940C100E9409100895A7
:102030000E94FD0F0E94FC0F08950E94FD120E9455
:10204000FB0308950E943C220E94BA120E94F114E0
:102050000E942B140E941D100E9477190E94FB14ED
:102060000E94031008950E94C81481110E945C1BF5
:102070000895AAE0B0E0EFE3F0E10C9483290E9418
:10208000501486E4E82E82E0F82E670100E0F601A5
:1020900011916F01802F0E941B1381270F5F0E305B
:1020A00019F08823A1F322C0811120C00E9445228B
:1020B0008C0180914402909145020817190709F498
:1020C00050C08FEF89838A831B820E9445228160E2
:1020D000782F9D838C8349815A816B818D810E94E9
:1020E000A30410934502009344023BC080915C021C
:1020F00081FD0E9421130E94F90FA82E10E0812F6C
:102100000E941B13B82EF701C080C82611F100E011
:10211000DD24D3948C2D8D21B1F0AA20A1F00E8363
:102120001F8391E08B2D8D2109F490E098870E9408
:1021300045228160782F9A8789874E815F816885E3
:102140008A850E94A3040F5FDD0C073019F7F701A1
:10215000B0821F5FFFEFEF1AFF0A1E3081F60E9468
:10216000E60F0E9433100E9477180E940E042A96F0
:10217000EAE00C949F29CF93DF930E94DB11EC01DE
:10218000811522E5920708F044C0811530E59307D8
:1021900008F0DDC0803E910528F58D3C910508F0E2
:1021A0008EC0883A910570F4853A910508F07DC09B
:1021B0008130910509F476C008F4E5C0049708F071
:1021C000E5C0E1C0813C910508F0DDC0C85AD0E00F
:1021D000CC0FDD1FCD59DE4F0990D881C02DCE0127
:1021E0009464D5C0811560E2960750F4811571E0C2
:1021F000970708F0CBC0883E910508F4C7C0C3C05C
:10220000C11580E4D80708F4B3C0DF70CE01906A2E
:10221000BEC0C03892E5D90720F5C03622E5D20706
:1022200008F06DC0C03432E5D30708F053C0C032A7
:1022300062E5D60708F045C02C2F2695269560E26A
:10224000269F90011124C37081E090E002C0880FA6
:10225000991FCA95E2F7E901C82BD92BCE019D68D9
:1022600096C0C03C72E5D70768F48C2F8F71C03AD6
:10227000D24508F05BC090E0D82FCC27CE01846F08
:10228000906A85C0C03E22E5D20708F458C0CE014E
:1022900096558F3F910511F008F075C0DD27CE01EE
:1022A000906675C081E090E072C0C55AD0E0CB5610
:1022B000DE4F8881C82FD0E0CE01906468C0906561
:1022C00066C0CF718C2F90E0D82FCC27CE01816FC4
:1022D000906A5DC08C2F8F718695869570E2879F7E
:1022E000A00111249C2F937021E030E0B90102C0BD
:1022F000660F771F9A95E2F7CB019C6814C08C2F6C
:102300008F718695869570E2879FA00111249C2F7E
:10231000937021E030E0B90102C0660F771F9A95F3
:10232000E2F7CB019A68842B952B31C00E9477127B
:102330008F7190E0D82FCC27CE01906228C0CF714A
:10234000DD27DC2FCC27CE01806F906A20C08F71F3
:102350000E94771295E0D695C7959A95E1F7CF70D0
:10236000D0E0DC2FCC27D0699E01282BC9010FC0FB
:102370008D2F8F710E947712DD27D0628F71BE0181
:10238000782BCB0104C080E090E001C0CE01DF914A
:10239000CF9108957E3038F4673028F4462F672FA8
:1023A0000E940503089580E090E008950E94CA11FC
:1023B0000E94BB1008958238910569F1B0F4813311
:1023C000910509F475C048F48932910509F467C094
:1023D0008A32910509F471C008958533910509F495
:1023E00059C089339105B9F00895833E910589F16B
:1023F00038F4803E9105D1F0823E910529F108958F
:10240000863E9105C9F1873E9105D9F1843E91053B
:1024100009F06CC027C02091B80520FD57C021FDF0
:1024200055C02091B90523FD5BC008958091B80582
:1024300080FD48C08091B90580FF48C08091B805F3
:1024400084FD46C083EE51C08091B80582FF3CC038
:10245000F5CF8091B80582FD37C08091B90580FD28
:1024600035C0ECCF8091B90581FF36C08091B805A9
:1024700084FD2EC087EE39C08091B80583FF2AC045
:10248000F5CF8091B80583FD25C08091B90581FD08
:1024900023C0ECCF8091B80585FD22C01FC080917C
:1024A000B80585FD1BC08091B90583FF19C00AC01E
:1024B0008091B80586FD16C017C08091B80586FDCD
:1024C00013C010C089E311C082EE0FC080EE0DC0B2
:1024D00080E00BC086EE09C084EE07C085E305C02E
:1024E00089E203C08AE201C081E390E008959091FF
:1024F000B80592FF0DC0282F2871283019F4877F66
:10250000846006C0282F2471243011F48B7F8860EA
:1025100093FF0DC0282F2871283119F4877E84611C
:1025200006C0282F2471243111F48B7E88612091FC
:10253000B90520FF0DC0382F3871383019F4877F66
:10254000816006C0382F3171313011F48E7F886080
:1025500021FF0DC0282F2871283119F4877E816151
:1025600006C0282F2171213111F48E7E886194FDDF
:10257000877E08951092B4051092B5051092B605A5
:102580001092B7050895CF92DF92EF92FF926B0100
:102590007C010E94C81481110EC00E945122C61AEB
:1025A000D70AE80AF90AC092B405D092B505E092BC
:1025B000B605F092B705FF90EF90DF90CF900895A9
:1025C0000F931F930E94C814882319F00E94512270
:1025D0000EC00E9451220091B4051091B5052091C2
:1025E000B6053091B705600F711F821F931F1F91B1
:1025F0000F91089580E0089508950E944E0F811173
:1026000002C00E94DD0F0E94590F80935C020E945D
:10261000630F9093B9058093B8050E94FC120E9445
:102620005E0F90E00E94AB098091F3019091F4015C
:102630000E94C9090895E82FF0E0E753FA4F80811E
:102640000895089580EA8A95F1F7089500C00895E5
:102650000E942213089508950E942B1308950E944A
:102660002C1308950E942B1308950E94321308958D
:102670000E942B130895A7E0B0E0E1E4F3E10C948D
:1026800088290E94C8146091D7058823E9F187E062
:10269000F82E8E010F5F1F4FF8018F2D11928A9532
:1026A000E9F7862F90E0B80187539A4F0E940915E9
:1026B000882389F08091BA0590E047E050E0B801A6
:1026C00087539A4F0E94C62921E020935D02892BEF
:1026D00061F410E016C080915D028823D1F3F80107
:1026E0001192FA94E9F710925D02A091BA05B0E058
:1026F000A753BA4F87E0F80101900D928A95E1F750
:1027000011E00E945A030DC070E067537A4F809128
:10271000BA0590E087539A4F0E9492150E94381391
:1027200010E0812F2796E5E00C94A429F894E82F77
:10273000E295EF70F0E031A1282F2F7081E090E05A
:1027400001C0880F2A95EAF7982F9095932391A3BB
:1027500092A1892B82A3789408950F931F93CF930E
:10276000DF93CFE9D1E089918F3F11F00E9496135A
:1027700081E0C63AD807B9F7C8E9D1E00FE911E01E
:1027800089918F3F11F00E9496130C171D07C1F716
:10279000DF91CF911F910F910895A0E0B0E0E3ED9C
:1027A000F3E10C9485298C01C62FD0E0CE0181562F
:1027B0009E4F7C01FC0190819F3F09F447C0D62EBB
:1027C000F894E92FE295EF70F0E081A19F7021E08D
:1027D00030E001C0220F9A95EAF7822B81A382A1F3
:1027E0002095282322A378940E942613E8E9F1E09B
:1027F0004FE951E031E0C12C21912F3F89F0A22F08
:10280000A295AF70B0E090968C9190E02F7002C0CE
:10281000959587952A95E2F780FD02C0832F01C028
:1028200080E0C82A330F4E175F0731F7F701808128
:102830008F3F11F00E94961361E0C11001C060E06B
:102840008D2D0E942813C00FD11FC882CDB7DEB7CF
:10285000E8E00C94A129809102018091020181118C
:1028600002C097E001C090E09093D70587E0891BF4
:102870008093BA050E94AD138EE0E9ECF5E0DF012C
:10288000982F1D929A95E9F7EBEBF5E0DF011D9289
:102890008A95E9F787E00E948E140E9457030895F5
:1028A000AEE0B0E0E6E5F4E10C9488298E010F5F1C
:1028B0001F4F8EE0F80111928A95E9F7F12C6F2DE8
:1028C000C8010E94CD13F394F7E0FF12F8CF4EE059
:1028D00050E0B8018BEB95E00E94C62921E00097FB
:1028E00009F420E0892B41F08EE0F801ABEBB5E074
:1028F00001900D928A95E1F76091D70570E06753DA
:102900007A4F47E08BEB95E00E948F14182F0E94BE
:102910003B13812B2E96E5E00C94A4290895EF92A9
:10292000FF920F931F93CF93DF937C018B01C42FF2
:10293000222349F081E0809360020E944522909317
:102940005F0280935E0280916002811102C080E08C
:102950001AC080915E0290915F020E945D220597ED
:10296000B0F3D0E0AE01B701C8010E94C629892B9F
:1029700039F0AE01B701C8010E94D32981E001C03E
:1029800080E010926002CDB7DEB7E6E00C94A32998
:10299000CF93DF9380916302811117C0C8ECD0E020
:1029A0000E945B2981110AC08FE39CE90197F1F72E
:1029B00000C000002197A1F782E001C081E0809370
:1029C0006302823011F40E94562981E090916302E3
:1029D000913009F080E0DF91CF9108950E94C814F2
:1029E00008950E94EE14809302010E94C814811180
:1029F0000E94411508950E94C814811102C00E94CE
:102A00004415089581E0909164029A3008F080E0C6
:102A100008950F931F93CF93DF93EC018B01809167
:102A200064028A3038F4B801CE010E948F158111FA
:102A30001DC00AC080916102909162020E945D22D5
:102A4000843F914080F715C0809164028F3F19F058
:102A50008F5F80936402809164028A3060F00E94EC
:102A60004522909362028093610203C01092640237
:102A700002C080E001C081E0DF91CF911F910F91F2
:102A800008950E94581F08950E945B1F0895A0E0BA
:102A9000B0E0EDE4F5E10C9486297901C82F880FA8
:102AA000DD0B41155105A9F0FE0193E0EE0FFF1F6C
:102AB0009A95E1F7ED5FFE4F818192818B599D4F91
:102AC000208130E04217530708F49A01A9010E94BF
:102AD000D329CE010E944320D82E8823D1F001159E
:102AE0001105B9F083E0CC0FDD1F8A95E1F7FE01F7
:102AF000ED5FFE4F438150E00417150708F4A8016D
:102B0000CD5FDE4F6C817D816B597D4FC7010E9487
:102B1000D3298D2DCDB7DEB7E7E00C94A2290E9412
:102B2000841608950E949B160895A4E0B0E0EBE996
:102B3000F5E10C9489296091800270918102809165
:102B40008202909183020E946C2264367105810595
:102B5000910528F10E94E012DC01CB010296A11D33
:102B6000B11D89839A83AB83BC8300E010E020E031
:102B700030E044E050E0BE016F5F7F4F82E00E9492
:102B80004715182F882361F00E945122609380021C
:102B900070938102809382029093830201C011E0BE
:102BA000812F2496E4E00C94A529A0E0B0E0EBEDA1
:102BB000F5E10C9483297C015B016A010E940215F6
:102BC000811103C001E010E002C00AE010E0C1E0A2
:102BD000D0E0B501C701F6010995811115C0219614
:102BE0000C171D0794F0CC9F9001CD9F300D300D38
:102BF000112480E090E045E34A95F1F7000001964A
:102C000082179307C1F7E5CF81E0CDB7DEB7EAE0E1
:102C10000C949F29A8E0B0E0E0E1F6E10C94832950
:102C20007B01C090A601D090A70101E010E09E01B9
:102C3000285F3F4F40E050E060E070E080E00E949D
:102C40004715182F882309F43EC056018FEFA81AA4
:102C5000B80A60917C0270917D0280917E02909111
:102C60007F020E946C22643671058105910518F17E
:102C700007E010E09E012F5F3F4F40E050E060E032
:102C800070E081E00E944715182F67E070E0C501F1
:102C90000E94781991E02885281390E0192339F1D2
:102CA0000E94512260937C0270937D0280937E0289
:102CB00090937F0211C067E070E0C5010E9478190F
:102CC00098858913D5CF87E0F6013196DE011196FC
:102CD00001900D928A95E1F7112349F087E0FE01FA
:102CE0003196A5E7B2E001900D928A95E1F787E071
:102CF000E5E7F2E0D70101900D928A95E1F7812F87
:102D00002896EAE00C949F290F931F93CF93DF93AB
:102D1000EC018B014AE056E10E94D515882331F081
:102D200045E955E1B801CE010E94D515DF91CF915B
:102D30001F910F9108950F931F93CF93DF93C0912D
:102D4000A601D091A701CE01019627E0FB01DC018D
:102D500001900D922A95E1F767E070E00E947819E2
:102D60008883688579858A859B8500917102109199
:102D7000720220917302309174026017710782070A
:102D8000930751F060937102709372028093730203
:102D9000909374020E94C312DF91CF911F910F9103
:102DA00008950E9429240E9422100E94362408952A
:102DB0000E943B240E9439100E94552408950E94CD
:102DC000DC210E940F240E940F100E94D1160E9445
:102DD000D8160E941810FBCF80918C0280FF06C08D
:102DE00060911F0170E0660F771F26C081FF04C04D
:102DF00060911F0184E005C082FF07C060911F0140
:102E000088E0689FB001112417C090918B0299232C
:102E1000D1F060911E01961788F720911F0188E07C
:102E2000289F90011124929FA001939F500D11247F
:102E300070E0CA010E9461296038710540F4611593
:102E4000710519F406C068E070E0862F08958FE7D9
:102E5000089581E0089580918C0280FF08C0609100
:102E60001C0170E0759567957595679521C081FF88
:102E700006C060911C0170E07595679519C082FFCE
:102E800004C060911C0170E010C090918A029923E7
:102E900099F060911B019617A0F780911C01899F02
:102EA000C001112470E00E9461296038710540F46E
:102EB0006115710519F406C061E070E0862F089570
:102EC0008FE7089581E008958D3C21F40E94EC166F
:102ED000819504C08E3C29F40E94EC1680939002E8
:102EE00008958F3C21F40E94EC16819504C0803D2A
:102EF00029F40E94EC1680938F020895893D19F4FD
:102F00000E942B1705C08A3D31F40E942B17819532
:102F10008093910208958B3D21F40E942B17819597
:102F200004C08C3D29F40E942B17809392020895CF
:102F30009FE2980F983078F421E030E0A90102C0B8
:102F4000440F551F9A95E2F7CA0190918E02892B82
:102F500080938E0208958D3D21F480918C028160D2
:102F60000BC08E3D21F480918C02826005C08F3DA4
:102F700029F480918C02846080938C0208958D3CAA
:102F800039F49091900297FF35C01092900259C089
:102F90008E3C29F4909190021916BCF32BC09091AD
:102FA0008F028F3C29F497FF25C010928F0249C0F1
:102FB000803D19F41916CCF31DC090919102893D02
:102FC00029F41916BCF4109291023BC08A3D19F401
:102FD00097FF10C0F8CF8B3D39F49091920297FF84
:102FE00009C0109292022DC08C3D21F49091920262
:102FF0001916BCF39FE2980F983080F421E030E07E
:10300000A90102C0440F551F9A95E2F7CA018095A5
:1030100090918E02892380938E0213C08D3D21F4FE
:1030200080918C028E7F0BC08E3D21F480918C02AA
:103030008D7F05C08F3D29F480918C028B7F80931A
:103040008C0280918F02811106C0809190028111C3
:1030500002C010928B0280919102811106C0809172
:103060009202811102C010928A0208950E944522A4
:1030700020918F02211104C020919002222321F07F
:10308000909389028093880220919102211104C0BB
:1030900020919202222321F090938702809386024E
:1030A0008DE892E00E94E7200895EDE8F2E086E0E6
:1030B000DF011D928A95E9F710928B0210928A0225
:1030C00010928C020895FC01828181110DC08381D0
:1030D00081110AC08481811107C091E0858181112D
:1030E00001C090E0892F01C081E081700895A6E0C1
:1030F000B0E0EDE7F8E10C948A2986E0EDE8F2E033
:10310000DE01119601900D928A95E1F710928F02DF
:103110001092900210929102109292028B81811172
:1031200004C08C81882309F45FC08091880290914B
:1031300089020E945D22AC0190918B02992339F0A3
:103140002091200130E02417350758F04DC0209120
:1031500085028AE0289F900111242417350718F072
:1031600043C09F3F19F09F5F90938B021B811123F7
:1031700061F00E94EC16111614F09FEF01C091E06F
:10318000989F902D112490938F021C81112361F040
:103190000E94EC16111614F09FEF01C091E0989F69
:1031A000902D11249093900230918F023323E1F0FF
:1031B000209190022223C1F045EB3403C001112479
:1031C000992319F090938F0203C081E080938F02BE
:1031D00035EB2303C0011124992319F09093900239
:1031E00003C081E0809390028D81811104C08E81A3
:1031F000882309F45FC080918602909187020E9423
:103200005D22AC0190918A02992339F020911D0131
:1032100030E02417350758F04DC0209184028AE031
:10322000289F900111242417350718F043C09F3FB1
:1032300019F09F5F90938A021D81112361F00E9413
:103240002B17111614F09FEF01C091E0989F902D5D
:103250001124909391021E81112361F00E942B177B
:10326000111614F09FEF01C091E0989F902D11244A
:1032700090939202309191023323E1F020919202D7
:103280002223C1F045EB3403C0011124992319F026
:103290009093910203C081E08093910235EB230368
:1032A000C0011124992319F09093920203C081E088
:1032B00080939202BE016F5F7F4F8DE892E00E9483
:1032C0008E21811105C08DE892E00E946318811162
:1032D0000E94361886E0FE013196ADE8B2E001901A
:1032E0000D928A95E1F72696E3E00C94A6290895BD
:1032F000FC01680F791F8FEF91E3E617F70771F074
:103300002191822728E030E087FF03C0880F8927BA
:1033100001C0880F21503109B9F7EFCF0895CF933D
:10332000DF93FC01DB0112968C91882309F4DDC048
:103330009F0130572332310508F0D8C0EF010E94B9
:10334000630F9093B9058093B805FE01E150F047F3
:10335000E232F10520F4E759FF4F0C947529809172
:10336000B8058160AAC08091B9058860B2C080911B
:10337000B8058260A2C08091B80520C08091B805D0
:1033800088609BC08091B9051EC08091B90582609C
:10339000A0C08091B805806190C08091B80580621E
:1033A0008CC08091B805806488C00E944D098091CE
:1033B000B805806882C08091B805886084607DC04F
:1033C0008091B9058260816084C08091B8058E7F4C
:1033D00074C08091B905877F7CC08091B8058D7FCE
:1033E0006CC08091B80520C08091B805877F65C00A
:1033F0008091B9051EC08091B9058D7F6AC080910A
:10340000B8058F7E5AC08091B8058F7D56C08091D7
:10341000B8058F7B52C00E944D098091B8058F7707
:103420004CC08091B805877F8B7F47C08091B905DC
:103430008D7F8E7F4EC08091B80582FB222720F9B8
:1034400091E0922790FB82F990FB83F936C080913E
:10345000B905982F909591708E7F892B90FB81F9FB
:1034600038C08091B80586FB222720F991E0922789
:1034700090FB86F922C00E944D098091B80587FB18
:10348000222720F991E0922790FB87F916C081E06E
:1034900001C080E00E94E00F1EC08091B80584FB4F
:1034A000222720F991E0922790FB84F906C08091B1
:1034B000B805982F909590FB80F98093B8050BC0C4
:1034C0008091B90583FB222720F991E0922790FB98
:1034D00083F98093B9058091B8059091B9050E9450
:1034E000680F0E944D0980E001C081E0DF91CF911B
:1034F00008958832910530F48E319105A8F404972F
:1035000070F00FC08D32910561F018F48A9761F068
:1035100006C08C34910541F08D32924029F080E054
:10352000089582E00E94700E81E00895A0E0B0E06E
:10353000ECE9FAE10C948629EC017B01C3378CE7B6
:10354000D80749F4FB011281112309F485C00E94B8
:103550006E1B10E081C00E945D0ED82E0E94800E6E
:10356000082F0E943B1B811102C011E075C00E9410
:10357000321BF70112811123C1F30D290D7909F0D6
:1035800069C0C034F2E5DF07B8F4C11582E5D80799
:1035900008F062C0C115E0E4DE0748F4C115F0E2AE
:1035A000DF0740F5C63ED10509F048C055C0C1153A
:1035B00080E5D807E8F142C0C03EE2E5DE0798F4B6
:1035C000C03CF2E5DF0708F047C0C03682E5D80707
:1035D000A8F1C03AE2E5DE0708F43EC0C43BF2E5DC
:1035E000DF07D1F12BC0CE0196558F3F9105D1F069
:1035F000C8F024C0F7018581807FF9F48D2F8F7189
:10360000823169F028F4823029F5C1EED0E016C08D
:10361000843111F18631F1F4C6EED2E10FC0C5EE6E
:10362000D0E00CC0CE01805F9645079708F49DCF8F
:10363000F7018581807F09F498CFDD270E947D0EF8
:10364000CE010E94791AC82F882321F00E94A10E72
:103650001C2F02C00E944F1B812FCDB7DEB7E7E0C1
:103660000C94A2290E94452288579C4E9093940264
:103670008093930208958091950208950895809112
:10368000950281110BC00E946D0E0E94970E0E9440
:10369000321B81E0809395020E943E1B0895809129
:1036A0009502882341F082E20E942C091092950233
:1036B00080E00E943E1B089580919502882369F066
:1036C0000E9445222091930230919402821B930B19
:1036D0008F3F9F4710F40E944F1B089580919502E1
:1036E000882319F00E944F1B08950E943F1B0895E4
:1036F000893279F1E0F4843161F1A0F4873009F086
:1037000075C01092850294E19093200180931F016F
:103710008CE380931E0188E080931C0188E28093F3
:103720001B0164C092EE980F9A30F0F05FC08035B4
:1037300009F444C028F48F3409F058C08AE03FC02F
:10374000813529F0823509F051C081E038C08FEF12
:1037500036C080919802882379F1109298021092D5
:1037600097021092960242C08D5180939802833046
:1037700099F038F4813069F08230D9F480E291E038
:103780000DC0853099F078F0863099F48BE191E0A6
:1037900005C085E892E002C08FE191E09093970226
:1037A0008093960223C08EE191E0F8CF8CE191E006
:1037B000F5CF109298021AC080E0089586EFE0914C
:1037C0009602F0919702309789F02081082E000C24
:1037D000990B820F911D8F3F910519F014F08FEF17
:1037E00004C097FF02C0108201C0808381E0089569
:1037F0008B3109F469C058F58B3009F490C078F426
:10380000863009F446C020F4853009F44CC08CC0E1
:10381000873009F44BC0883009F481C085C08031FD
:1038200009F465C068F48E3009F07EC080915C02B6
:1038300082FB222720F991E0922790FB82F94DC06C
:10384000863109F46CC0893109F469C06DC08A32CF
:10385000E9F060F4873209F464C028F48E3108F48A
:1038600063C08D514FC08932F1F05EC0833450F493
:103870008A3308F046C0853309F453C0883309F40D
:103880004EC052C0833409F44CC04EC00E94DD0FBC
:1038900046C080915C02817F8E7F80935C0281E0D4
:1038A0008093990208950E946C0339C080915C0254
:1038B000982F9095917090FB80F980935C02911104
:1038C0002EC0897F877F10C080915C0281FB2227F8
:1038D00020F991E0922790FB81F980935C02992373
:1038E000F1F080915C02816080935C0218C080914D
:1038F0005C0283FB222720F991E0922790FB83F959
:10390000ECCF895321E030E0A90102C0440F551FDC
:103910008A95E2F7CA010E94AB090E944D0981E035
:10392000089581E090E0F7CF80E0089580E0089569
:103930000E94961C0895CF93C82F809199028130E0
:1039400069F038F08230C1F58C2F0E94781B81E03D
:1039500039C00E945D0E823289F504C00E945D0E5E
:10396000823261F48C2F0E94981C811104C08C2F2C
:103970000E94F81B1FC081E090E01CC08C2F0E94A9
:10398000961C811116C0C43189F058F4CB3089F0EF
:10399000C031B1F482E08093990288E30E94781BE1
:1039A00008C0C93219F0C83321F00AC01092990238
:1039B00007C081E0817006C01092990280E002C0C9
:1039C00080E0F8CFCF9108950895089508950E945A
:1039D000E61C089581E008950F931F93CF93DF9322
:1039E000EC018B010E94E41C0E944D090E94D30946
:1039F00019830883DF91CF911F910F910895AF92A2
:103A0000BF92CF92DF92EF92FF921F93CF93DF93FB
:103A1000EC016B01142FE090F301F090F4010E948F
:103A20004D090E94D30986E0180250011124CC15DB
:103A3000DD0531F0CE010E94FB08CA0DDB1DF7CF7A
:103A40000E944D09C7010E94CC09812F0E94E71CEA
:103A5000DF91CF911F91FF90EF90DF90CF90BF90BB
:103A6000AF9008950F931F93CF93DF93EB01F8016D
:103A70003281A881B981311103C0A817B907D1F0EB
:103A800036E02302C0011124BD01681B790B4617E3
:103A9000570761F026E001900D922A95E1F7288101
:103AA0003981820F931F9983888304C0BF01822FBD
:103AB0000E94E51CDF91CF911F910F910895CF9245
:103AC000DF92EF92FF921F93CF93DF936C01EB0194
:103AD000142F7901842F0E94E61C8AEF1802A0019E
:103AE0001124CC15DD0559F4F701D183C083DF9192
:103AF000CF911F91FF90EF90DF90CF900895FE013E
:103B0000E40FF51F8281882379F3EF01EACF0F9349
:103B10001F93CF938B0120919C05211139C0FB018C
:103B2000C281C1118BC08435FCE79F07E9F060F4C6
:103B300083359C4709F082C06AE972E08AE995E022
:103B40000E94EC1C81E017C086354CE79407B1F069
:103B500087359C4709F072C0609121017091220164
:103B60004FEF84E995E011C064E975E08AE995E0DA
:103B70000E94EC1C82E080939C0563C0609123014D
:103B80007091240141E08AE992E00E94FF1C59C033
:103B90008335FCE79F0780F186353CE7930730F0DB
:103BA00088354CE7940708F44BC026C031E08535D2
:103BB0009C4709F430E0F8018281831709F440C082
:103BC000213061F02230A9F460919A0570919B0533
:103BD00021E231E04FEF84E995E009C060919A0558
:103BE00070919B0523E231E041E08AE992E00E9476
:103BF0005F1D10929C0524C0B8010E94EA1CC82FCA
:103C00008823E1F080919C05813061F08230C9F415
:103C100040912301509124012FEF6AE975E084E976
:103C200095E009C0409121015091220121E06AE90B
:103C300075E08AE992E00E94321D03C0C1E001C034
:103C4000C0E08C2FCF911F910F910895CF93DF93F8
:103C500086319C4741F5EB010E945D0E982F8A81C9
:103C60002091000130910101882379F09A7A81E056
:103C700009F480E080939D05911102C069E201C0C2
:103C800065E3C9010E9481210AC080919D058111CF
:103C900002C069E201C065E3C9010E9484210E945B
:103CA000A10E80E001C081E0DF91CF9108950F93D4
:103CB0001F93CF93DF93C42FD22FFC0182818823DF
:103CC000B1F04093A0050E94452290939F058093F8
:103CD0009E0580E28C0F883008F04DC0C77081E0EF
:103CE00001C0880FCA95EAF70E94540644C080912B
:103CF000A005481330C080919E0590919F050E94B9
:103D00005D22883C910538F510E21D0FCD17B9F002
:103D100080E28C0F883040F4C77081E001C0880FCA
:103D2000CA95EAF70E945B06183010F581E09D2FD6
:103D3000977001C0880F9A95EAF70E945406802F69
:103D40000E944A061830B8F4D77081E001C0880F8D
:103D5000DA95EAF70AC080E28C0F883060F4C77009
:103D600081E001C0880FCA95EAF70E945B0603C094
:103D7000802F0E944A06DF91CF911F910F910895E5
:103D80000F93FC01E851FC47E730F10590F5CB01BA
:103D9000E557FF4F0C94752906E221EE41EE6AE1EA
:103DA0007CE723C007E225EE45EE6BE17CE71DC012
:103DB00006E221EE40EE68E17CE717C007E225EE5F
:103DC00044EE69E17CE711C006E221EE42EE6CE1CF
:103DD0007CE70BC007E225EE46EE6DE17CE705C00F
:103DE00008E221E045EE6EE17CE70E94571E80E08C
:103DF00008C0FB018281882319F01092A00501C040
:103E000081E00F9108958EE1499B02C08150E1F756
:103E1000499BFECF0895599880E28A95F1F7599A07
:103E20000895FC012AE02A95F1F728E090E080E06F
:103E300031E040E14A95F1F7880F499B02C081606B
:103E4000932700C0000040E14A95F1F7215089F71F
:103E500020E12A95F1F729B100C0000030E13A9540
:103E6000F1F72695217092272081920F9083089573
:103E7000A1E0B0E0EEE3FFE10C94872919828C0108
:103E80007C01E60EF11C0E151F0551F00E94031F68
:103E9000CE0101960E94111FF80181938F01F3CF8B
:103EA00081E09981911180E02196E6E00C94A329AC
:103EB000519A599A08955198599AE99AE9E6F0E089
:103EC0008081837F80830895615091E001C0990FC4
:103ED0006A95EAF720E031E0992361F0492F482301
:103EE00019F0599A232701C0599840E24A95F1F7F1
:103EF0009695F2CF222311F0599A01C0599880E289
:103F00008A95F1F759980895FF920F931F93CF93D5
:103F1000DF93EC018C01060F111DC017D10741F092
:103F2000F9900E940B1F68E08F2D0E94641FF5CF4F
:103F3000CDB7DEB7E5E00C94A4291F920F920FB61F
:103F40000F9211240F931F932F933F934F935F93DF
:103F50006F937F938F939F93AF93BF93EF93FF9351
:103F6000CF93DF931F92CDB7DEB719820E94031F54
:103F7000CE0101960E94111F082F06950695069501
:103F8000902F96959570202F2570920F292F2370D2
:103F900096959695920F877089135FC089818111DC
:103FA0005CC0043008F059C080E18A95F1F7599A55
:103FB000519A82E08A95F1F700C0599888E0089FED
:103FC00080011124D801AD5FBE4F1696ED91FC9192
:103FD00017973097A9F06091A6017091A7011496E8
:103FE0002D913C911597260F371F11968D919C911D
:103FF0001297680F791F13964C9113978C9109951E
:10400000F801ED5FFE4F6381662351F08091A601B8
:104010009091A70124813581820F931F0E94841FF4
:104020000E940B1F80E18A95F1F759985198599A8F
:1040300080E18A95F1F7F801ED5FFE4F608166231C
:1040400051F08091A6019091A70121813281820FC8
:10405000931F0E94381F0E94031F0F90DF91CF9182
:10406000FF91EF91BF91AF919F918F917F916F9150
:104070005F914F913F912F911F910F910F900FBE24
:104080000F901F9018950F931F93CF93DF93843059
:1040900091050CF06DC0EC01F894519A599885E0A7
:1040A0008A95F1F700009C2F969595702C2F25701E
:1040B000920F892F83709695969523E0CC0FDD1F84
:1040C0002A95E1F7980F8E01092B0E940B1F84E0BF
:1040D0008A95F1F700C068E0802F0E94641F80E19C
:1040E0008A95F1F75198599A499902C000C0FCCFBE
:1040F00087E090E0499B08C0019721F4519A599AB2
:10410000789436C000C0F6CFFE01ED5FFE4F6381AC
:10411000662381F08091A6019091A70124813581C9
:10412000820F931F0E94381F811104C0519A599A1F
:1041300078941FC00E94031F80E28A95F1F7599876
:10414000519A80E18A95F1F7CD5FDE4F6881662351
:1041500051F08091A6019091A70129813A81820FA7
:10416000931F0E94841F0E940B1F789481E001C05E
:1041700080E0DF91CF911F910F9108959093A90155
:104180008093A80108959093A7058093A6050895AC
:104190000E94C814811103C08091A1050895E09187
:1041A000A605F091A705309729F00190F081E02D48
:1041B0000995089580E00895E091A605F091A7057E
:1041C000309721F00280F381E02D09950895E09168
:1041D000A605F091A705309739F022E0DC012C9379
:1041E0000480F581E02D09950895A3E0B0E0EBEFA0
:1041F000F0E20C948B292091A4053091A505281795
:104200003907A1F09093A5058093A405E091A60538
:10421000F091A705309751F023E029839B838A838F
:104220000680F781E02DCE01019609952396E2E004
:104230000C94A729A3E0B0E0E0E2F1E20C948B2912
:104240002091A2053091A30528173907A1F090937A
:10425000A3058093A205E091A605F091A7053097EC
:1042600051F024E029839B838A830680F781E02D27
:10427000CE01019609952396E2E00C94A729FC0152
:10428000329697E080E0915029F021912223D9F3D2
:104290008F5FF9CF0895662349F0FC0132960896A6
:1042A0002191621729F0E817F907D1F780E0089506
:1042B00081E008959C01FC0132969FEF80E04191DE
:1042C000461789F09F3F19F4411101C0982F8F5F65
:1042D0008630A9F79F3F39F0F901E90FF11D97FDED
:1042E000FA956283089508959C012A5F3F4FFC016F
:1042F0004281461301C01282019682179307B9F7D3
:1043000008950E945A2108950E94742108950296EA
:1043100026E0FC0111922A95E9F7089546E050E065
:104320000E94C62921E0892B09F420E0822F0895FC
:1043300008950E949821089583E08093A8050E9423
:1043400099210895811102C081E001C082E080932B
:10435000A8050E94992108950E94A221089581E054
:104360008093A8050E94992108950E94AF21089585
:1043700008950E94B82108950E94B92108950E94CD
:10438000B82108950E94B82108950E94B821089587
:10439000CF930E94C2210E9450140E94BF21C0E00E
:1043A0008C2F0E941B13811104C0CF5FCE30C1F748
:1043B00001C081E0CF91089585B7806885BF85B73A
:1043C000806885BF08951F920F920FB60F92112437
:1043D0008F939F93AF93BF938091A905811113C0D1
:1043E0008091D8059091D905A091DA05B091DB05AF
:1043F0004196A11DB11D8093D8059093D905A09336
:10440000DA05B093DB05BF91AF919F918F910F902B
:104410000FBE0F901F9018958091E005843031F108
:104420000E94DB031092A90520E488E190E00FB61A
:10443000F894A895809360000FBE2093600083B726
:10444000817F846083BF83B7816083BF78948895C0
:1044500083B78E7F83BF0FB6F894A89580916000D4
:10446000886180936000109260000FBE08950E94E2
:104470004D090E94E003089582E084BD93E095BD5C
:104480009AEF97BD80936E0008952FB7F8948091AE
:10449000D8059091D905A091DA05B091DB052FBF21
:1044A00008952FB7F8946091D8057091D90580913F
:1044B000DA059091DB052FBF08959C014FB7F89462
:1044C0008091D8059091D905A091DA05B091DB05CE
:1044D0004FBF821B930B0895CF92DF92EF92FF9212
:1044E0002FB7F894C090D805D090D905E090DA05A0
:1044F000F090DB052FBFA7019601261B370B480B59
:10450000590BCA01B901FF90EF90DF90CF90089549
:1045100078941F920F920FB60F9211248F939F934E
:10452000AF93BF938091D8059091D905A091DA05FA
:10453000B091DB050196A11DB11D8093D805909324
:10454000D905A093DA05B093DB05BF91AF919F9198
:104550008F910F900FBE0F901F90189587E797E7E8
:1045600090930108809300089AE088E10FB6F894D0
:10457000A895809360000FBE90936000FFCF9AE0F3
:1045800088E10FB6F894A895809360000FBE9093D1
:104590006000FFCF8091B20508959B019091E005E6
:1045A0009430F1F48F708093E9008FEF9091E800E0
:1045B000815095FD06C095ED9A95F1F700008111A7
:1045C000F5CF8091E80085FF0BC0BA01C90140E03A
:1045D00050E00E94C8248091E8008E778093E80024
:1045E000089543E050E0BC0182E00E94CD2208958E
:1045F00046E050E0BC0182E00E94CD220895CF93B6
:10460000DF93EC0148E050E0BC0181E00E94CD2244
:1046100088E0FE01AAEAB5E001900D928A95E1F7E3
:10462000DF91CF9108958091DF05811109C00E942B
:1046300053260E94B0268091E20084608093E200BD
:1046400008951092DF0508950E94B52108956091A4
:10465000DC0581E0611101C080E00E949C21089589
:104660009091E00581E0943009F080E06091DC05F4
:104670000E94A221089542E061EC81E00E94CC25D5
:1046800042E261EC82E00E94CC259091E00581E05D
:10469000943009F080E06091DC050E94AC2108951F
:1046A0008091E205833009F461C030F4813071F00B
:1046B000823009F49BC008958A3009F487C08B309A
:1046C00009F46CC0893009F0A9C020C08091E105CF
:1046D000813A09F0A3C08091E800877F8093E800C9
:1046E0008091E5059091E605892B21F468E08AEA3E
:1046F00095E003C060E080E090E070E00E940D254E
:104700008091E8008B778093E80008958091E1051F
:10471000813209F083C08091E5059091E60502970A
:1047200008F07CC08091E800877F8093E80080914A
:10473000E80082FD05C08091E0058111F8CF6EC0D0
:104740002091F3008091F20090E0922B029731F4D7
:104750008091F100813011F0863021F48091F100D8
:104760008093B2058091E8008B7754C08091E10579
:10477000813A09F053C08091E5059091E605892BB7
:1047800009F04CC08091E800877F8093E800809119
:10479000E80080FFFCCF80912D0137C08091E105BA
:1047A0008132E1F58091E5059091E605892BB1F51F
:1047B0008091E800877F8093E8000E940126809125
:1047C000E30580932D010E944D0908958091E10534
:1047D000813221F58091E800877F8093E8000E9474
:1047E00001268091E4058093B30508958091E10549
:1047F000813AA1F48091E800877F8093E80080915E
:10480000E80080FFFCCF8091B3058093F100809198
:10481000E8008E778093E8000E940126089584B70F
:10482000877F84BF0FB6F894A89580916000886157
:1048300080936000109260000FBE90E080E80FB699
:10484000F89480936100909361000FBE0E94AF21A5
:1048500008950E9453260E94B026E2EEF0E0808187
:104860008460808378940E943B29089585E291E0DA
:104870000E94C32008958091E0058530A9F48091BD
:10488000E005853079F40E940C228091DE058823B2
:10489000B1F30E94C821882391F30E94B2240E94A0
:1048A0004D09EDCF0E943722089508950E945924A2
:1048B0000895292F332723303105C9F060F42130C2
:1048C000310581F02230310509F044C08BE390E0DE
:1048D0002EE834E043C021323105E1F022323105C7
:1048E00049F138C082E190E029EC34E037C09927E3
:1048F0008130910549F028F0029761F5E8E4F4E091
:1049000005C0EAE8F4E002C0EAE7F4E0849190E050
:104910009F0124C06115710541F061307105D1F42A
:1049200089E090E029EB34E019C089E090E020EACA
:1049300034E014C06115710541F06130710551F426
:104940008BE790E02BED34E009C080E490E026E5B1
:1049500035E004C080E090E020E030E0FA013183EF
:104960002083089580E189BD82E189BD09B400FEFC
:10497000FDCF8091D8008F7D8093D8008091E0009A
:1049800082608093E0008091E00081FDFCCF08957B
:10499000A0E0B0E0EEECF4E20C948529EC018B0190
:1049A0007A010E942026811133C0E114F10439F00C
:1049B000F70180819181081B190BC80FD91FC12CE9
:1049C000D12C0115110519F18091E80085FD16C063
:1049D0008091E8008E778093E800E114F10449F0BB
:1049E000F70180819181C80ED91ED182C08285E0F5
:1049F0000FC00E942026882321F30AC0899180934A
:104A0000F10001501109FFEFCF1ADF0ADACF80E081
:104A1000CDB7DEB7E8E00C94A1292091E7053091ED
:104A2000E8052617370748F06115710539F420911C
:104A3000E8002E772093E80001C0B901FC0120E0D6
:104A40006115710579F18091E0058823F1F18530D8
:104A5000F1F18091E80083FD3CC08091E80082FD87
:104A60002EC08091E80080FFEBCF2091F300809171
:104A7000F20090E0922B6115710551F0883091059C
:104A800038F421912093F100615071090196F3CF20
:104A900021E0089709F020E08091E8008E7780936C
:104AA000E800CECF2111CFCF0AC08091E005882346
:104AB00061F0853061F08091E80083FD0AC080914B
:104AC000E80082FFF2CF80E0089582E0089583E05D
:104AD000089581E008952091E7053091E8052617B3
:104AE000370748F06115710539F42091E8002E77F9
:104AF0002093E80001C0B901FC0120E061157105B7
:104B000091F18091E005882309F440C0853009F4D3
:104B10003FC08091E80083FD3DC08091E80082FDA8
:104B20002FC08091E80080FFE9CF2091F3008091B1
:104B3000F20090E0922B6115710559F088309105D3
:104B400040F424912093F10031966150710901964F
:104B5000F2CF21E0089709F020E08091E8008E77FD
:104B60008093E800CBCF2111CCCF0AC08091E00523
:104B7000882361F0853061F08091E80083FD0AC0F0
:104B80008091E80082FFF2CF80E0089582E00895EE
:104B900083E0089581E00895982F973068F5909309
:104BA000E900981739F07091EC002091ED005091D8
:104BB000F00003C0242F762F50E021FD02C09F5F3C
:104BC000ECCF3091EB003E7F3093EB003091ED0065
:104BD0003D7F3093ED003091EB0031603093EB007E
:104BE0007093EC002093ED005093F0002091EE00C4
:104BF00027FDE5CF80E008958F708093E90081E084
:104C000008958091E10587FF11C08091E80082FD41
:104C100005C08091E0058111F8CF11C08091E800B6
:104C20008B770BC08091E005882349F08091E800E4
:104C300080FFF8CF8091E8008E778093E800089598
:104C40002091E4003091E50095E64091EC00842F3E
:104C5000817040FF23C08091E80080FD1DC08091DD
:104C6000E005882399F0853099F08091EB0085FD6F
:104C700011C04091E4005091E5002417350729F355
:104C8000915011F09A01E1CF84E0089582E00895F7
:104C900083E0089581E0089580E008954091E80060
:104CA00042FFDDCF08950E94C2260E94CA26E0EE90
:104CB000F0E0808181608083E8EDF0E080818F7793
:104CC000808319BCA7EDB0E08C918E7F8C9380819E
:104CD0008F7E80831092DF0508950F931F93CF93EB
:104CE000DF930E94C2260E94CA26C8EDD0E08881C8
:104CF0008F77888388818068888388818F7D888387
:104D000019BC1092E0051092DC051092DE0510929D
:104D1000DD0500EE10E0F80180818B7F80838881C3
:104D20008160888342E060E080E00E94CC25E1EE73
:104D3000F0E080818E7F8083E2EEF0E08081816010
:104D40008083808188608083F80180818E7F80836A
:104D5000888180618883DF91CF911F910F910895A1
:104D6000E8EDF0E080818F7E8083E7EDF0E08081E8
:104D70008160808384E082BF81E08093DF050E94B0
:104D80006D260895E8EDF0E080818E7F808310929B
:104D9000E20008951092DA001092E10008951F9247
:104DA0000F920FB60F9211242F933F934F935F935F
:104DB0006F937F938F939F93AF93BF93EF93FF93E3
:104DC0008091E10082FF0BC08091E20082FF07C06A
:104DD0008091E1008B7F8093E1000E943A298091CD
:104DE000DA0080FF1FC08091D80080FF1BC0809137
:104DF000DA008E7F8093DA008091D90080FF0DC0A9
:104E000080E189BD82E189BD09B400FEFDCF81E06A
:104E10008093E0050E94132305C019BC1092E005A1
:104E20000E9421238091E10080FF19C08091E2005F
:104E300080FF15C08091E2008E7F8093E200809118
:104E4000E20080618093E2008091D80080628093CC
:104E5000D80019BC85E08093E0050E94272380914B
:104E6000E10084FF30C08091E20084FF2CC080E12B
:104E700089BD82E189BD09B400FEFDCF8091D800D3
:104E80008F7D8093D8008091E1008F7E8093E10038
:104E90008091E2008F7E8093E2008091E200816049
:104EA0008093E2008091DC05882311F084E007C044
:104EB0008091E30087FD02C081E001C083E0809320
:104EC000E0050E9430238091E10083FF29C080919A
:104ED000E20083FF25C08091E100877F8093E1009D
:104EE00082E08093E0051092DC058091E1008E7FE6
:104EF0008093E1008091E2008E7F8093E2008091B8
:104F0000E20080618093E20042E060E080E00E9485
:104F1000CC258091F00088608093F0000E942423CB
:104F2000FF91EF91BF91AF919F918F917F916F9181
:104F30005F914F913F912F910F900FBE0F901F9057
:104F400018951F920F920FB60F9211242F933F9333
:104F50004F935F936F937F938F939F93AF93BF9381
:104F6000CF93DF93EF93FF93C091E900CF708091CF
:104F7000EC00D82FD17080FDD0E81092E90080912C
:104F8000F000877F8093F00078940E94E5271092CC
:104F9000E9008091F00088608093F000CD2BCF7005
:104FA000C093E900FF91EF91DF91CF91BF91AF9155
:104FB0009F918F917F916F915F914F913F912F9131
:104FC0000F900FBE0F901F901895AAE2B0E0EBEE85
:104FD000F7E20C948A29E1EEF5E08091F1008193EB
:104FE00025E0E93EF207C9F70E9450238091E800CE
:104FF00083FF2EC18091E1059091E205492F50E099
:105000004A30510508F024C1FA01EE56FF4F0C94C6
:105010007529803821F0823809F01AC108C08091C2
:10502000DD059091DE05992389F082600FC08091A3
:10503000E5058F70873008F00BC18093E9008091FF
:10504000EB0085FB882780F91092E9009091E80039
:10505000977F9093E8008093F1001092F100D1C007
:10506000282F2D7F09F0F4C0882319F0823061F0D9
:10507000EFC08091E305813009F0EAC0933009F078
:1050800080E08093DE052EC08091E30581112AC067
:105090008091E5058F702FEF280F263008F0D8C0DB
:1050A0008093E9002091EB0020FF1CC0933021F495
:1050B0008091EB00806214C09091EB00906190931E
:1050C000EB0021E030E0A90102C0440F551F8A9592
:1050D000E2F74093EA001092EA008091EB008860CA
:1050E0008093EB001092E9008091E800877F809325
:1050F000E8000E940126ACC08111AAC01091E3050E
:105100001F778091E3008078812B8093E30080916A
:10511000E800877F8093E8000E9401268091E800E4
:1051200080FFFCCF8091E30080688093E300111141
:1051300002C082E001C083E08093E00589C080580E
:10514000823008F085C08091E3059091E4058C3DA4
:1051500053E0950779F583E08A838AE289834FB724
:10516000F894DE01139620E03EE051E2E32FF0E0F8
:1051700050935700E49120FF03C0E295EF703F5F2A
:10518000EF708E2F90E0EA3010F0C79601C0C09605
:105190008D939D932F5F243149F74FBF8091E80095
:1051A000877F8093E8006AE270E0CE0101960E945A
:1051B0000D2516C06091E5057091E605AE014F5FC3
:1051C0005F4F0E945624BC01892B09F441C0909185
:1051D000E800977F9093E80089819A810E946B256F
:1051E0008091E8008B778093E80032C0803881F5A9
:1051F0008091E800877F8093E8008091DC058093B0
:10520000F1008091E8008E7772CF811121C08091EA
:10521000E3059091E40599270297D4F48091E80082
:10522000877F8093E8008091E3058093DC050E94EE
:1052300001268091DC05811106C08091E30087FD85
:1052400002C081E001C084E08093E0050E943B231E
:105250008091E80083FF0AC08091E800877F8093F7
:10526000E8008091EB0080628093EB00AA96E3E077
:105270000C94A6290895CF938091E0058823A1F08E
:10528000C091E900CF709091EC00892F817090FD62
:1052900080E8C82B1092E9008091E80083FD0E940D
:1052A000E527CF70C093E900CF9108950E9453265F
:1052B0001092E00508958091E300881F8827881FD9
:1052C000089597FB072E16F4009407D077FD09D0B8
:1052D0000E94B22907FC05D03EF4909581959F4F1E
:1052E0000895709561957F4F0895EE0FFF1F05900B
:1052F000F491E02D09942F923F924F925F926F921A
:105300007F928F929F92AF92BF92CF92DF92EF9255
:10531000FF920F931F93CF93DF93CDB7DEB7CA1BD6
:10532000DB0B0FB6F894DEBF0FBECDBF09942A8801
:10533000398848885F846E847D848C849B84AA84A9
:10534000B984C884DF80EE80FD800C811B81AA8136
:10535000B981CE0FD11D0FB6F894DEBF0FBECDBF01
:10536000ED010895AA1BBB1B51E107C0AA1FBB1F7B
:10537000A617B70710F0A61BB70B881F991F5A95E1
:10538000A9F780959095BC01CD010895FB01DC0142
:1053900004C08D910190801921F441505040C8F70C
:1053A000881B990B0895FB01DC0102C001900D924E
:1053B00041505040D8F70895F999FECF92BD81BD74
:1053C000F89A992780B50895A8E1B0E042E050E04E
:1053D0000C94102A262FF999FECF92BD81BDF89A20
:1053E000019700B4021639F01FBA20BD0FB6F89429
:1053F000FA9AF99A0FBE08950396272F0E94EB2977
:105400000E94EA29252F0E94EB29242F0C94EB29D6
:105410000196272F0E94EB290C94EA29DC01CB018D
:10542000FC01F999FECF06C0F2BDE1BDF89A3196B4
:1054300000B40D9241505040B8F70895F894FFCF52
:105440003A02010000000100000000000000070116
:1054500000000004080000000000002808503C077D
:105460001494059A02CA22FF22F822F12201E200D6
:10547000E900EA00B500B600B700CD008301CC001A
:105480008A019201940121022302240225022602AC
:1054900027022A02B300B4006F0070009F01CB0105
:1054A000818283E200E900EA00B500B600B700CDD2
:1054B000008301CC008A019201940121022302247D
:1054C000022502260227022A02B300B4006F0070F0
:1054D000009F01CB01818283F5F6F731333236909C
:0854E000946697C6343565029D
:00000001FF
