:100000000C94A9020C94C6020C94CC1D0C94C6024C
:100010000C94C6020C94C6020C94C6020C94C60240
:100020000C94C6020C94C6020C94E8240C94BA25D5
:100030000C94FD1F0C94C6020C94C6020C94C602CC
:100040000C94C6020C94C6020C94C6020C94C60210
:100050000C94C6020C94A2200C94C6020C94C60206
:100060000C94C6020C94C6020C94C6020C94C602F0
:100070000C94C6020C94C6020C94C6020C94C602E0
:100080000C94C6020C94C6020C94C6020C94C602D0
:100090000C94C6020C94C6020C94C6020C94C602C0
:1000A0000C94C6020C94C6020C94C6023907390798
:1000B00065076507DF07620907096209FB0773081F
:1000C000850885081309330919091C09260921091E
:1000D0002B098B18FD1893185D1861189718641870
:1000E0009A18A5186F18F3187318A9187718AD186F
:1000F000D7187B18B118E1188118B718C1186818FB
:100100009E186B18A1188618BC18CD18ED18EF189A
:1001100059188F180619071D0D1DFB1C011D131DF5
:10012000191D1F1D222649264127492641279526AC
:10013000B82641270F271E270000010702070307E3
:100140000407050706000001010802080308040867
:10015000050806010002010902090309040905094D
:1001600006020003010A020A030A040A050A06033A
:100170000004010402040304040405040604000549
:10018000010502050305040505050605000601062F
:100190000206030604060506060600070107020715
:1001A00003070407050706070008010802080308FB
:1001B00004080508060800090109020903090409E1
:1001C00005090609000A010A020A030A040A050AC7
:1001D000060A000B010B020B030B040B050B060BAD
:1001E000000C010C020C030C040C050C060C000D99
:1001F000010D020D030D040D050D060D29001E0055
:100200001F0020002100220045002B0414001A00CA
:100210000800150017002D002B0004001600070031
:1002200009000A002E00A2521D001B000600190042
:1002300005000000737C6252A85261522C004C00F1
:1002400000000000000000000000A452A1520000C5
:100250000000000000000000F056280000004400EC
:100260002300240025002600270035002F001C0055
:1002700018000C0012001300310030000B000D00BC
:100280000E000F0033003400000011001000360093
:1002900037003800B25200002A00280052005100F6
:1002A00050004F00000068006900000000000000DE
:1002B00000000000460049000000000000000000AF
:1002C00001003A003B003C003D003E0001000100FF
:1002D0000100010001000100010001000100010016
:1002E0000100010001000100010001000100010006
:1002F00001000100010000000100010001000100F7
:1003000001000100000000000000000000000100EA
:1003100001000000000000000000000001000100DA
:10032000000001003F004000410042004300010086
:1003300001000100010001000100010001000100B5
:1003400001000100010001000100010000000100A6
:100350000100010001000100010000000100010096
:100360000100010001000100000001000100000087
:10037000000000000000000001000100000000007B
:100380000000000001003A003B003C003D003E0040
:100390000100010063005F0060006100540056002E
:1003A000010062005C005D005E0055005700010026
:1003B000000059005A005B0000000000010001002D
:1003C000007C0100010001000000000000000000AE
:1003D000000001000100000000000000000000001B
:1003E00001000100000001003F0040004100420008
:1003F0004300000000004A004D00520000004B0086
:10040000000000000000500051004F0000000000FC
:1004100000004E000000000000000000010000008D
:1004200001000100537C567C547C577C0000010085
:1004300001000000000000000000000001000100B9
:10044000000000000000000034034400610063006D
:10045000740079006C002D004D0061006E00750085
:1004600066006F0072006D002000280035007800E3
:1004700036002B0033002B003200290000000E0351
:100480006A006500720076006900730000000403D2
:10049000090409023B00020100A0FA09040000015E
:1004A000030101000921110100012240000705811B
:1004B00003080001090401000103000000092111E3
:1004C0000100012232000705820320000112010011
:1004D00002000000084D44373520000102000105EC
:1004E000010980A101850319012AB700150126B76A
:1004F00000950175108100C0050C0901A10185045A
:1005000019012AA002150126A0029501751081008B
:10051000C005010906A101050719E029E715002515
:10052000019508750181029501750881010507197A
:100530000029FF150026FF009506750881000508B3
:100540001901290595057501910295017503910120
:10055000C00011241FBECFEFDAE0DEBFCDBF11E037
:10056000A0E0B1E0E2E4F0E502C005900D92AA3A05
:10057000B107D9F726E0AAEAB1E001C01D92A93679
:10058000B207E1F70E9410180C941F280C94000089
:10059000899731F4FB018581811102C00E94180FF7
:1005A00081E00895CF93DF93C82FD62F0E94BF0517
:1005B0008D2F0E94DE068C2F0E946506DF91CF9161
:1005C0000895CF93DF93EC0162E00E94600A8823D4
:1005D00039F00E940B1F80FD03C083E50E94DE06F8
:1005E000CE010E945E04813039F020F0823041F467
:1005F00060E203C06EE101C06FE18AE60E94D202B0
:10060000CE01DF91CF9108950E941005882311F04B
:1006100066E201C067E28AE60E94D2020895CF93A3
:10062000DF93C82FD62F811114C06FE18BE60E9493
:10063000D20261E28BE60E94D20263E28BE60E9464
:10064000D20265E28BE60E94D20267E28BE60E944C
:10065000D202C1FF06C0D1FF02C06EE121C06FE12E
:100660001FC0C5FF06C0D5FF02C060E219C061E22D
:1006700017C0C2FF06C0D2FF02C062E211C063E22F
:100680000FC0C0FF06C0D0FF02C064E209C065E22F
:1006900007C0C3FF08C0D3FF02C066E201C067E223
:1006A0008BE60E94D202DF91CF9108958330B0F49F
:1006B0006E30A0F4473090F492E6899FF001112447
:1006C00087E0689FE00DF11D1124E40FF11DEE0F8E
:1006D000FF1FE450FE4F85919491089581E090E0D2
:1006E00008950E945603089581E0089581E00895D9
:1006F0000E94760308950E94780308950E94C8021C
:10070000089508950E9481030895A6E0B0E0EBE803
:10071000F3E00C948F2749835A839E833091BE0166
:1007200089819A81311115C03E81332359F02223EA
:1007300049F00E94440B182F682F89819A810E94EA
:10074000200B03C00E94320B182F69817A81812F00
:1007500004C00E94440B69817A810E94FB12269694
:10076000E3E00C94AB27FC01262F4081518162818C
:100770007381848195810E9485030895CF93DF93CF
:10078000EC0161E00E94B303BE010E947B03DF9194
:10079000CF910895CF93DF93EC0160E00E94B30303
:1007A000BE010E948203DF91CF91089508950E94B7
:1007B000E3090E94D6032FEF84E39CE021508040A0
:1007C0009040E1F700C0000008950E94D7030E9406
:1007D000C82008950E94D7030E94D92008950F933E
:1007E0001F93CF93DF938C0161E00E94B303EC0170
:1007F000B8010E94B41B882309F450C0B801CE018F
:100800000E947E03882309F449C0B801CE010E94EA
:100810003C19882309F442C0B801CE010E94EF1CA4
:100820008823E1F1B801CE010E9435188823B1F187
:10083000B801CE010E94551C882381F1F801858101
:10084000882341F1C3308CE7D807D1F040F4C115BB
:10085000FCE7DF0791F0C130DC47A1F01BC0CB35CE
:10086000ECE7DE07A9F0CC35FCE7DF0771F0CA350D
:10087000DC4781F40E9438100DC00E94E5030EC0D1
:100880000E9440100E94EA0309C00E942E1002C07C
:100890000E943C10C8010E94740301C080E0DF91F7
:1008A000CF911F910F9108950E94D61F0E94A1041D
:1008B00008950E94A5040E94DF1F0895292F332761
:1008C0002115310519F0C90148E001C040E09C0143
:1008D00064E0369527956A95E1F72115310511F009
:1008E0004C5FC9019C0136952795369527952115B2
:1008F000310511F04E5FC9019C0136952795232BD8
:1009000009F04F5F842F0895089581E008950895B8
:10091000CF93DF93D82F0E948504C82F882319F026
:100920008D2F0E9487048C2FDF91CF910895089519
:10093000CF93C82F0E9484048C2F0E948804CF91EB
:10094000089580E00E94980408950E94F71E0E9476
:1009500098040895CF930E94F71EC82F8091AC0190
:10096000C81779F0C093AC010E946B206093AD0171
:100970007093AE018093AF019093B0018C2F0E94D1
:100980009804CF910895442319F08091C0010895EF
:100990009C0143E0369527954A95E1F7FB01E20F6C
:1009A000F31F9C012770332781E090E001C0880F7E
:1009B0002A95EAF79081982381E009F480E0089570
:1009C0009C0153E0369527955A95E1F7DC01A77015
:1009D000BB2781E090E001C0880FAA95EAF7FB01F0
:1009E000E20FF31F442319F09081892B03C08095F7
:1009F000908189238083089581E08093C0010E94C3
:100A0000040308951092C0010E9404030895909178
:100A1000C00181E089278093C0010E9404030895EA
:100A20008091C0010895A0E0B0E0E9E1F5E00C9408
:100A30008A27FC0184818130B9F581818E30A0F54F
:100A4000C081C73088F58F01C82ED12CD0E07E013F
:100A500097E0899FE00CF11C1124458161EB71E066
:100A6000C7010E94C3048823C9F087E08C9DF00170
:100A70008D9DF00D1124CE0FDF1FCC0FDD1FFE0169
:100A8000E75CFE4FE491D8011196EC93FE01E85C1F
:100A9000FE4FC491F801C08341E001C040E061EB2A
:100AA00071E0C7010E94E004CDB7DEB7E8E00C9426
:100AB000A627ADE0B0E0EFE5F5E00C948E2748877F
:100AC00059876A877B878C879D8791110E94280FA1
:100AD0008C85882321F0CE0108960E9413058E0193
:100AE0000F5F1F4F87E0F80111928A95E9F786E0C2
:100AF000FE013896D80101900D928A95E1F7809118
:100B0000390682FF11C00E949C0E882319F082E0F2
:100B10000E9402100E94830E81110E94810F0E9488
:100B2000B20E81110E94DC0E8D8181110AC02981D3
:100B30003A814B815C816D817E818F810E94FE0DA7
:100B400005C0C8010E94BE038111F1CF2D96E4E0DB
:100B50000C94AA27CF93FC01C481C13071F4808129
:100B600091810E94760B92959F70963031F4863F6A
:100B700021F00E940705C093BF01CF910895CF9344
:100B8000882309F4A0C0C82F8238C1F40E94F71E40
:100B900081FD99C069E380910001909101010E945B
:100BA000A51F0E948F0F2FEF87EE93E0215080400A
:100BB0009040E1F700C0000069E319C0833801F5F7
:100BC0000E94F71E80FD7FC063E580910001909137
:100BD00001010E94A51F0E948F0F2FEF81EE94E06C
:100BE000215080409040E1F700C0000063E5809113
:100BF0000001909101010E94A81F0E948F0F63C005
:100C00008438C1F40E94F71E82FD5DC067E48091C4
:100C10000001909101010E94A51F0E948F0F2FEFEC
:100C200081EE94E0215080409040E1F700C0000048
:100C300067E4DDCF8CEF8C0F813AF8F48C2F0E94A3
:100C4000C61A811140C06C2F809100019091010162
:100C50000E946F1F882349F06C2F809100019091B2
:100C600001010E94A81F0E948F0F6C2F809100012C
:100C7000909101010E94A51FC0CF80E28C0F8830A7
:100C800048F4C77081E001C0880FCA95EAF70E9456
:100C90000B0FB3CFEBE5EC0FE33040F4F0E0E25A9A
:100CA000FE4F808190E00E94191F0DC0C85ACB31C1
:100CB00050F4EC2FF0E0EE0FFF1FE85DFE4F808157
:100CC00091810E943E1FCF910895882309F45DC051
:100CD000682F823879F40E94F71E81FF56C069E3BD
:100CE00080910001909101010E94A51F0E948F0F29
:100CF00069E310C08338B9F40E94F71E80FF45C035
:100D000063E580910001909101010E94A51F0E945E
:100D10008F0F63E580910001909101010E94A81F4F
:100D20000E948F0F0895843879F40E94F71E82FF85
:100D30002CC067E480910001909101010E94A51FE1
:100D40000E948F0F67E4E6CF8CEF860F813A10F395
:100D500080E2860F883048F4677081E001C0880F18
:100D60006A95EAF70E94110FDBCF8BE5860F83307F
:100D700028F480E090E00E94191F0895685A6B31B2
:100D800020F480E090E00E943E1F08951F93CF93CF
:100D9000DF93182FEB010E94BF05209741F08FE9E8
:100DA0009FE00197F1F700C000002197F6CF812F57
:100DB0000E946506DF91CF911F910895893319F044
:100DC00060E070E002C060E570E00E94C606089531
:100DD000882321F00E940B0F0E948F0F0895882313
:100DE00021F00E94110F0E948F0F0895A0E0B0E043
:100DF000ECEFF6E00C9489276C01EB01FC01158106
:100E0000F680F2949FE0F9220E94010F882309F1F5
:100E10001123F9F08D2F807F803471F090E29C0FC8
:100E20009830B8F0F11004C09D2F907E903289F078
:100E3000803611F4C63F69F08091390682FF09C0FF
:100E400082E00E9402100E94010F91E0E82EE92644
:100E500001C0E12CBD2EB2948FE0B8228B2D90E022
:100E60008C30910508F02EC2FC01EA5AFF4F0C9419
:100E70007A270D2F0F708D2F807F11F00295007F44
:100E8000112399F0002309F4A3C180E28C0F88306C
:100E900010F0C11104C0802F0E940B0F03C0802FDF
:100EA0000E941B0F0E948F0F93C18C2F0E9465061A
:100EB000002309F407C280E28C0F883048F1CC236C
:100EC00039F1802F0E94210F26C00D2F0F708D2F1A
:100ED000807F803211F00295007FCC2321F0C13059
:100EE00009F448C053C08091390682FD17C0112310
:100EF00049F0002329F0802F0E940B0F0E948F0FD2
:100F000080E067C180E00E946506002309F4DAC131
:100F1000802F0E94110F0E948F0FD4C11123B1F0B6
:100F2000FF20C1F1F1E0FF1204C0802F0E94510F99
:100F3000C9C122E0F212C6C1802F0E94E806802FAC
:100F40000E94680F802F0E94310FBCC1FF2041F02A
:100F500081E0F812B7C10E94080F802309F4B2C1E2
:100F6000802F0E94EF06802F0E94680F802F0E9422
:100F70003D0FA8C1112329F095E09F1508F4A2C1E7
:100F800009C0E4E0EF1508F49DC115C0112331F04C
:100F9000F1101EC1802F0E94E80694C1FF2059F075
:100FA000C93309F02BC1FFEF27EE83E0F150204059
:100FB0008040E1F721C1802F0E94EF0683C18D2F71
:100FC00086958695837019F0813059F07BC1112385
:100FD00019F0CE01937002C080E090E00E94191FCA
:100FE00079C1112319F0CE01937002C080E090E026
:100FF0000E943E1F6FC18D2F8370B9F5111166C11C
:101000004C2F429546954770440F440F8C2F8F709C
:1010100090E09C01042E02C0220F331F0A94E2F7D5
:10102000C4FF0AC08FE090E002C0880F991F4A9564
:10103000E2F78095909502C080E090E04D2F4695B4
:1010400046954370822B932B423049F058F441303F
:1010500019F00E943F0A3AC10E94360A37C10E9425
:10106000480A34C10E94330A31C1112319F08D2F6F
:10107000817001C08695882309F428C14C2F4295C0
:1010800046954770440F440F8C2F8F7090E09C0161
:10109000042E02C0220F331F0A94E2F7C4FF0AC0D5
:1010A0008FE090E002C0880F991F4A95E2F7809583
:1010B000909502C080E090E04D2F46954695437094
:1010C000822B932B423049F058F4413019F00E94A2
:1010D000BB0AFCC00E94B20AF9C00E94C40AF6C052
:1010E0000E94540AF3C00D2F0F70112339F0802F86
:1010F0000E94800A8C2F0E94E806E8C08C2F0E9474
:10110000EF06802F0E94900AE1C0C23FD9F028F478
:10111000C03F41F0C13F51F157C0C33FC9F0C43F88
:1011200009F152C0112329F094E09F1508F4CAC0B8
:1011300004C0E5E0EF1508F4C5C08D2F8F710E9443
:10114000A20AC0C08D2F8F71112309F447C05CC063
:10115000112329F08D2F8F710E94740AB3C00E9451
:101160005B0AB0C08091390682FD06C08D2F8F7159
:10117000112309F449C032C01123B9F00E94980E1E
:10118000843039F40E94F80F8D2F8F710E94900ADD
:1011900098C0F1E0FF1508F494C00D2F0F71802F57
:1011A0000E94800A63E0802F08C021E02F1540F4E0
:1011B0000E94F80F64E08D2F8F710E94DA0F81C0BA
:1011C00081E00E9402107DC0112359F0FF2021F020
:1011D0008C2F0E94BF0576C08D2F8F710E94800AD0
:1011E00071C0FF2079F0C93349F48FEF97EEE3E047
:1011F00081509040E040E1F700C000008C2F0E9439
:10120000650660C08D2F8F710E94900A5BC08C2F85
:1012100090E0FC01E05FF109E730F10588F5EE5957
:10122000FF4F0C947A27112309F45DC00E94070533
:1012300051C01093C0014EC081E081278093C0014E
:1012400049C0111147C00E94FC044DC0111142C099
:101250000E94020548C0112319F00E94C50E3AC031
:101260000E94E50E40C0112339F08091BF01882310
:10127000E9F21092BF012EC0F4E0FF15A0F1D6CF25
:101280008091BF01FF20A1F0882321F00E94070573
:101290001092BF018C2F112319F00E94BF051AC0B4
:1012A0000E94650687E0F60111928A95E9F71BC056
:1012B000882381F011110EC00E9407051092BF0112
:1012C00012C0E12C88EF8B0D843020F40E94F71EB1
:1012D0000E949804112339F0D07FD03611F4C63F14
:1012E00011F00E94F30EEE2089F00E94980E80FD0E
:1012F0000DC0F60115820E94920E0E94800AC6015E
:101300000E94A3090E94920E0E94900ACDB7DEB7F8
:10131000E9E00C94A5270F931F93CF93DF93EC0183
:10132000688179818D810E94810B8C010E94CD0A98
:101330000E94240AB801CE010E94F606DF91CF91E7
:101340001F910F910895CF93DF93FC0124812223F5
:10135000D1F0EC010E94EF0381110FC00E94010F38
:10136000882389F08D81882371F08091390682FF6E
:101370000AC082E00E94021006C0CE010E948B09C2
:10138000CE010E94CA03DF91CF910895882321F0F6
:101390000E94210F0E948F0F089580E090E00E942C
:1013A000191F80E090E00E943E1F0E94280F0E94BB
:1013B0008F0F089580910001909101010E94AB1F51
:1013C0000E94CD0908950E94180F0E94DA0908951D
:1013D00092959F70963079F010F4925001C09A5017
:1013E000923068F4803F69F018F4883E40F409C0F8
:1013F000843F29F406C0883E20F0813F11F080E050
:10140000089581E00895FC012481222339F0808130
:1014100091810E94760B0E94E809089580E008956A
:10142000A6E0B0E0E6E1FAE00C9490272696E2E030
:101430000C94AC27A7E0B0E0E0E2FAE00C9490272F
:101440002796E2E00C94AC27089508950E94250A9F
:1014500008950E94260A08950E94290A9093F8018F
:101460008093F70108950E942C0A08952091F701B6
:101470003091F801822B932B0E942C0A0895209121
:10148000F7013091F801822393230E942C0A0895DA
:101490002091F7013091F801822793270E942C0AAE
:1014A00008950E94E10208950E94510A9093F60166
:1014B0008093F501089580E090E00E94540A089519
:1014C000009721F481E0662371F00CC021E030E048
:1014D00002C0220F331F6A95E2F72823392381E0E7
:1014E000232B09F480E0089521E030E0A90102C037
:1014F000440F551F8A95E2F7CA010E94540A0895C5
:1015000021E030E002C0220F331F8A95E2F780917C
:10151000F5019091F601822B932B0E94540A0895B5
:1015200021E030E002C0220F331F8A95E2F72095B8
:1015300030958091F5019091F601822393230E94CA
:10154000540A089521E030E002C0220F331F8A952B
:10155000E2F78091F5019091F601822793270E948E
:10156000540A08952091F5013091F601822B932BB6
:101570000E94540A08952091F5013091F6018223CA
:1015800093230E94540A08952091F5013091F601A9
:10159000822793270E94540A08950895962F9770E2
:1015A000A1E001C0AA0F9A95EAF793E076956795B6
:1015B0009A95E1F7660F771F660F771FFA01E60F1E
:1015C000F71F40E050E0682F70E090819B01042EEF
:1015D00002C0369527950A94E2F7217021952927B4
:1015E0002A23292721934F5F5F4F4430510569F724
:1015F0000895FB01782F777023E0969587952A95BB
:10160000E1F7880F991F880F991FE80FF91F40E035
:1016100050E080E0219130E0072E02C036952795FA
:101620000A94E2F721703327042E01C0220F0A9496
:10163000EAF7822B4F5F5F4F4430510559F7089509
:10164000282F9E3070F4873060F4862F622F70E070
:1016500027E0929F600D711D112441EC51E00E9422
:10166000CE0A08959E3070F4873060F4292F90E000
:1016700061EC71E037E0239F800D911D11240E94E1
:10168000F90A089580E00895A0E0B0E0EAE4FBE004
:101690000C9489277C010091F5011091F60180914D
:1016A000F7019091F801082B192BCFE0D0E0CC2462
:1016B000C394D12CC6010C2E02C0880F991F0A9426
:1016C000E2F780239123892B21F4219798F7B12CFD
:1016D00007C0BC2EB7018C2F0E9407130197A9F3F6
:1016E0008B2DCDB7DEB7E9E00C94A527CF93DF9320
:1016F000EC010E94440BBE010E940713DF91CF91C1
:1017000008951F93CF93DF93EB019091BE0199232E
:1017100021F0CB010E94760B13C0882349F0CB0146
:101720000E94440B182F682FCE010E94200B04C08A
:10173000CB010E94320B182FBE01812F0E9407138C
:10174000DF91CF911F9108951F93CF93DF93C091A5
:10175000F90117E08091FA01C817A1F0D0E01C9FB1
:10176000F0011D9FF00D1124E550FE4F20813181C5
:10177000428153816481758186810E941A0A219673
:10178000C770E8CFDF91CF911F9108952091330268
:101790003091340240913502509136026091370207
:1017A00070913802809139020E941A0A0895CF93ED
:1017B000DF938091390282958F7009F04EC080913D
:1017C0003802882309F449C08091F9014091FA0157
:1017D0005091340260913302C0913502D0913602AB
:1017E00077E08417D1F190E0789FF001799FF00DB8
:1017F0001124DF01A550BE4F14962C91149722237B
:1018000049F111962C911197251324C02C91261380
:1018100021C015962C91159721111CC012962D915F
:101820003C9113972C1B3D0B283C310598F480917B
:1018300039028F70806180933902EF5FFD4F8081A4
:101840008F708061808383E392E00E94A3090E94ED
:10185000A40B03C001968770C4CFDF91CF91089588
:101860002091F9019091FA0157E02917A9F030E091
:10187000529FF001539FF00D1124E550FE4F7181EE
:10188000761306C07081781303C07581741306C087
:101890002F5F3F4F2770E9CF80E0089581E00895E2
:1018A000A4E1B0E0E6E5FCE00C9486278C0186E03C
:1018B000F801DE011F9601900D928A95E1F7D8019B
:1018C00014968C9114971596EC9093E3A92E92E0C0
:1018D000B92E90913702911118C0882309F478C16C
:1018E000EE20D9F1C8010E94030AF82E8823A9F13D
:1018F00087E0F801D50101900D928A95E1F7C501C5
:101900000E94AA050E94D70B95C0F801C080D18023
:1019100082809380F0903802209135023091360217
:10192000A401421B530BFF2009F400C1483C5105A0
:1019300008F0ACC0882309F45CC180913902282FDB
:10194000207F90913402222361F09D1509F45EC03E
:10195000C8010E94030A811170C0C8010E94A30936
:1019600037C19D1116C0909133029C1112C0E11035
:1019700010C08F708061809339020E94C60B83E390
:1019800092E00E94A30980913902D80116968C93A7
:101990002FC1E11035C040E06D2D8C2D0E94300C20
:1019A000E82E811118C1CF86D88A8F8598890E9428
:1019B000760B292F22952F70243020F49F7022302F
:1019C00028F009C02A50223080F014C0992349F031
:1019D000811107C013C0992321F0F8019681907FEF
:1019E00069F0805E883030F409C0803F38F0815F54
:1019F000833020F0C8010E94A309EF2CFE2CF9C00F
:101A000080913902816080933902F2C09091330253
:101A10009C119ECFE1109CCFD80116968C93C801E3
:101A20000E94A30987E0F801A3E3B2E001900D92C0
:101A30008A95E1F70E94C60BDCC0EE2009F48DCF39
:101A400020913902822F82958F7090E002978CF05E
:101A50008091330290913402998788879B868A8689
:101A6000809137028C871D862E87CE0108960E94B2
:101A7000A30987E0F801A3E3B2E001900D928A95F3
:101A8000E1F70E94D70B0E94C60BA2C090913902C9
:101A9000292F207F91F4682D9A8A898AA6017A8954
:101AA0009E2D0E94100A83E392E00E94A30987E022
:101AB000F50111928A95E9F799C0882309F499C034
:101AC000809134028D1110C0809133028C110CC0B2
:101AD000E1100AC09683C8010E94A30987E0F501BE
:101AE00011928A95E9F785C0C8010E94030A8823EC
:101AF00009F433CFEE2009F430CF20913902822F40
:101B000082958F7090E002970CF4B3CF80913302EE
:101B1000909134029A8389839C828B8280913702D0
:101B20008D831E822F83CE010196A1CF483C5105A3
:101B300008F040C0882309F44BC0FE2CEE2009F4C5
:101B40000CCF809134028D1127C0809133028C110B
:101B500023C09091390290FD16C0892F82958F7015
:101B6000282F30E02115310571F0D80196832F30F0
:101B7000310509F454CF8F5F982F9295907F86811D
:101B80008F70892B4ACF87E0F801A3E3B2E0019080
:101B90000D928A95E1F72DC0C8010E94030A8111B8
:101BA00068CF80913902816080933902C8010E9418
:101BB000A3091FC0682D9A8A898AA6017A899E2D59
:101BC0000E94100A87E0F50111928A95E9F732CF59
:101BD000FF24F3940EC083E392E00E94A309E3E3A1
:101BE000F2E087E0DF011D928A95E9F70E94C60BBB
:101BF000F12C8F2D6496ECE00C94A227AEE0B0E0BF
:101C0000E4E0FEE00C948F27288739874A875B87BA
:101C10006C877D878E87CE0108960E94500C8823A2
:101C200061F06C856623A9F1288539854A855B8535
:101C30007D858E850E941A0A2CC087E0FE013896A9
:101C4000DE01119601900D928A95E1F76C8566236D
:101C500001F12091FA0130E0C901019687709927BE
:101C60004091F90150E084179507E1F16D8397E009
:101C7000929FD001939FB00D1124A550BE4FFE013D
:101C8000319601900D929A95E1F78093FA010E94A6
:101C9000A40B17E08091F9019091FA01891779F16D
:101CA000189FC001112485509E4F0E94500C88231C
:101CB00031F1E091F9011E9FF0011124E550FE4F32
:101CC00020813181428153816481758186810E94A6
:101CD0001A0A8091F90190E0019687709927809304
:101CE000F901D8CF0E94E3091092FA011092F9018C
:101CF000E3E3F2E087E0DF011D928A95E9F72E9693
:101D0000E3E00C94AB270E945F20209148023091C1
:101D10004902821B930B9C0181E02838334108F46F
:101D200080E008958091470286958695869508956E
:101D300080914702877008950E945F20209144029D
:101D400030914502821B930B8838934140F080917B
:101D5000470282FB882780F991E0892701C080E053
:101D6000817008950E945F202091420230914302C9
:101D7000821B930B8838934128F081E090914602B2
:101D8000913009F080E08170089582E080934602EE
:101D900081E08093C0010E945F2090934302809372
:101DA00042022091440230914502232B21F090936E
:101DB0004502809344020895109246021092C00199
:101DC000109243021092420208958091460282309E
:101DD00019F481E08093460280914602833011F429
:101DE0000E94DC0E089580914602823019F483E04F
:101DF0008093460280914602813011F40E94DC0EED
:101E0000089590914702977081E009F480E0089569
:101E100080915502089590915502892B8093550227
:101E200008958095909155028923809355020895D5
:101E300010925502089590915402892B8093540278
:101E400008958095909154028923809354020895B7
:101E500010925402089580914B0208950E940F033E
:101E6000089560914A02962F9823891729F0682BCC
:101E700060934A020E942E0F089590914A02292FE2
:101E8000282339F0682F6095692360934A020E94E5
:101E90002E0F089508950E944A0F08950E944B0F37
:101EA0000895CF9390914B029823891779F0C82F0A
:101EB0000E945F20909349028093480280914B02D8
:101EC0008C2B80934B028C2F0E944E0FCF91089544
:101ED00090914B02292F282399F080958923809394
:101EE0004B02882319F00E945F2002C080E090E03E
:101EF000909349028093480280914B020E944E0FBA
:101F0000089580914B02882349F010924B02109261
:101F100049021092480280E00E944E0F0895CF932C
:101F2000DF93E0910001F0910101809155028083DF
:101F3000E0910001F0910101908180915402892B80
:101F4000808380914B028823B9F00E94830E811117
:101F50000E94810FE0910001F09101019081809138
:101F60004B02892B808380910001909101010E9496
:101F7000631F81110E94810FC0910001D091010166
:101F800048E050E06AE372E0CE010E94B727892B57
:101F900059F088E0FE01AAE3B2E001900D928A9523
:101FA000E1F7CE010E940E1FDF91CF9108950E94AC
:101FB0004A0F08959091390692FF17C098E0899FC3
:101FC00090011124262B209347020E94800A0E9430
:101FD0005F2090934502809344028091470286954A
:101FE000869586950E94D70F08950E94800A0895CD
:101FF00010924702109245021092440280E00E9423
:10200000D70F0895909147028095892380934702C6
:10201000282F277069F4981759F09091390692FF8C
:1020200007C08695869586950E94900A0E94F80FB3
:1020300008959091390692FB222720F9281769F01C
:1020400080FB92F990933906809138069091390679
:102050000E94611082E00E9402100895809139066A
:1020600082FB882780F991E089270E941910089542
:1020700081E00E941910089580E00E9419100895CF
:102080006FEF7FEF80E090E00E940928089580E0E4
:1020900090E00E94D52721E0863E9E4F09F020E087
:1020A000822F089582E090E00E94CD27089583E07A
:1020B00090E00E94CD27089584E090E00E94D5270B
:1020C0000895BC0184E090E00E9409280895AB01C6
:1020D000BC018FE090E00E94FD270895AB01BC0198
:1020E00083E190E00E94FD27089560E070E0CB015D
:1020F0000E946E10089560E070E0CB010E946710AE
:102100000E9475100895A8E0B0E0E9E8F0E10C94B1
:10211000902766EE7EEF80E090E00E94092860E064
:1021200082E090E00E94EB2760E083E090E00E9474
:10213000EB271092F8011092F70160E074E184E05F
:1021400090E00E94092860E086E090E00E94EB2782
:102150006FEF87E090E00E94EB2740E050E0BA018B
:1021600088E090E00E94FD2760E084E290E00E9419
:10217000EB2760E087E190E00E94EB2760E08CE0D5
:1021800090E00E94EB2760E08DE090E00E94EB275A
:1021900019821A821B821C821D821E821F8218864F
:1021A00048E050E068E170E0CE0101960E94DB2734
:1021B00040E050E0BA0180E290E00E94FD270E94DA
:1021C0007B102896E2E00C94AC270E9483100895BF
:1021D000682F8EE090E00E94EB270895A6E0B0E023
:1021E000E4EFF0E10C948E270E945F208C01809137
:1021F0005602909157020817190781F019821A8226
:102200000E945F20682F49815A81792F80E090E0F9
:102210000E94590510935702009356022696E4E057
:102220000C94AA270E94111460936A0270936B02A7
:1022300080936C0290936D026093660270936702C4
:102240008093680290936902089581E008950E9446
:10225000F915089508950E942A1108950E942A11DF
:1022600008950E942E1108950E942A1108950E9437
:10227000341108950E942A1108958BE294E10E947E
:10228000ED1E0E943A110E94371108950E942B11F1
:102290000E942A1108950E942E140E949704089506
:1022A0000E9456200E94EB130E9422160E945C1589
:1022B0000E944B110E941D180E942C160E94311181
:1022C00008950E94F91581110E94071A0895A6E049
:1022D000B0E0EDE6F1E10C9487270E942511811111
:1022E00003C00E94EE1053C00E94811588E5E82EBD
:1022F00082E0F82E670100E0F60111916F01802F56
:102300000E944C1481270F5F0E3019F08823A1F32F
:1023100002C0882331F380916E0281FD0E94521425
:102320000E942711A82E10E099249394812F0E94D7
:102330004C14B82EF701C080C82609F100E0DD2456
:10234000D3948C2D8D21A9F0AA2099F009831A83AA
:102350000E945F209C838B839D8291E08B2D8D2139
:1023600009F490E049815A816B817C818D810E94C2
:1023700059050F5FDD0C073021F7F701B0821F5FB1
:10238000FFEFEF1AFF0A1E3089F60E9412110E9419
:1023900061110E94AA042696EBE00C94A3270F93E8
:1023A0001F93CF93DF930E940C13EC01C11582E5BC
:1023B000D80708F04CC0C11590E5D90708F0EDC06A
:1023C000C03ED10530F5CD3CD10508F099C0C83AE2
:1023D000D10578F4C53AD10508F088C0C130D105DF
:1023E00009F481C008F4FEC0C430D10508F0FDC076
:1023F000F9C0C33CD10508F0F5C0C85AD0E0CC0FF5
:10240000DD1FCF59DE4F0990D881C02DCE019464D5
:10241000EDC0C11580E2D80750F4C11591E0D9078D
:1024200008F071C0C83ED10508F4DFC0DBC08E01E2
:102430001127C11580E4D80708F4C8C0C8010E945C
:102440000C13CC27DF70D06A8C2B9D2BCFC0C038EB
:1024500092E5D90728F5C03682E5D80708F078C09C
:10246000C03492E5D90708F061C0C03282E5D807D0
:1024700008F054C04C2F4695469590E2499FA00124
:102480001124C37021E030E0C90102C0880F991FF8
:10249000CA95E2F7EA01C82BD92BCE019D68A6C0E8
:1024A000C03C92E5D90768F48C2F8F71C03AD245B1
:1024B00008F062C090E0D82FCC27CE01846F906ADC
:1024C00095C0C03E82E5D80708F45FC0CE0196559E
:1024D0008F3F910511F008F085C0CE0199270E9429
:1024E0000C13906683C081E090E080C0C55AD0E0B4
:1024F000C956DE4F8881C82FD0E0CE01906476C0E7
:10250000CE01906573C08D2F0E94A813182FCE01A5
:1025100099270E940C131F71912B68C0CF71D0E0D6
:10252000DC2FCC27CE01816F906A60C08C2F8F7119
:102530008695869590E2899F90011124C37081E071
:1025400090E002C0880F991FCA95E2F79C6811C0FD
:102550008C2F8F718695869590E2899F900111242A
:10256000C37081E090E002C0880F991FCA95E2F71E
:102570009A68822B932B3AC00E94A8138F7190E027
:10258000D82FCC27CE01906231C0CF71DD27DC2F50
:10259000CC27CE01806F906A29C08C2F8F710E944A
:1025A000A81395E0D695C7959A95E1F7CF70D0E03E
:1025B000DC2FCC27282F30E084FF05C084E0220FD9
:1025C000331F8A95E1F7D069CE01D3CF8D2F8F715C
:1025D0000E94A813C82FC8010E940C13CF719062EB
:1025E0009C2B04C080E090E001C0CE01DF91CF9130
:1025F0001F910F9108957E3038F4673028F4462FEC
:10260000672F0E947103089580E090E008950E9472
:10261000FB120E94CF1108958238910569F1B0F440
:102620008133910509F475C048F48932910509F4A4
:1026300067C08A32910509F471C008958533910508
:1026400009F459C089339105B9F00895833E910585
:1026500089F138F4803E9105D1F0823E910529F14F
:102660000895863E9105C9F1873E9105D9F1843ED2
:10267000910509F06CC027C02091380620FD57C095
:1026800021FD55C02091390623FD5BC0089580913E
:10269000380680FD48C08091390680FF48C080918F
:1026A000380684FD46C083EE51C08091380682FF13
:1026B0003CC0F5CF8091380682FD37C08091390645
:1026C00080FD35C0ECCF8091390681FF36C0809106
:1026D000380684FD2EC087EE39C08091380683FF0E
:1026E0002AC0F5CF8091380683FD25C08091390638
:1026F00081FD23C0ECCF8091380685FD22C01FC02C
:102700008091380685FD1BC08091390683FF19C072
:102710000AC08091380686FD16C017C08091380621
:1027200086FD13C010C089E311C082EE0FC080EE99
:102730000DC080E00BC086EE09C084EE07C085E3C3
:1027400005C089E203C08AE201C081E390E00895F8
:102750009091380692FF0DC0282F2871283019F467
:10276000877F846006C0282F2471243011F48B7F6A
:10277000886093FF0DC0282F2871283119F4877EB7
:10278000846106C0282F2471243111F48B7E886166
:102790002091390620FF0DC0382F3871383019F4D8
:1027A000877F816006C0382F3171313011F48E7F00
:1027B000886021FF0DC0282F2871283119F4877EE9
:1027C000816106C0282F2171213111F48E7E88612C
:1027D00094FD877E0895109234061092350610926B
:1027E0003606109237060895CF92DF92EF92FF924D
:1027F0006B017C010E94F91581110EC00E946B20B3
:10280000C61AD70AE80AF90AC0923406D0923506E9
:10281000E0923606F0923706FF90EF90DF90CF906F
:1028200008950F931F930E94F915882319F00E94B1
:102830006B200EC00E946B2000913406109135066B
:102840002091360630913706600F711F821F931F4B
:102850001F910F91089580E0089508950E944710F8
:10286000811102C00E94E5100E94521080936E02F6
:102870000E945C1090933906809338060E942D14B4
:102880000E94571090E00E94330A8091F5019091C8
:10289000F6010E94510A0895E82FF0E0E75BF94F36
:1028A00080810895089580EA8A95F1F7089500C01F
:1028B00008950E945314089508950E945C14089589
:1028C0000E945D1408950E945C1408950E94631490
:1028D00008950E945C140895A7E0B0E0E2E7F4E1F7
:1028E0000C948D270E94F915609157068823E9F111
:1028F00087E0F82E8E010F5F1F4FF8018F2D119288
:102900008A95E9F7862F90E0B801875B994F0E947E
:102910003A16882389F080913A0690E047E050E02B
:10292000B801875B994F0E94B72721E020936F027F
:10293000892B61F410E016C080916F028823D1F3D7
:10294000F8011192FA94E9F710926F02A0913A06F9
:10295000B0E0A75BB94F87E0F80101900D928A952E
:10296000E1F711E00E9460140DC070E0675B794FE1
:1029700080913A0690E0875B994F0E94C3160E94AF
:10298000691410E0812F2796E5E00C94A927F894AC
:10299000E82FE295EF70F0E031A1282F2F7081E051
:1029A00090E001C0880F2A95EAF7982F909593231D
:1029B00091A392A1892B82A3789408950F931F93DA
:1029C000CF93DF93C1EAD1E089918F3F11F00E944C
:1029D000C71481E0C83AD807B9F7CAE9D1E001EADB
:1029E00011E089918F3F11F00E94C7140C171D0749
:1029F000C1F7DF91CF911F910F910895A0E0B0E052
:102A0000E4E0F5E10C948A278C01C62FD0E0CE01DA
:102A10008F559E4F7C01FC0190819F3F09F447C078
:102A2000D62EF894E92FE295EF70F0E081A19F7027
:102A300021E030E001C0220F9A95EAF7822B81A3B2
:102A400082A12095282322A378940E945714EAE9B2
:102A5000F1E041EA51E031E0C12C21912F3F89F0B2
:102A6000A22FA295AF70B0E090968C9190E02F705D
:102A700002C0959587952A95E2F780FD02C0832FC5
:102A800001C080E0C82A330F4E175F0731F7F70106
:102A900080818F3F11F00E94C71461E0C11001C016
:102AA00060E08D2D0E945914C00FD11FC882CDB790
:102AB000DEB7E8E00C94A627809102018091020124
:102AC000811102C097E001C090E09093570687E023
:102AD000891B80933A060E94DE148EE0E9E4F6E05A
:102AE000DF01982F1D929A95E9F7EBE3F6E0DF01FD
:102AF0001D928A95E9F787E00E94BF150E9466142F
:102B00000895AEE0B0E0E7E8F5E10C948D278E0182
:102B10000F5F1F4F8EE0F80111928A95E9F7F12CB3
:102B20006F2DC8010E94FE14F394F7E0FF12F8CF56
:102B30004EE050E0B8018BE396E00E94B72721E019
:102B4000009709F420E0892B41F08EE0F801ABE317
:102B5000B6E001900D928A95E1F76091570670E01A
:102B6000675B794F47E08BE396E00E94C015182F12
:102B70000E946C14812B2E96E5E00C94A9270895F1
:102B8000EF92FF920F931F93CF93DF937C018B0102
:102B9000C42F222349F081E0809372020E945F20BB
:102BA000909371028093700280917202811102C031
:102BB00080E01AC080917002909171020E9477208B
:102BC0000597B0F3D0E0AE01B701C8010E94B72766
:102BD000892B39F0AE01B701C8010E94C42781E0FA
:102BE00001C080E010927202CDB7DEB7E6E00C942F
:102BF000A827CF93DF9380917502811117C0C8EC8D
:102C0000D0E00E94742781110AC08FE39CE90197EC
:102C1000F1F700C000002197A1F782E001C081E038
:102C200080937502823011F40E946F2781E09091A9
:102C30007502913009F080E0DF91CF9108950E94F4
:102C4000F91508950E941F16809302010E94F9153C
:102C500081110E94721608950E94F915811102C017
:102C60000E947516089581E0909176029A3008F0DE
:102C700080E008950F931F93CF93DF93EC018B01B6
:102C8000809176028A3038F4B801CE010E94C016D5
:102C900081111DC00AC080917302909174020E943C
:102CA0007720843F914080F715C0809176028F3F56
:102CB00019F08F5F80937602809176028A3060F0FF
:102CC0000E945F20909374028093730203C010925D
:102CD000760202C080E001C081E0DF91CF911F91B8
:102CE0000F9108950E94871D08950E948A1D0895DE
:102CF000A0E0B0E0EEE7F6E10C948B277901C82F55
:102D0000880FDD0B41155105A9F0FE0193E0EE0F90
:102D1000FF1F9A95E1F7ED5FFE4F818192818958FF
:102D20009D4F208130E04217530708F49A01A90112
:102D30000E94C427CE010E94721ED82E8823D1F093
:102D400001151105B9F083E0CC0FDD1F8A95E1F77D
:102D5000FE01ED5FFE4F438150E00417150708F4B4
:102D6000A801CD5FDE4F6C817D8169587D4FC70121
:102D70000E94C4278D2DCDB7DEB7E7E00C94A727BE
:102D80000E94B51708950E94CC170895A4E0B0E002
:102D9000ECECF6E10C948E27609192027091930214
:102DA00080919402909195020E948620643671056C
:102DB0008105910528F10E941114DC01CB010296D6
:102DC000A11DB11D89839A83AB83BC8300E010E011
:102DD00020E030E044E050E0BE016F5F7F4F82E0D2
:102DE0000E947816182F882361F00E946B20609350
:102DF000920270939302809394029093950201C083
:102E000011E0812F2496E4E00C94AA27A0E0B0E022
:102E1000ECE0F7E10C9488277C015B016A010E94D9
:102E20003316811103C001E010E002C00AE010E097
:102E3000C1E0D0E0B501C701F6010995811115C0C7
:102E400021960C171D0794F0CC9F9001CD9F300D5B
:102E5000300D112480E090E045E34A95F1F7000041
:102E6000019682179307C1F7E5CF81E0CDB7DEB7B2
:102E7000EAE00C94A427A8E0B0E0E1E4F7E10C94C8
:102E800088277B01C090A801D090A90101E010E043
:102E90009E01285F3F4F40E050E060E070E080E03E
:102EA0000E947816182F882309F43EC056018FEF30
:102EB000A81AB80A60918E0270918F0280919002D8
:102EC000909191020E9486206436710581059105DA
:102ED00018F107E010E09E012F5F3F4F40E050E007
:102EE00060E070E081E00E947816182F67E070E0E3
:102EF000C5010E941E1891E02885281390E019232F
:102F000039F10E946B2060938E0270938F02809340
:102F100090029093910211C067E070E0C5010E9499
:102F20001E1898858913D5CF87E0F6013196DE010A
:102F3000119601900D928A95E1F7112349F087E0EF
:102F4000FE013196A7E8B2E001900D928A95E1F773
:102F500087E0E7E8F2E0D70101900D928A95E1F76A
:102F6000812F2896EAE00C94A4270F931F93CF9308
:102F7000DF93EC018B014BE357E10E940617882396
:102F800031F046EC56E1B801CE010E940617DF9100
:102F9000CF911F910F9108950F931F93CF93DF93BC
:102FA000C091A801D091A901CE01019627E0FB01B3
:102FB000DC0101900D922A95E1F767E070E00E9434
:102FC0001E188883688579858A859B850091830290
:102FD000109184022091850230918602601771075A
:102FE0008207930751F06093830270938402809369
:102FF0008502909386020E94F413DF91CF911F9176
:103000000F9108950E943D220E9450110E944A2271
:1030100008950E944F220E9467110E94692208951C
:103020000E94F61F0E9423220E943D110E94021856
:103030000E9409180E944611FBCF0895FC01680FF9
:10304000791F8FEF91E3E617F70771F0219182273F
:1030500028E030E087FF03C0880F892701C0880F70
:1030600021503109B9F7EFCF0895CF93DF93FC01D9
:10307000DB0115968C91882309F4DDC09F01305740
:103080002332310508F0D8C0EF010E945C10909304
:10309000390680933806FE01E150F047E232F1052F
:1030A00020F4E759FF4F0C947A278091380681600D
:1030B000AAC0809139068860B2C0809138068260CB
:1030C000A2C08091380620C08091380688609BC0DD
:1030D000809139061EC0809139068260A0C080911F
:1030E0003806806190C08091380680628CC08091E3
:1030F0003806806488C00E94E309809138068068A1
:1031000082C080913806886084607DC080913906D5
:103110008260816084C0809138068E7F74C0809107
:103120003906877F7CC0809138068D7F6CC0809186
:10313000380620C080913806877F65C080913906A7
:103140001EC0809139068D7F6AC0809138068F7EBF
:103150005AC0809138068F7D56C0809138068F7B8B
:1031600052C00E94E309809138068F774CC080914D
:103170003806877F8B7F47C0809139068D7F8E7F91
:103180004EC08091380682FB222720F991E09227D9
:1031900090FB82F990FB83F936C080913906982F15
:1031A000909591708E7F892B90FB81F938C080912A
:1031B000380686FB222720F991E0922790FB86F9BA
:1031C00022C00E94E3098091380687FB222720F95C
:1031D00091E0922790FB87F916C081E001C080E062
:1031E0000E94E8101EC08091380684FB222720F937
:1031F00091E0922790FB84F906C080913806982FC1
:10320000909590FB80F9809338060BC08091390629
:1032100083FB222720F991E0922790FB83F980938A
:10322000390680913806909139060E9461100E94FB
:10323000E30980E001C081E0DF91CF9108958832F9
:10324000910530F48E319105A8F4049770F00FC009
:103250008D32910561F018F48A9761F006C08C34C4
:10326000910541F08D32924029F080E0089582E08E
:103270000E941B0F81E00895A0E0B0E0E2E4F9E1D4
:103280000C948B27EC017B01C3378CE7D80749F4FA
:10329000FB011581112309F48AC00E94191A10E05C
:1032A00086C00E94080FD82E0E942B0F082F0E9464
:1032B000E619811102C011E07AC00E94DD19F70100
:1032C00015811123C1F30D290D7909F06EC0C03AA3
:1032D000F2E5DF0700F5C03682E5D80708F067C0E1
:1032E000C115E0E5DE0780F4C115F0E4DF0708F062
:1032F0004AC0C63ED10509F45AC008F44AC0C115F7
:1033000080E2D80710F545C0CE0192558034910572
:1033100008F03FC04CC0C115E7E5DE0780F4C115D9
:10332000F6E5DF0750F5C43B82E5D80709F43FC056
:1033300080F1CE01805C92458097C8F12AC0CE0111
:1033400087579C47029728F532C0F7018681807F16
:10335000F9F48D2F8F71823169F028F4823029F5CC
:10336000C1EED0E016C0843111F18631F1F4C6EE21
:10337000D2E10FC0C5EED0E00CC0CE01805F964513
:10338000079708F498CFF7018681807F09F493CFDF
:10339000DD270E94280FCE010E941F19C82F882305
:1033A00021F00E948F0F1C2F02C00E94FA19812F5A
:1033B000CDB7DEB7E7E00C94A7270E945F208857BF
:1033C0009C4E909397028093960208958091980264
:1033D000089508958091980281110BC00E94180FE2
:1033E0000E94810F0E94DD1981E0809398020E9463
:1033F000E919089580919802882341F082E20E94A1
:10340000C6091092980280E00E94E91908958091FF
:103410009802882369F00E945F20209196023091E3
:103420009702821B930B8F3F9F4710F40E94FA195B
:10343000089580919802882319F00E94FA1908953E
:103440000E94EA1908958B3109F469C058F58B3050
:1034500009F490C078F4863009F446C020F4853031
:1034600009F44CC08CC0873009F44BC0883009F493
:1034700081C085C0803109F465C068F48E3009F0E0
:103480007EC080916E0282FB222720F991E0922774
:1034900090FB82F94DC0863109F46CC0893109F482
:1034A00069C06DC08A32E9F060F4873209F464C003
:1034B00028F48E3108F463C08D514FC08932F1F089
:1034C0005EC0833450F48A3308F046C0853309F473
:1034D00053C0883309F44EC052C0833409F44CC041
:1034E0004EC00E94E51046C080916E02817F8E7FA3
:1034F00080936E0281E08093990208950E94E50313
:1035000039C080916E02982F9095917090FB80F950
:1035100080936E0291112EC0897F877F10C08091A9
:103520006E0281FB222720F991E0922790FB81F91E
:1035300080936E029923F1F080916E0281608093F6
:103540006E0218C080916E0283FB222720F991E061
:10355000922790FB83F9ECCF895321E030E0A90159
:1035600002C0440F551F8A95E2F7CA010E94330A30
:103570000E94E30981E0089581E090E0F7CF80E0C8
:10358000089580E008950E94C11A0895CF93DF93B3
:10359000C82F80919902882319F0813059F035C0E5
:1035A0000E94080FD82F0E942B0F8D2B827282321F
:1035B00071F509C00E94080FD82F0E942B0F8D2B88
:1035C0008272823261F48C2F0E94C31A811104C06E
:1035D0008C2F0E94231A17C081E090E014C08C2F1A
:1035E0000E94C11A81110EC0C43149F018F4CB30C9
:1035F00049F00FC0C93219F0C83321F00AC0109247
:10360000990207C081E0817006C01092990280E0A3
:1036100002C080E0F8CFDF91CF910895089508951A
:103620000E940F1B08950E940F1B089581E00895CA
:103630000F931F93CF93DF93EC018B01842F0E9494
:10364000131B0E94E3090E945B0A19830883DF9120
:10365000CF911F910F910895AF92BF92CF92DF92B9
:10366000EF92FF921F93CF93DF93EC016B01142F26
:10367000E090F501F090F6010E94E3090E945B0AD8
:1036800087E0180250011124CC15DD0531F0CE0180
:103690000E94A309CA0DDB1DF7CF0E94E309C701F1
:1036A0000E94540A812F0E94101BDF91CF911F911D
:1036B000FF90EF90DF90CF90BF90AF9008950F9361
:1036C0001F93CF93DF93EB01F8013581A881B98176
:1036D000311103C0A817B907D1F037E02302C001A8
:1036E0001124BD01681B790B4617570761F027E0CD
:1036F00001900D922A95E1F728813981820F931F5D
:103700009983888304C0BF01822F0E940E1BDF9122
:10371000CF911F910F910895CF92DF92EF92FF9278
:103720001F93CF93DF936C01EB01142F7901842F4A
:103730000E940F1B89EF1802A0011124CC15DD0592
:1037400059F4F701D183C083DF91CF911F91FF908E
:10375000EF90DF90CF900895FE01E40FF51F858173
:10376000882379F3EF01EACF0F931F93CF938B0157
:1037700020911C0621113BC0FB01C581C1118DC0E8
:103780008435FCE79F07F1F068F483359C4709F026
:1037900084C041E06AE972E08AE196E00E94181B69
:1037A00081E018C086354CE79407B9F087359C470F
:1037B00009F073C060911B0170911C014FEF83E110
:1037C00096E012C04FEF63E176E08AE196E00E9456
:1037D000181B82E080931C0663C060911D017091EC
:1037E0001E0141E08AE992E00E942C1B59C08335FA
:1037F000FCE79F0780F186353CE7930730F088357A
:103800004CE7940708F44BC026C031E085359C474F
:1038100009F430E0F8018581831709F440C02130B4
:1038200061F02230A9F460911A0670911B062BE119
:1038300031E04FEF83E196E009C060911A06709184
:103840001B062DE131E041E08AE992E00E948C1BE9
:1038500010921C0624C0B8010E94161BC82F882392
:10386000E1F080911C06813061F08230C9F4409112
:103870001D0150911E012FEF6AE176E083E196E091
:1038800009C040911B0150911C0121E06AE176E0E2
:103890008AE992E00E945F1B03C0C1E001C0C0E062
:1038A0008C2FCF911F910F910895CF93DF93863185
:1038B0009C4741F5EB010E94080F982F8D812091C4
:1038C000000130910101882379F09A7A81E009F4AE
:1038D00080E080931D06911102C069E201C065E39A
:1038E000C9010E94A51F0AC080911D06811102C056
:1038F00069E201C065E3C9010E94A81F0E948F0F01
:1039000080E001C081E0DF91CF9108950F931F9374
:10391000CF93DF93C42FD22FFC0185818823B1F090
:10392000409320060E945F2090931F0680931E06FE
:1039300080E28C0F883008F04DC0C77081E001C074
:10394000880FCA95EAF70E94E80644C080912006D5
:10395000481330C080911E0690911F060E94772068
:10396000883C910538F510E21D0FCD17B9F080E2C3
:103970008C0F883040F4C77081E001C0880FCA9571
:10398000EAF70E94EF06183010F581E09D2F97703E
:1039900001C0880F9A95EAF70E94E806802F0E94DE
:1039A000DE061830B8F4D77081E001C0880FDA95D0
:1039B000EAF70AC080E28C0F883060F4C77081E0BB
:1039C00001C0880FCA95EAF70E94EF0603C0802F56
:1039D0000E94DE06DF91CF911F910F9108950F9302
:1039E000FC01E851FC47E730F10590F5CB01E557C4
:1039F000FF4F0C947A2706E221EE41EE6AE17CE764
:103A000023C007E225EE45EE6BE17CE71DC006E230
:103A100021EE40EE68E17CE717C007E225EE44EEB8
:103A200069E17CE711C006E221EE42EE6CE17CE741
:103A30000BC007E225EE46EE6DE17CE705C008E22B
:103A400021E045EE6EE17CE70E94861C80E008C024
:103A5000FB018581882319F01092200601C081E0C6
:103A60000F9108958EE1499B02C08150E1F7499B77
:103A7000FECF0895599880E28A95F1F7599A0895F2
:103A8000FC012AE02A95F1F728E090E080E031E09F
:103A900040E14A95F1F7880F499B02C08160932766
:103AA00000C0000040E14A95F1F7215089F720E17C
:103AB0002A95F1F729B100C0000030E13A95F1F7FD
:103AC0002695217092272081920F90830895A1E07E
:103AD000B0E0EDE6FDE10C948C2719828C017C01AD
:103AE000E60EF11C0E151F0551F00E94321DCE018D
:103AF00001960E94401DF80181938F01F3CF81E070
:103B00009981911180E02196E6E00C94A827519AC2
:103B1000599A08955198599AE99AE9E6F0E0808116
:103B2000837F80830895615091E001C0990F6A9569
:103B3000EAF720E031E0992361F0492F482319F09A
:103B4000599A232701C0599840E24A95F1F7969572
:103B5000F2CF222311F0599A01C0599880E28A9538
:103B6000F1F759980895FF920F931F93CF93DF9326
:103B7000EC018C01060F111DC017D10741F0F9901F
:103B80000E943A1D68E08F2D0E94931DF5CFCDB79E
:103B9000DEB7E5E00C94A9271F920F920FB60F92A3
:103BA00011240F931F932F933F934F935F936F9322
:103BB0007F938F939F93AF93BF93EF93FF93CF9395
:103BC000DF931F92CDB7DEB719820E94321DCE015E
:103BD00001960E94401D082F069506950695902F88
:103BE00096959570202F2570920F292F237096950A
:103BF0009695920F877089135FC0898181115CC08F
:103C0000043008F059C080E18A95F1F7599A519A29
:103C100082E08A95F1F700C0599888E0089F8001FA
:103C20001124D801AD5FBE4F1696ED91FC91179708
:103C30003097A9F06091A8017091A90114962D9177
:103C40003C911597260F371F11968D919C911297D5
:103C5000680F791F13964C9113978C910995F80171
:103C6000ED5FFE4F6381662351F08091A801909132
:103C7000A90124813581820F931F0E94B31D0E94E8
:103C80003A1D80E18A95F1F759985198599A80E147
:103C90008A95F1F7F801ED5FFE4F6081662351F0E0
:103CA0008091A8019091A90121813281820F931FF7
:103CB0000E94671D0E94321D0F90DF91CF91FF91EE
:103CC000EF91BF91AF919F918F917F916F915F9194
:103CD0004F913F912F911F910F910F900FBE0F9019
:103CE0001F9018950F931F93CF93DF938430910506
:103CF0000CF06DC0EC01F894519A599885E08A95C2
:103D0000F1F700009C2F969595702C2F2570920F3F
:103D1000892F83709695969523E0CC0FDD1F2A9509
:103D2000E1F7980F8E01092B0E943A1D84E08A95D5
:103D3000F1F700C068E0802F0E94931D80E18A9512
:103D4000F1F75198599A499902C000C0FCCF87E019
:103D500090E0499B08C0019721F4519A599A7894B0
:103D600036C000C0F6CFFE01ED5FFE4F63816623D3
:103D700081F08091A8019091A90124813581820F61
:103D8000931F0E94671D811104C0519A599A78941B
:103D90001FC00E94321D80E28A95F1F75998519A0E
:103DA00080E18A95F1F7CD5FDE4F6881662351F09F
:103DB0008091A8019091A90129813A81820F931FD6
:103DC0000E94B31D0E943A1D789481E001C080E0FA
:103DD000DF91CF911F910F9108959093AB01809344
:103DE000AA010895909327068093260608950E94BD
:103DF000F915811103C0809121060895E0912606EE
:103E0000F0912706309729F00190F081E02D099577
:103E1000089580E008950E94F71E0895E091260617
:103E2000F0912706309721F00280F381E02D09956B
:103E30000895A3E0B0E0EFE1FFE10C94902720911A
:103E400024063091250628173907A1F090932506FE
:103E500080932406E0912606F0912706309751F0D2
:103E600023E029839B838A830680F781E02DCE019E
:103E7000019609952396E2E00C94AC27A3E0B0E00C
:103E8000E4E4FFE10C949027209122063091230670
:103E900028173907A1F09093230680932206E0911A
:103EA0002606F0912706309751F024E029839B8362
:103EB0008A830680F781E02DCE010196099523962D
:103EC000E2E00C94AC27FC01329697E080E0915040
:103ED00029F021912223D9F38F5FF9CF089566232A
:103EE00049F0FC01329608962191621729F0E817F3
:103EF000F907D1F780E0089581E008959C01FC0165
:103F000032969FEF80E04191461789F09F3F19F468
:103F1000411101C0982F8F5F8630A9F79F3F39F07C
:103F2000F901E90FF11D97FDFA956283089508954F
:103F30009C012A5F3F4FFC014281461301C012825F
:103F4000019682179307B9F708950E947E1F08957E
:103F50000E94981F0895029626E0FC0111922A956E
:103F6000E9F7089508950E94B21F089583E08093B1
:103F700028060E94B31F0895811102C081E001C08C
:103F800082E0809328060E94B31F08950E94BC1F00
:103F9000089581E0809328060E94B31F08950E942F
:103FA000C91F089508950E94D21F08950E94D31F2B
:103FB00008950E94D21F08950E94D21F08950E9462
:103FC000D21F0895CF930E94DC1F0E9481150E948A
:103FD000D91FC0E08C2F0E944C14811104C0CF5F08
:103FE000CE30C1F701C081E0CF91089585B78068D8
:103FF00085BF85B7806885BF08951F920F920FB661
:104000000F9211248F939F93AF93BF9380912906B2
:10401000811113C08091580690915906A0915A06BB
:10402000B0915B064196A11DB11D809358069093F7
:104030005906A0935A06B0935B06BF91AF919F912A
:104040008F910F900FBE0F901F9018958091600672
:10405000843031F10E9454041092290620E488E152
:1040600090E00FB6F894A895809360000FBE20935F
:10407000600083B7817F846083BF83B7816083BF23
:104080007894889583B78E7F83BF0FB6F894A895F0
:1040900080916000886180936000109260000FBE84
:1040A00008950E94E3090E945904089582E084BDA6
:1040B00093E095BD9AEF97BD80936E0008952FB75A
:1040C000F8948091580690915906A0915A06B091A3
:1040D0005B062FBF08952FB7F89460915806709132
:1040E000590680915A0690915B062FBF08959C0156
:1040F0004FB7F8948091580690915906A0915A06AE
:10410000B0915B064FBF821B930B0895CF92DF9255
:10411000EF92FF922FB7F894C0905806D0905906AE
:10412000E0905A06F0905B062FBFA7019601261B70
:10413000370B480B590BCA01B901FF90EF90DF9084
:10414000CF90089578941F920F920FB60F9211247A
:104150008F939F93AF93BF93809158069091590688
:10416000A0915A06B0915B060196A11DB11D8093E6
:10417000580690935906A0935A06B0935B06BF91D8
:10418000AF919F918F910F900FBE0F901F90189538
:1041900087E797E790930108809300089AE088E109
:1041A0000FB6F894A895809360000FBE90936000BE
:1041B000FFCF9AE088E10FB6F894A895809360004D
:1041C0000FBE90936000FFCF80913206089508954E
:1041D0009B01909160069430F1F48F708093E90018
:1041E0008FEF9091E800815095FD06C095ED9A956E
:1041F000F1F700008111F5CF8091E80085FF0BC039
:10420000BA01C90140E050E00E94E1228091E8003B
:104210008E778093E800089543E050E0BC0182E08F
:104220000E94E8200895CF93DF93EC0148E050E02E
:10423000BC0181E00E94E82088E0FE01AAE2B6E02D
:1042400001900D928A95E1F7DF91CF9108958091C9
:104250005F06811109C00E946C240E94C9248091CC
:10426000E20084608093E200089510925F06089552
:104270000E94CF1F089560915C0681E0611101C02A
:1042800080E00E94B61F08959091600681E094300E
:1042900009F080E060915C060E94BC1F089542E036
:1042A00061EC81E00E94E52342E261EC82E00E9441
:1042B000E5239091600681E0943009F080E0609100
:1042C0005C060E94C61F089580916206833009F43F
:1042D00061C030F4813071F0823009F49BC00895E0
:1042E0008A3009F487C08B3009F46CC0893009F03A
:1042F000A9C020C080916106813A09F0A3C08091D5
:10430000E800877F8093E8008091650690916606BB
:10431000892B21F468E08AE296E003C060E080E047
:1043200090E070E00E9426238091E8008B778093D4
:10433000E800089580916106813209F083C0809180
:10434000650690916606029708F07CC08091E800AF
:10435000877F8093E8008091E80082FD05C080910E
:1043600060068111F8CF6EC02091F3008091F200B9
:1043700090E0922B029731F48091F100813011F09E
:10438000863021F48091F100809332068091E8001C
:104390008B7754C080916106813A09F053C08091B7
:1043A000650690916606892B09F04CC08091E80063
:1043B000877F8093E8008091E80080FFFCCF8091A8
:1043C000270137C0809161068132E1F58091650651
:1043D00090916606892BB1F58091E800877F8093E4
:1043E000E8000E941A2480916306809327010E94AE
:1043F000E309089580916106813221F58091E800FA
:10440000877F8093E8000E941A248091640680933D
:104410003306089580916106813AA1F48091E80005
:10442000877F8093E8008091E80080FFFCCF809137
:1044300033068093F1008091E8008E778093E80046
:104440000E941A24089584B7877F84BF0FB6F8941A
:10445000A895809160008861809360001092600050
:104460000FBE90E080E80FB6F894809361009093BF
:1044700061000FBE0E94C91F08950E946C240E9413
:10448000C924E2EEF0E080818460808378940E9409
:10449000542708958FE191E00E94F21E08958091C3
:1044A00060068530A9F480916006853079F40E9419
:1044B000262080915E068823B1F30E94E21F8823A4
:1044C00091F30E94CB220E94E309EDCF0E9451207C
:1044D000089508959A0140916706509168060E94D8
:1044E00072220895492F552743305105C9F060F4D1
:1044F0004130510581F04230510509F044C08BE351
:1045000090E042E954E043C041325105E1F04232CB
:10451000510549F138C082E190E04DEC54E037C0DC
:1045200099278130910549F028F0029761F5E8E478
:10453000F4E005C0EEE8F4E002C0EEE7F4E08491B8
:1045400090E0AF0124C06115710541F06130710543
:10455000D1F489E090E04DEB54E019C089E090E09F
:1045600044EA54E014C06115710541F061307105F1
:1045700051F482E390E04FED54E009C080E490E014
:1045800041E155E004C080E090E040E050E0F901F6
:1045900051834083089580E189BD82E189BD09B4DA
:1045A00000FEFDCF8091D8008F7D8093D800809150
:1045B000E00082608093E0008091E00081FDFCCF0C
:1045C0000895A0E0B0E0E7EEF2E20C948A27EC0157
:1045D0008B017A010E943924811133C0E114F10466
:1045E00039F0F70180819181081B190BC80FD91F81
:1045F000C12CD12C0115110519F18091E80085FD20
:1046000016C08091E8008E778093E800E114F104F1
:1046100049F0F70180819181C80ED91ED182C082F4
:1046200085E00FC00E943924882321F30AC08991B4
:104630008093F10001501109FFEFCF1ADF0ADACFA2
:1046400080E0CDB7DEB7E8E00C94A627209167069E
:10465000309168062617370748F06115710539F45F
:104660002091E8002E772093E80001C0B901FC01F9
:1046700020E06115710579F1809160068823F1F1E0
:104680008530F1F18091E80083FD3CC08091E80025
:1046900082FD2EC08091E80080FFEBCF2091F300D7
:1046A0008091F20090E0922B6115710551F08830F5
:1046B000910538F421912093F10061507109019620
:1046C000F3CF21E0089709F020E08091E8008E7791
:1046D0008093E800CECF2111CFCF0AC08091600631
:1046E000882361F0853061F08091E80083FD0AC085
:1046F0008091E80082FFF2CF80E0089582E0089583
:1047000083E0089581E0089520916706309168065E
:104710002617370748F06115710539F42091E80034
:104720002E772093E80001C0B901FC0120E061155B
:10473000710591F180916006882309F440C08530AD
:1047400009F43FC08091E80083FD3DC08091E800FE
:1047500082FD2FC08091E80080FFE9CF2091F30017
:104760008091F20090E0922B6115710559F088302C
:10477000910540F424912093F10031966150710924
:104780000196F2CF21E0089709F020E08091E8003F
:104790008E778093E800CBCF2111CCCF0AC08091D7
:1047A0006006882361F0853061F08091E80083FD28
:1047B0000AC08091E80082FFF2CF80E0089582E095
:1047C000089583E0089581E00895982F973068F563
:1047D0009093E900981739F07091EC002091ED006A
:1047E0005091F00003C0242F762F50E021FD02C02D
:1047F0009F5FECCF3091EB003E7F3093EB00309128
:10480000ED003D7F3093ED003091EB00316030934F
:10481000EB007093EC002093ED005093F00020919A
:10482000EE0027FDE5CF80E008958F708093E900CA
:1048300081E008958091610687FF11C08091E800B2
:1048400082FD05C0809160068111F8CF11C0809172
:10485000E8008B770BC080916006882349F0809137
:10486000E80080FFF8CF8091E8008E778093E80021
:1048700008952091E4003091E50095E64091EC0028
:10488000842F817040FF23C08091E80080FD1DC00F
:1048900080916006882399F0853099F08091EB0033
:1048A00085FD11C04091E4005091E50024173507C3
:1048B00029F3915011F09A01E1CF84E0089582E04C
:1048C000089583E0089581E0089580E0089540917F
:1048D000E80042FFDDCF08950E94DB240E94E3241C
:1048E000E0EEF0E0808181608083E8EDF0E080819F
:1048F0008F77808319BCA7EDB0E08C918E7F8C936D
:1049000080818F7E808310925F0608950F931F939E
:10491000CF93DF930E94DB240E94E324C8EDD0E014
:1049200088818F77888388818068888388818F7D5C
:10493000888319BC1092600610925C0610925E0685
:1049400010925D0600EE10E0F80180818B7F80837D
:1049500088818160888342E060E080E00E94E523F6
:10496000E1EEF0E080818E7F8083E2EEF0E08081F6
:1049700081608083808188608083F80180818E7F60
:104980008083888180618883DF91CF911F910F910F
:104990000895E8EDF0E080818F7E8083E7EDF0E020
:1049A00080818160808384E082BF81E080935F06A4
:1049B0000E9486240895E8EDF0E080818E7F808358
:1049C0001092E20008951092DA001092E10008952A
:1049D0001F920F920FB60F9211242F933F934F9374
:1049E0005F936F937F938F939F93AF93BF93EF9357
:1049F000FF938091E10082FF0BC08091E20082FF73
:104A000007C08091E1008B7F8093E1000E945327D3
:104A10008091DA0080FF1FC08091D80080FF1BC00A
:104A20008091DA008E7F8093DA008091D90080FF38
:104A30000DC080E189BD82E189BD09B400FEFDCFD2
:104A400081E0809360060E94272105C019BC109266
:104A500060060E9435218091E10080FF19C080919D
:104A6000E20080FF15C08091E2008E7F8093E2001B
:104A70008091E20080618093E2008091D8008062A2
:104A80008093D80019BC85E0809360060E943B218A
:104A90008091E10084FF30C08091E20084FF2CC04F
:104AA00080E189BD82E189BD09B400FEFDCF80911E
:104AB000D8008F7D8093D8008091E1008F7E809315
:104AC000E1008091E2008F7E8093E2008091E2001D
:104AD00081608093E20080915C06882311F084E07D
:104AE00007C08091E30087FD02C081E001C083E040
:104AF000809360060E9444218091E10083FF29C0D9
:104B00008091E20083FF25C08091E100877F809340
:104B1000E10082E08093600610925C068091E100E3
:104B20008E7F8093E1008091E2008E7F8093E2008F
:104B30008091E20080618093E20042E060E080E0EA
:104B40000E94E5238091F00088608093F0000E942D
:104B50003821FF91EF91BF91AF919F918F917F91FC
:104B60006F915F914F913F912F910F900FBE0F90DA
:104B70001F9018951F920F920FB60F9211242F932A
:104B80003F934F935F936F937F938F939F93AF93D5
:104B9000BF93CF93DF93EF93FF93C091E900CF7062
:104BA0008091EC00D82FD17080FDD0E81092E90000
:104BB0008091F000877F8093F00078940E94FE251A
:104BC0001092E9008091F00088608093F000CD2B76
:104BD000CF70C093E900FF91EF91DF91CF91BF912A
:104BE000AF919F918F917F916F915F914F913F9185
:104BF0002F910F900FBE0F901F901895AAE2B0E072
:104C0000E4E0F6E20C948F27E1E6F6E08091F10013
:104C1000819326E0E936F207C9F70E94642180916A
:104C2000E80083FF2EC18091610690916206492FB2
:104C300050E04A30510508F024C1FA01EE56FF4F0A
:104C40000C947A27803821F0823809F01AC108C004
:104C500080915D0690915E06992389F082600FC075
:104C6000809165068F70873008F00BC18093E90052
:104C70008091EB0085FB882780F91092E9009091E4
:104C8000E800977F9093E8008093F1001092F10084
:104C9000D1C0282F2D7F09F0F4C0882319F082306D
:104CA00061F0EFC080916306813009F0EAC0933073
:104CB00009F080E080935E062EC08091630681112A
:104CC0002AC0809165068F702FEF280F263008F0DC
:104CD000D8C08093E9002091EB0020FF1CC09330E6
:104CE00021F48091EB00806214C09091EB00906100
:104CF0009093EB0021E030E0A90102C0440F551F62
:104D00008A95E2F74093EA001092EA008091EB0066
:104D100088608093EB001092E9008091E800877F23
:104D20008093E8000E941A24ACC08111AAC010919F
:104D300063061F778091E3008078812B8093E300E6
:104D40008091E800877F8093E8000E941A24809178
:104D5000E80080FFFCCF8091E30080688093E3004F
:104D6000111102C082E001C083E08093600689C017
:104D70008058823008F085C0809163069091640667
:104D80008C3D53E0950779F583E08A838AE2898335
:104D90004FB7F894DE01139620E03EE051E2E32F96
:104DA000F0E050935700E49120FF03C0E295EF70CC
:104DB0003F5FEF708E2F90E0EA3010F0C79601C091
:104DC000C0968D939D932F5F243149F74FBF8091FB
:104DD000E800877F8093E8006AE270E0CE010196E8
:104DE0000E94262316C06091650670916606AE018A
:104DF0004F5F5F4F0E946A22BC01892B09F441C0BA
:104E00009091E800977F9093E80089819A810E94B1
:104E100084238091E8008B778093E80032C080384B
:104E200081F58091E800877F8093E80080915C069F
:104E30008093F1008091E8008E7772CF811121C0BC
:104E4000809163069091640699270297D4F480912B
:104E5000E800877F8093E8008091630680935C067A
:104E60000E941A2480915C06811106C08091E300A3
:104E700087FD02C081E001C084E0809360060E944B
:104E80004F218091E80083FF0AC08091E800877F6E
:104E90008093E8008091EB0080628093EB00AA96FB
:104EA000E3E00C94AB270895CF93809160068823AC
:104EB000A1F0C091E900CF709091EC00892F817032
:104EC00090FD80E8C82B1092E9008091E80083FDF6
:104ED0000E94FE25CF70C093E900CF9108950E94F3
:104EE0006C241092600608958091E300881F882743
:104EF000881F0895EE0FFF1F0590F491E02D09948F
:104F00002F923F924F925F926F927F928F929F92D9
:104F1000AF92BF92CF92DF92EF92FF920F931F93C7
:104F2000CF93DF93CDB7DEB7CA1BDB0B0FB6F89478
:104F3000DEBF0FBECDBF09942A88398848885F84B8
:104F40006E847D848C849B84AA84B984C884DF8029
:104F5000EE80FD800C811B81AA81B981CE0FD11D0D
:104F60000FB6F894DEBF0FBECDBFED010895FB0173
:104F7000DC0104C08D910190801921F44150504012
:104F8000C8F7881B990B0895FB01DC0102C0019052
:104F90000D9241505040D8F70895F999FECF92BD37
:104FA00081BDF89A992780B50895A8E1B0E042E064
:104FB00050E00C941128DC01A40FB51F4150504063
:104FC00048F0CB01840F951F2E910E94EC27415091
:104FD0005040D0F70895262FF999FECF92BD81BD9C
:104FE000F89A019700B4021639F01FBA20BD0FB627
:104FF000F894FA9AF99A0FBE08950396272F0E9403
:10500000EC270E94EB27252F0E94EC27242F0C94DD
:10501000EC270196272F0E94EC270C94EB27DC014C
:10502000CB01FC01F999FECF06C0F2BDE1BDF89AB3
:10503000319600B40D9241505040B8F70895F8945D
:02504000FFCFA0
:105042004C02010000000100000000000000070106
:10505200000000040800000000000013069A02E4A9
:10506200201321E7200C2101E200E900EA00B5004B
:10507200B600B700CD008301CC008A0192019401F1
:105082002102230224022502260227022A02B30059
:10509200B4006F0070009F01CB019F02A0028182C9
:1050A20083E200E900EA00B500B600B700CD008354
:1050B20001CC008A019201940121022302240225DB
:1050C20002260227022A02B300B4006F0070009F7A
:1050D20001CB019F02A002818283F5F6F7313332C0
:0A50E2003690946697C634357702C5
:00000001FF
