:100000000C94AB020C94C8020C94AA200C94C80265
:100010000C94C8020C94C8020C94C8020C94C80238
:100020000C94C8020C94C8020C94D0250C94A226FF
:100030000C94291F0C94C8020C94C8020C94C8029A
:100040000C94C8020C94C8020C94C8020C94C80208
:100050000C94C8020C94CE1F0C94C8020C94C802D5
:100060000C94C8020C94C8020C94C8020C94C802E8
:100070000C94C8020C94C8020C94C8020C94C802D8
:100080000C94C8020C94C8020C94C8020C94C802C8
:100090000C94C8020C94C8020C94C8020C94C802B8
:1000A0000C94C8020C94C8020C94C80211081108E0
:1000B0003D083D08B7083A0ADF093A0AD3084B0958
:1000C0005D095D09EB090B0AF109F409FE09F9095B
:1000D000030AC81C3A1DD01C9A1C9E1CD41CA11CCF
:1000E000D71CE21CAC1C301DB01CE61CB41CEA1C66
:1000F000141DB81CEE1C1E1DBE1CF41CFE1CA51CF1
:10010000DB1CA81CDE1CC31CF91C0A1D2A1D2C1D8F
:10011000961CCC1C431DDD1DE31DD11DD71DE91D03
:10012000EF1DF51D0A2731272928312729287D278A
:10013000A0272928F7270628000001070207030740
:100140000407050706000001010802080308040867
:10015000050806010002010902090309040905094D
:1001600006020003010A020A030A040A050A06033A
:100170000004010402040304040405040604000549
:10018000010502050305040505050605000601062F
:100190000206030604060506060600070107020715
:1001A00003070407050706070008010802080308FB
:1001B00004080508060800090109020903090409E1
:1001C00005090609000A010A020A030A040A050AC7
:1001D000060A000B010B020B030B040B050B060BAD
:1001E000000C010C020C030C040C050C060C000D99
:1001F000010D020D030D040D050D060D29001E0055
:100200001F0020002100220045002B0414001A00CA
:100210000800150017002D002B0004001600070031
:1002200009000A002E00A2521D001B000600190042
:1002300005000000737C6252A85261522C004C00F1
:1002400000000000000000000000A452A1520000C5
:100250000000000000000000F056280000004400EC
:100260002300240025002600270035002F001C0055
:1002700018000C0012001300310030000B000D00BC
:100280000E000F0033003400000011001000360093
:1002900037003800B25200002A00280052005100F6
:1002A00050004F00000068006900000000000000DE
:1002B00000000000490046000000000000000000AF
:1002C00001003A003B003C003D003E0001000100FF
:1002D0000100010001000100010001000100010016
:1002E0000100010001000100010001000100010006
:1002F00001000100010000000100010001000100F7
:1003000001000100000000000000000000000100EA
:1003100001000000000000000000000001000100DA
:10032000000001003F004000410042004300010086
:1003300001000100010001000100010001000100B5
:1003400001000100010001000100010000000100A6
:100350000100010001000100010000000100010096
:100360000100010001000100000001000100000087
:10037000000000000000000001000100000000007B
:100380000000000001003A003B003C003D003E0040
:100390000100010063005F0060006100540056002E
:1003A000010062005C005D005E0055005700010026
:1003B000000059005A005B0000000000010001002D
:1003C000007C0100010001000000000000000000AE
:1003D000000001000100000000000000000000001B
:1003E00001000100000001003F0040004100420008
:1003F0004300000000004A004D00520000004B0086
:10040000000000000000500051004F0000000000FC
:1004100000004E000000000000000000010000008D
:1004200001000100537C567C547C577C0000010085
:1004300001000000000000000000000001000100B9
:10044000000000000000000034034400610063006D
:10045000740079006C002D004D0061006E00750085
:1004600066006F0072006D002000280035007800E3
:1004700036002B0033002B003200290000000E0351
:100480006A006500720076006900730000000403D2
:10049000090409023B00020100A0FA09040000015E
:1004A0000301010009211101000122440007058117
:1004B00003080001090401000103000000092111E3
:1004C0000100012232000705820320000112010011
:1004D00002000000084D44373520000102000105EC
:1004E000010980A101850319012AB700150126B76A
:1004F00000950175108100C0050C0901A10185045A
:1005000019012AA002150126A0029501751081008B
:10051000C005010906A101050719E029E715002515
:10052000019508750181029501750881010507197A
:100530000029FF150026FF009506750881000508B3
:1005400019012905150025019505750191029501EF
:1005500075039101C00011241FBECFEFDAE0DEBFAA
:10056000CDBF11E0A0E0B1E0E2E1F2E502C005900C
:100570000D92AC3AB107D9F726E0ACEAB1E001C080
:100580001D92A037B207E1F70E94E5180C940729E5
:100590000C9400008131910571F020F40B970597C0
:1005A00090F409C08C31910531F0843A22E592072C
:1005B000C1F0439741F4FB018581882391F081E0EC
:1005C0008093B0010EC08091B101882351F08091D9
:1005D000AE01811106C081E08093AE0184E00E94EB
:1005E000BE0781E00895CF93FC01C581CC2371F053
:1005F0008091B101811102C0C1E013C081E08093FC
:10060000AF01862F0E94C106C0E00BC01092B0015E
:100610008091AF01882381F31092AF01862F0E9451
:100620004B078C2FCF910895CF939C01CB012F3096
:10063000310509F476C0B8F42C30310509F468C0EE
:1006400038F42B30310509F075C06DE470E065C0F9
:100650002D30310509F45FC02E30310509F06AC034
:1006600061E570E05AC02C31310509F45DC058F4E1
:100670002131310509F45BC02331310509F05AC03D
:100680006BE470E04AC02932310521F0243A32454A
:1006900041F050C0FB01C581C1114DC00E94EB0F5C
:1006A00049C0FB01C581CC23A1F08681982F907FA2
:1006B00039F480FD09C081E08093B101C0E03BC006
:1006C0009031C9F580FF37C08091B0018111F3CF1F
:1006D00032C0C091AE01CC2329F01092B10110922A
:1006E000AE0129C08091B101882321F11092B1019E
:1006F0001092AE010E94DB0F82FF03C084E00E94D3
:10070000E40F84E00E943B1084E00E94101013C0AC
:1007100062E570E002C060E570E00E94F302C82F5D
:100720000AC06FE470E0F9CF6AE470E0F6CF6EE4DF
:1007300070E0F3CFC1E08C2FCF9108958131910506
:1007400029F120F40B97059750F408958C31910509
:10075000E9F0843A22E59207C9F04397B9F0809115
:10076000B101882399F08091AE01882379F010922D
:10077000AE010E94DB0F82FF03C084E00E94E40F01
:1007800084E00E943B1084E00E9410100895CF93F3
:10079000DF93C82FD62F8FE99FE00197F1F700C0B4
:1007A00000008C2F0E94C10661E070E08D2F0E9436
:1007B0009C078C2F0E944B07DF91CF910895CF9318
:1007C000DF93EC0162E00E94340B882339F00E9431
:1007D000211E80FD03C083E50E94B407CE010E9464
:1007E0006005813039F020F0823041F460E203C0CE
:1007F0006EE101C06FE18AE60E94C703CE01DF917E
:10080000CF9108950E941206882311F066E201C07C
:1008100067E28AE60E94C7030895CF93DF93C82F4B
:10082000D62F811114C06FE18BE60E94C70361E2ED
:100830008BE60E94C70363E28BE60E94C70365E272
:100840008BE60E94C70367E28BE60E94C703C1FFE5
:1008500006C0D1FF02C06EE121C06FE11FC0C5FF1D
:1008600006C0D5FF02C060E219C061E217C0C2FF36
:1008700006C0D2FF02C062E211C063E20FC0C0FF37
:1008800006C0D0FF02C064E209C065E207C0C3FF32
:1008900008C0D3FF02C066E201C067E28BE60E9497
:1008A000C703DF91CF9108958330B0F46E30A0F488
:1008B000473090F492E6899FF001112487E0689F09
:1008C000E00DF11D1124E40FF11DEE0FFF1FE450A8
:1008D000FE4F85919491089581E090E008950E94E3
:1008E0005404089581E008950E94CA0208950E9468
:1008F000140308950E949E030895A6E0B0E0E3E883
:10090000F4E00C94772849835A839E833091C40184
:1009100089819A81311115C03E81332359F02223F8
:1009200049F00E94180C182F682F89819A810E9423
:10093000F40B03C00E94060C182F69817A81812F65
:1009400004C00E94180C69817A810E94E1132696E6
:10095000E3E00C949328FC01262F408151816281B1
:100960007381848195810E947D040895CF93DF93E4
:10097000EC0161E00E94AB04BE010E947404DF91AF
:10098000CF910895CF93DF93EC0160E00E94AB0418
:10099000BE010E947A04DF91CF91089581E008950D
:1009A0000E94CE040895CF93C82F0E94B70A8C2FBF
:1009B0000E94D0042FEF84E39CE0215080409040BF
:1009C000E1F700C00000CF91089581E00E94D304B8
:1009D0000E94F41F089580E00E94D3040E94052025
:1009E00008950F931F93CF93DF938C0161E00E94D2
:1009F000AB04EC01B8010E94C21B882309F450C06B
:100A0000B801CE010E947704882309F449C0B801D7
:100A1000CE010E941419882309F442C0B801CE0106
:100A20000E94C51D8823E1F1B801CE010E94721C0D
:100A30008823B1F1B801CE010E94481C882381F1BE
:100A4000F8018581882341F1C3308CE7D807D1F0C4
:100A500040F4C115FCE7DF0791F0C130DC47A1F09D
:100A60001BC0CB35ECE7DE07A9F0CC35FCE7DF0790
:100A700071F0CA35DC4781F40E9403110DC00E9459
:100A8000E5040EC00E940B110E94EB0409C00E94F5
:100A9000F91002C00E940711C8010E94720401C02F
:100AA00080E0DF91CF911F910F9108950E94021F66
:100AB0000E94A30508950E94A7050E940B1F089598
:100AC000292F33272115310519F0C90148E001C04C
:100AD00040E09C0164E0369527956A95E1F7211581
:100AE000310511F04C5FC9019C013695279536956B
:100AF00027952115310511F04E5FC9019C013695EE
:100B00002795232B09F04F5F842F0895089581E0E6
:100B100008950895CF93DF93D82F0E948705C82F9B
:100B2000882319F08D2F0E9489058C2FDF91CF919A
:100B300008950895CF93C82F0E9486058C2F0E9498
:100B40008A05CF91089580E00E949A0508950E9439
:100B50000D1E0E949A050895CF930E940D1EC82F66
:100B60008091B201C81779F0C093B2010E94971F1B
:100B70006093B3017093B4018093B5019093B60173
:100B80008C2F0E949A05CF910895442319F08091EB
:100B9000C60108959C0143E0369527954A95E1F7F3
:100BA000FB01E20FF31F9C012770332781E090E0E7
:100BB00001C0880F2A95EAF79081982381E009F413
:100BC00080E008959C0153E0369527955A95E1F70A
:100BD000DC01A770BB2781E090E001C0880FAA95D7
:100BE000EAF7FB01E20FF31F442319F09081892BF0
:100BF00003C08095908189238083089581E080934C
:100C0000C6010E94020408951092C6010E940204C7
:100C100008959091C60181E089278093C6010E94C2
:100C2000020408958091C6010895A0E0B0E0EBE1D0
:100C3000F6E00C947228FC0184818130B9F5818141
:100C40008E30A0F5C081C73088F58F01C82ED12C19
:100C5000D0E07E0197E0899FE00CF11C11244581D2
:100C600067EB71E0C7010E94C5058823C9F087E0E2
:100C70008C9DF0018D9DF00D1124CE0FDF1FCC0F48
:100C8000DD1FFE01E75CFE4FE491D8011196EC9365
:100C9000FE01E85CFE4FC491F801C08341E001C051
:100CA00040E067EB71E0C7010E94E205CDB7DEB717
:100CB000E8E00C948E28ADE0B0E0E1E6F6E00C94BC
:100CC0007628488759876A877B878C879D8791110B
:100CD0000E94FB0F8C85882321F0CE0108960E948C
:100CE00015068E010F5F1F4F87E0F80111928A955C
:100CF000E9F786E0FE013896D80101900D928A95B9
:100D0000E1F780913C0682FF11C00E946F0F88239B
:100D100019F082E00E94CD100E94560F81110E94AE
:100D200054100E94850F81110E94AF0F8D81811197
:100D30000AC029813A814B815C816D817E818F81DE
:100D40000E94D10E05C0C8010E94B6048111F1CFE6
:100D50002D96E4E00C949228CF93FC01C481C1301D
:100D600071F4808191810E944A0C92959F70963017
:100D700031F4863F21F00E940906C093C501CF914E
:100D80000895CF93882309F484C0C82F8238A1F432
:100D90000E94211E81FD7DC089E30E94C31E0E9426
:100DA0009F102FEF87EE93E0215080409040E1F7B5
:100DB00000C0000089E315C08338C1F40E94211EE1
:100DC00080FD67C083E50E94C31E0E949F102FEF25
:100DD00081EE94E0215080409040E1F700C0000097
:100DE00083E50E94CB1E0E949F1053C08438A1F45B
:100DF0000E94211E82FD4DC087E40E94C31E0E94F6
:100E00009F102FEF81EE94E0215080409040E1F759
:100E100000C0000087E4E5CF8CEF8C0F813A98F496
:100E20008C2F0E949E1A811134C08C2F0E94881E24
:100E3000882329F08C2F0E94CB1E0E949F108C2F9C
:100E40000E94C31ED0CF80E28C0F883048F4C77058
:100E500081E001C0880FCA95EAF70E94DE0FC3CF78
:100E6000EBE5EC0FE33040F4F0E0E05AFE4F808118
:100E700090E00E942F1E0DC0C85ACB3150F4EC2FC9
:100E8000F0E0EE0FFF1FE65DFE4F808191810E9432
:100E9000541ECF910895882309F44DC0823859F427
:100EA0000E94211E81FF47C089E30E94C31E0E9449
:100EB0009F1089E30CC0833879F40E94211E80FFC3
:100EC0003AC083E50E94C31E0E949F1083E50E94E2
:100ED000CB1E0E949F100895843859F40E94211E51
:100EE00082FF29C087E40E94C31E0E949F1087E4EE
:100EF000EECF9CEF980F913A50F390E2980F983014
:100F000050F4877091E001C0990F8A95EAF7892F14
:100F10000E94E40FDECF9BE5980F933028F480E029
:100F200090E00E942F1E0895885A8B3120F480E0B3
:100F300090E00E94541E08951F93CF93DF93182FC3
:100F4000EB010E94C106209741F08FE99FE00197D5
:100F5000F1F700C000002197F6CF812F0E944B07C8
:100F6000DF91CF911F910895893319F060E070E00F
:100F700002C060E570E00E949C070895882321F07C
:100F80000E94DE0F0E949F100895882321F00E9486
:100F9000E40F0E949F100895A0E0B0E0E2EDF7E0BA
:100FA0000C9471286C01EB01FC011581F680F29420
:100FB0009FE0F9220E94D40F882319F1112309F12F
:100FC0008D2F807F803481F090E29C0F9830C8F0A4
:100FD0009D2F907E903221F4C23098F0FF2089F04E
:100FE000803611F4C63F69F080913C0682FF09C04B
:100FF00082E00E94CD100E94D40F91E0E82EE926F5
:1010000001C0E12CBD2EB2948FE0B8228B2D90E070
:101010008C30910508F02EC2FC01EA5AFF4F0C9467
:1010200062280D2F0F708D2F807F11F00295007FA9
:10103000112399F0002309F4A3C180E28C0F8830BA
:1010400010F0C11104C0802F0E94DE0F03C0802F5A
:101050000E94EE0F0E949F1093C18C2F0E944B079D
:10106000002309F407C280E28C0F883048F1CC23BA
:1010700039F1802F0E94F40F26C00D2F0F708D2F95
:10108000807F803211F00295007FCC2321F0C130A7
:1010900009F448C053C080913C0682FD17C011235B
:1010A00049F0002329F0802F0E94DE0F0E949F103C
:1010B00080E067C180E00E944B07002309F4DAC199
:1010C000802F0E94E40F0E949F10D4C11123B1F021
:1010D000FF20C1F1F1E0FF1204C0802F0E94241014
:1010E000C9C122E0F212C6C1802F0E94BE07802F24
:1010F0000E943B10802F0E940410BCC1FF2041F0D1
:1011000081E0F812B7C10E94DB0F802309F4B2C15D
:10111000802F0E94C507802F0E943B10802F0E94C5
:101120001010A8C1112329F095E09F1508F4A2C161
:1011300009C0E4E0EF1508F49DC115C0112331F09A
:10114000F1101EC1802F0E94BE0794C1FF2059F0EC
:10115000C93309F02BC1FFEF27EE83E0F1502040A7
:101160008040E1F721C1802F0E94C50783C18D2FE8
:1011700086958695837019F0813059F07BC11123D3
:1011800019F0CE01937002C080E090E00E942F1E03
:1011900079C1112319F0CE01937002C080E090E074
:1011A0000E94541E6FC18D2F8370B9F5111166C155
:1011B0004C2F429546954770440F440F8C2F8F70EB
:1011C00090E09C01042E02C0220F331F0A94E2F724
:1011D000C4FF0AC08FE090E002C0880F991F4A95B3
:1011E000E2F78095909502C080E090E04D2F469503
:1011F00046954370822B932B423049F058F441308E
:1012000019F00E94130B3AC10E940A0B37C10E94C9
:101210001C0B34C10E94070B31C1112319F08D2F13
:10122000817001C08695882309F428C14C2F42950E
:1012300046954770440F440F8C2F8F7090E09C01AF
:10124000042E02C0220F331F0A94E2F7C4FF0AC023
:101250008FE090E002C0880F991F4A95E2F78095D1
:10126000909502C080E090E04D2F469546954370E2
:10127000822B932B423049F058F4413019F00E94F0
:101280008F0BFCC00E94860BF9C00E94980BF6C021
:101290000E94280BF3C00D2F0F70112339F0802FFF
:1012A0000E94540B8C2F0E94BE07E8C08C2F0E9416
:1012B000C507802F0E94640BE1C0C23FD9F028F41B
:1012C000C03F41F0C13F51F157C0C33FC9F0C43FD7
:1012D00009F152C0112329F094E09F1508F4CAC007
:1012E00004C0E5E0EF1508F4C5C08D2F8F710E9492
:1012F000760BC0C08D2F8F71112309F447C05CC0DD
:10130000112329F08D2F8F710E94480BB3C00E94CA
:101310002F0BB0C080913C0682FD06C08D2F8F71CF
:10132000112309F449C032C01123B9F00E946B0F98
:10133000843039F40E94C3108D2F8F710E94640B8A
:1013400098C0F1E0FF1508F494C00D2F0F71802FA5
:101350000E94540B63E0802F08C021E02F1540F459
:101360000E94C31064E08D2F8F710E94A51081C070
:1013700081E00E94CD107DC0112359F0FF2021F0A3
:101380008C2F0E94C10676C08D2F8F710E94540B46
:1013900071C0FF2079F0C93349F48FEF97EEE3E095
:1013A00081509040E040E1F700C000008C2F0E9487
:1013B0004B0760C08D2F8F710E94640B5BC08C2F18
:1013C00090E0FC01E05FF109E730F10588F5EE59A6
:1013D000FF4F0C946228112309F45DC00E94090696
:1013E00051C01093C6014EC081E081278093C60191
:1013F00049C0111147C00E94FE054DC0111142C0E5
:101400000E94040648C0112319F00E94980F3AC0A8
:101410000E94B80F40C0112339F08091C501882384
:10142000E9F21092C5012EC0F4E0FF15A0F1D6CF6D
:101430008091C501FF20A1F0882321F00E940906B8
:101440001092C5018C2F112319F00E94C1061AC0F9
:101450000E944B0787E0F60111928A95E9F71BC0BD
:10146000882381F011110EC00E9409061092C50157
:1014700012C0E12C88EF8B0D843020F40E940D1EE9
:101480000E949A05112339F0D07FD03611F4C63F5F
:1014900011F00E94C60FEE2089F00E946B0F80FDB4
:1014A0000DC0F60115820E94650F0E94540BC60103
:1014B0000E947B0A0E94650F0E94640BCDB7DEB7C5
:1014C000E9E00C948D280F931F93CF93DF93EC01E9
:1014D000688179818D810E94550C8C010E94A10B3D
:1014E0000E94F80AB801CE010E94CC07DF91CF918B
:1014F0001F910F910895CF93DF93FC012481222344
:10150000D1F0EC010E94F10481110FC00E94D40FB0
:10151000882389F08D81882371F080913C0682FFB9
:101520000AC082E00E94CD1006C0CE010E94630A6C
:10153000CE010E94C204DF91CF910895882321F04B
:101540000E94F40F0E949F10089580E090E00E9496
:101550002F1E80E090E00E94541E0E94FB0F0E940C
:101560009F1008950E94D31E0E94A50A08950E940C
:10157000EB0F0E94B20A089592959F70963079F011
:1015800010F4925001C09A50923068F4803F69F094
:1015900018F4883E40F409C0843F29F406C0883E10
:1015A00020F0813F11F080E0089581E00895FC0172
:1015B0002481222339F0808191810E944A0C0E946B
:1015C000BC0A089580E00895A6E0B0E0EAEEFAE0F3
:1015D0000C9478282696E2E00C949428A7E0B0E0DA
:1015E000E4EFFAE00C9478282796E2E00C94942833
:1015F000089508950E94F90A08950E94FA0A08952C
:101600000E94FD0A9093FE018093FD0108950E94BF
:10161000000B08952091FD013091FE01822B932B48
:101620000E94000B08952091FD013091FE0182235C
:1016300093230E94000B08952091FD013091FE013B
:10164000822793270E94000B08950E94DF030895CC
:101650000E94250B9093FC018093FB01089580E08C
:1016600090E00E94280B0895009721F481E0662302
:1016700071F00CC021E030E002C0220F331F6A95E8
:10168000E2F72823392381E0232B09F480E0089531
:1016900021E030E0A90102C0440F551F8A95E2F70E
:1016A000CA010E94280B089521E030E002C0220FF9
:1016B000331F8A95E2F78091FB019091FC01822B08
:1016C000932B0E94280B089521E030E002C0220FE6
:1016D000331F8A95E2F7209530958091FB01909118
:1016E000FC01822393230E94280B089521E030E01F
:1016F00002C0220F331F8A95E2F78091FB0190917F
:10170000FC01822793270E94280B08952091FB015A
:101710003091FC01822B932B0E94280B089520917D
:10172000FB013091FC01822393230E94280B089532
:101730002091FB013091FC01822793270E94280B06
:1017400008950895962F9770A1E001C0AA0F9A9569
:10175000EAF793E0769567959A95E1F7660F771F1C
:10176000660F771FFA01E60FF71F40E050E0682F81
:1017700070E090819B01042E02C0369527950A9453
:10178000E2F72170219529272A23292721934F5FEA
:101790005F4F4430510569F70895FB01782F77704A
:1017A00023E0969587952A95E1F7880F991F880F72
:1017B000991FE80FF91F40E050E080E0219130E0F0
:1017C000072E02C0369527950A94E2F72170332739
:1017D000042E01C0220F0A94EAF7822B4F5F5F4F5D
:1017E0004430510559F70895282F9E3070F4873002
:1017F00060F4862F622F70E027E0929F600D711DCC
:10180000112447EC51E00E94A20B08959E3070F421
:10181000873060F4292F90E067EC71E037E0239F78
:10182000800D911D11240E94CD0B089580E0089534
:10183000A0E0B0E0EEE1FCE00C9471287C010091A6
:10184000FB011091FC018091FD019091FE01082B9C
:10185000192BCFE0D0E0CC24C394D12CC6010C2EA0
:1018600002C0880F991F0A94E2F780239123892BE5
:1018700021F4219798F7B12C07C0BC2EB7018C2F0B
:101880000E94ED130197A9F38B2DCDB7DEB7E9E0E8
:101890000C948D28CF93DF93EC010E94180CBE01AD
:1018A0000E94ED13DF91CF9108951F93CF93DF93A3
:1018B000EB019091C401992321F0CB010E944A0CC5
:1018C00013C0882349F0CB010E94180C182F682FF1
:1018D000CE010E94F40B04C0CB010E94060C182F0D
:1018E000BE01812F0E94ED13DF91CF911F910895CA
:1018F0001F93CF93DF93C091FF0117E08091000207
:10190000C817A1F0D0E01C9FF0011D9FF00D11241D
:10191000EF5FFD4F20813181428153816481758168
:1019200086810E94EE0A2196C770E8CFDF91CF91A1
:101930001F9108952091390230913A0240913B0263
:1019400050913C0260913D0270913E0280913F02B5
:101950000E94EE0A0895CF93DF9380913F02829513
:101960008F7009F04EC080913E02882309F449C06F
:101970008091FF014091000250913A02609139023A
:10198000C0913B02D0913C0277E08417D1F190E006
:10199000789FF001799FF00D1124DF01AF5FBD4FFB
:1019A00014962C911497222349F111962C9111979A
:1019B000251324C02C91261321C015962C91159720
:1019C00021111CC012962D913C9113972C1B3D0B9D
:1019D000283C310598F480913F028F70806180939C
:1019E0003F02E95FFD4F80818F708061808389E3D2
:1019F00092E00E947B0A0E94780C03C001968770D7
:101A0000C4CFDF91CF9108952091FF019091000202
:101A100057E02917A9F030E0529FF001539FF00DD5
:101A20001124EF5FFD4F7181761306C0708178132A
:101A300003C07581741306C02F5F3F4F2770E9CF35
:101A400080E0089581E00895A4E1B0E0EAE2FDE0DD
:101A50000C946E288C0186E0F801DE011F9601903F
:101A60000D928A95E1F7D80114968C9114971596EA
:101A7000EC9099E3A92E92E0B92E90913D0291113C
:101A800018C0882309F486C1EE20D9F1C8010E944C
:101A9000D70AF82E8823A9F187E0F801D501019033
:101AA0000D928A95E1F7C5010E94AC060E94AB0C2D
:101AB0006EC1F801C080D18082809380F0903E0298
:101AC00020913B0230913C02A401421B530BFF20AA
:101AD00009F400C1483C510508F0ACC0882309F462
:101AE0005BC180913F02282F207F90913A022223F0
:101AF00061F09D1509F46DC0C8010E94D70A8111DB
:101B000070C0C8010E947B0A45C19D1116C090910A
:101B100039029C1112C0E11010C08F708061809357
:101B20003F020E949A0C89E392E00E947B0A809116
:101B30003F02D80116968C9317C0E11044C040E0D4
:101B40006D2D8C2D0E94040DE82E882379F089E3F9
:101B500092E00E947B0AE9E3F2E087E0DF011D9258
:101B60008A95E9F70E949A0CF12C16C1CF86D88A83
:101B70008F8598890E944A0C292F22952F70243036
:101B800020F49F70223028F009C02A50223080F0C3
:101B900014C0992349F0811107C013C0992321F083
:101BA000F8019681907F69F0805E883030F409C03A
:101BB000803F38F0815F833020F0C8010E947B0AAB
:101BC000EF2CFE2CE9C080913F02816080933F02A0
:101BD000CBCF909139029C118FCFE1108DCFD801DE
:101BE000A4C0EE2009F48DCF20913F02822F829570
:101BF0008F7090E002978CF08091390290913A02B8
:101C0000998788879B868A8680913D028C871D866E
:101C10002E87CE0108960E947B0A87E0F801A9E38F
:101C2000B2E001900D928A95E1F70E94AB0C0E9400
:101C30009A0CB0C090913F02292F207F91F4682D1B
:101C40009A8A898AA6017A899E2D0E94E40A89E3EC
:101C500092E00E947B0A87E0F50111928A95E9F7EC
:101C600081CF882309F498C080913A028D1110C069
:101C7000809139028C110CC0E1100AC09683C80112
:101C80000E947B0A87E0F50111928A95E9F784C0EA
:101C9000C8010E94D70A882309F433CFEE2009F443
:101CA00030CF20913F02822F82958F7090E0029773
:101CB0000CF4B3CF8091390290913A029A838983D0
:101CC0009C828B8280913D028D831E822F83CE0168
:101CD0000196A1CF483C510508F04CC0882309F477
:101CE00059C0FE2CEE2009F40CCF80913A028D11E0
:101CF00033C0809139028C112FC090913F0290FD2A
:101D000022C0892F82958F70282F30E02115310550
:101D1000D1F0D80196832F30310549F08F5F982F8D
:101D20009295907F86818F70892B16968C93C8012F
:101D30000E947B0A87E0F801A9E3B2E001900D92CE
:101D40008A95E1F724C087E0F801A9E3B2E00190A9
:101D50000D928A95E1F720C0C8010E94D70A81112F
:101D60005CCF80913F02816080933F02C8010E9456
:101D70007B0A12C0682D9A8A898AA6017A899E2DCB
:101D80000E94E40A87E0F50111928A95E9F70E9422
:101D90009A0C02C0FF24F3948F2D6496ECE00C940F
:101DA0008A28AEE0B0E0E7EDFEE00C9477282887C3
:101DB00039874A875B876C877D878E87CE01089637
:101DC0000E94240D882361F06C856623A9F1288583
:101DD00039854A855B857D858E850E94EE0A2CC0FB
:101DE00087E0FE013896DE01119601900D928A95EA
:101DF000E1F76C85662301F12091000230E0C90112
:101E00000196877099274091FF0150E0841795074C
:101E1000E1F16D8397E0929FD001939FB00D112463
:101E2000AF5FBD4FFE01319601900D929A95E1F79B
:101E3000809300020E94780C17E08091FF0190913E
:101E40000002891779F1189FC00111248F5F9D4FFF
:101E50000E94240D882331F1E091FF011E9FF001C3
:101E60001124EF5FFD4F20813181428153816481D4
:101E7000758186810E94EE0A8091FF0190E00196B3
:101E8000877099278093FF01D8CF0E94B70A1092DC
:101E900000021092FF01E9E3F2E087E0DF011D920A
:101EA0008A95E9F72E96E3E00C9493280E948B1F05
:101EB00020914E0230914F02821B930B9C0181E0D6
:101EC0002838334108F480E0089580914D028695CA
:101ED00086958695089580914D02877008950E9499
:101EE0008B1F20914A0230914B02821B930B883842
:101EF000934140F080914D0282FB882780F991E068
:101F0000892701C080E0817008950E948B1F209175
:101F1000480230914902821B930B8838934128F084
:101F200081E090914C02913009F080E08170089539
:101F300082E080934C0281E08093C6010E948B1F57
:101F4000909349028093480220914A0230914B02BB
:101F5000232B21F090934B0280934A020895109214
:101F60004C021092C6011092490210924802089544
:101F700080914C02823019F481E080934C02809170
:101F80004C02833011F40E94AF0F089580914C02EF
:101F9000823019F483E080934C0280914C028130AE
:101FA00011F40E94AF0F089590914D02977081E057
:101FB00009F480E0089580915B02089590915B029E
:101FC000892B80935B020895809590915B02892311
:101FD00080935B02089510925B02089590915A02DB
:101FE000892B80935A020895809590915A028923F3
:101FF00080935A02089510925A02089580915102D6
:1020000008950E940D04089560915002962F982320
:10201000891729F0682B609350020E9401100895DF
:1020200090915002292F282339F0682F6095692359
:10203000609350020E940110089508950E941D109F
:1020400008950E941E100895CF93909151029823F5
:10205000891779F0C82F0E948B1F90934F028093AD
:102060004E02809151028C2B809351028C2F0E9442
:102070002110CF91089590915102292F282399F092
:102080008095892380935102882319F00E948B1F29
:1020900002C080E090E090934F0280934E028091C6
:1020A00051020E942110089580915102882349F025
:1020B0001092510210924F0210924E0280E00E9444
:1020C000211008950F931F93CF93DF930091000188
:1020D00010910101C0915B0280915A02C82B80913E
:1020E0005102882369F00E94560F81110E945410FA
:1020F00080915102C82B0E94791E81110E945410B8
:10210000F801C083C0910001D091010148E050E086
:1021100060E472E0CE010E949F28892B59F088E08C
:10212000FE01A0E4B2E001900D928A95E1F7CE01A4
:102130000E94241EDF91CF911F910F9108950E945C
:10214000621008950E941D10089590913C0692FF20
:1021500017C098E0899F90011124262B20934D02EF
:102160000E94540B0E948B1F90934B0280934A0253
:1021700080914D028695869586950E94A2100895BD
:102180000E94540B089510924D0210924B0210922F
:102190004A0280E00E94A210089590914D0280951D
:1021A000892380934D02282F277069F4981759F0DE
:1021B00090913C0692FF07C08695869586950E9471
:1021C000640B0E94C310089590913C0692FB222755
:1021D00020F9281769F080FB92F990933C068091D2
:1021E0003B0690913C060E942C1182E00E94CD108B
:1021F000089580913C0682FB882780F991E0892729
:102200000E94E410089581E00E94E410089580E0A7
:102210000E94E41008956FEF7FEF80E090E00E944D
:10222000F128089580E090E00E94BD2821E0863EDC
:102230009E4F09F020E0822F089582E090E00E94F6
:10224000B528089583E090E00E94B528089584E0C1
:1022500090E00E94BD280895BC0184E090E00E94B7
:10226000F1280895AB01BC018FE090E00E94E528C1
:102270000895AB01BC0183E190E00E94E528089538
:1022800060E070E0CB010E943911089560E070E0D9
:10229000CB010E9432110E9440110895A8E0B0E0E5
:1022A000E4E5F1E10C94782866EE7EEF80E090E0C2
:1022B0000E94F12860E082E090E00E94D32881E053
:1022C00090E09093FE018093FD0161E083E090E057
:1022D0000E94D32860E074E184E090E00E94F1283D
:1022E00060E086E090E00E94D32860E087E090E024
:1022F0000E94D32840E050E0BA0188E090E00E94BC
:10230000E52860E084E290E00E94D32860E087E165
:1023100090E00E94D32860E08CE090E00E94D328F7
:1023200060E08DE090E00E94D32819821A821B821F
:102330001C821D821E821F82188648E050E068E1E0
:1023400070E0CE0101960E94C32840E050E0BA013F
:1023500080E290E00E94E5280E9446112896E2E083
:102360000C9494280E944E110895682F8EE090E0FE
:102370000E94D3280895A6E0B0E0E1ECF1E10C94CE
:1023800076280E948B1F8C0180915C0290915D02E7
:102390000817190781F019821A820E948B1F682F73
:1023A00049815A81792F80E090E00E945B0610936A
:1023B0005D0200935C022696E4E00C9492280E9451
:1023C0000315609370027093710280937202909370
:1023D000730260936C0270936D0280936E0290930F
:1023E0006F02089581E008950E94E9160895089506
:1023F0000E94F71108950E94F71108950E94FB11A1
:1024000008950E94F71108950E94011208950E94F4
:10241000F71108958DE195E10E94F2180E940712CC
:102420000E94041208950E94F8110E94F711089565
:102430000E941211811102C00E94B2110E941D114E
:10244000809374020E94271190933C0680933B0670
:102450000E94221190E00E94070B8091FB01909155
:10246000FC010E94250B08950E94821F0E94DD142A
:102470000E94EF160E942F160E9418120E949905C2
:102480000E94E61A0E9401170E94FE1108950E9400
:10249000E91681110E94DF190895A6E0B0E0E3E596
:1024A000F2E10C946F280E94F211811103C00E9486
:1024B000BB1153C00E9454168EE5E82E82E0F82E20
:1024C000670100E0F60111916F01802F0E941F1536
:1024D00081270F5F0E3019F08823A1F302C08823F3
:1024E00031F38091740281FD0E9425150E94F41140
:1024F000A82E10E099249394812F0E941F15B82EC6
:10250000F701C080C82609F100E0DD24D3948C2DAA
:102510008D21A9F0AA2099F009831A830E948B1FAC
:102520009C838B839D8291E08B2D8D2109F490E01B
:1025300049815A816B817C818D810E945B060F5F8E
:10254000DD0C073021F7F701B0821F5FFFEFEF1AB4
:10255000FF0A1E3089F60E94DF110E9447120E9476
:10256000AC052696EBE00C948B280F931F93CF932A
:10257000DF930E94F213EC01C11582E5D80708F041
:102580004CC0C11590E5D90708F0EDC0C03ED1059B
:1025900030F5CD3CD10508F099C0C83AD10578F4A2
:1025A000C53AD10508F088C0C130D10509F481C011
:1025B00008F4FEC0C430D10508F0FDC0F9C0C33C2A
:1025C000D10508F0F5C0C85AD0E0CC0FDD1FCD59B9
:1025D000DE4F0990D881C02DCE019464EDC0C115A5
:1025E00080E2D80750F4C11591E0D90708F071C016
:1025F000C83ED10508F4DFC0DBC08E011127C1152C
:1026000080E4D80708F4C8C0C8010E94F213CC27A0
:10261000DF70D06A8C2B9D2BCFC0C03892E5D907D4
:1026200028F5C03682E5D80708F078C0C03492E5B6
:10263000D90708F061C0C03282E5D80708F054C05D
:102640004C2F4695469590E2499FA0011124C370F6
:1026500021E030E0C90102C0880F991FCA95E2F756
:10266000EA01C82BD92BCE019D68A6C0C03C92E5DB
:10267000D90768F48C2F8F71C03AD24508F062C038
:1026800090E0D82FCC27CE01846F906A95C0C03ED1
:1026900082E5D80708F45FC0CE0196558F3F9105BB
:1026A00011F008F085C0CE0199270E94F2139066C0
:1026B00083C081E090E080C0C55AD0E0C756DE4FAD
:1026C0008881C82FD0E0CE01906476C0CE0190659D
:1026D00073C08D2F0E948E14182FCE0199270E944F
:1026E000F2131F71912B68C0CF71D0E0DC2FCC2783
:1026F000CE01816F906A60C08C2F8F718695869510
:1027000090E2899F90011124C37081E090E002C0A3
:10271000880F991FCA95E2F79C6811C08C2F8F71A2
:102720008695869590E2899F90011124C37081E07F
:1027300090E002C0880F991FCA95E2F79A68822B31
:10274000932B3AC00E948E148F7190E0D82FCC2723
:10275000CE01906231C0CF71DD27DC2FCC27CE01B6
:10276000806F906A29C08C2F8F710E948E1495E023
:10277000D695C7959A95E1F7CF70D0E0DC2FCC279E
:10278000282F30E084FF05C084E0220F331F8A9594
:10279000E1F7D069CE01D3CF8D2F8F710E948E14B7
:1027A000C82FC8010E94F213CF7190629C2B04C005
:1027B00080E090E001C0CE01DF91CF911F910F9199
:1027C00008957E3038F4673028F4462F672F0E9432
:1027D0006F04089580E090E008950E94E1130E9444
:1027E000B51208958238910569F1B0F481339105ED
:1027F00009F475C048F48932910509F467C08A323A
:10280000910509F471C008958533910509F459C003
:1028100089339105B9F00895833E910589F138F423
:10282000803E9105D1F0823E910529F10895863EC2
:102830009105C9F1873E9105D9F1843E910509F0D2
:102840006CC027C020913B0620FD57C021FD55C01C
:1028500020913C0623FD5BC0089580913B0680FDDE
:1028600048C080913C0680FF48C080913B0684FDB3
:1028700046C083EE51C080913B0682FF3CC0F5CF3D
:1028800080913B0682FD37C080913C0680FD35C0BB
:10289000ECCF80913C0681FF36C080913B0684FDE1
:1028A0002EC087EE39C080913B0683FF2AC0F5CF4A
:1028B00080913B0683FD25C080913C0681FD23C0AD
:1028C000ECCF80913B0685FD22C01FC080913B0666
:1028D00085FD1BC080913C0683FF19C00AC0809112
:1028E0003B0686FD16C017C080913B0686FD13C0CF
:1028F00010C089E311C082EE0FC080EE0DC080E0F1
:102900000BC086EE09C084EE07C085E305C089E2EE
:1029100003C08AE201C081E390E0089590913B06F4
:1029200092FF10C041E0282F2471243009F040E0CC
:1029300031E0282F2871283009F030E0431711F0DA
:102940002CE0822793FF10C041E0282F247124310E
:1029500009F040E031E0282F2871283109F030E0FB
:10296000431711F02CE0822730913C0630FF10C055
:1029700051E0282F2171213009F050E041E0282F4B
:102980002871283009F040E0541711F029E082271F
:1029900031FF10C041E0282F2171213109F040E0C2
:1029A00031E0282F2871283109F030E0431711F069
:1029B00029E0822794FD877E089510923D061092AB
:1029C0003E0610923F06109240060895CF92DF9285
:1029D000EF92FF926B017C010E94E91681110EC0FB
:1029E0000E94971FC61AD70AE80AF90AC0923D0644
:1029F000D0923E06E0923F06F0924006FF90EF90A4
:102A0000DF90CF9008950F931F930E94E9168823BB
:102A100019F00E94971F0EC00E94971F00913D065B
:102A200010913E0620913F0630914006600F711FC5
:102A3000821F931F1F910F91089580E00895E82F42
:102A4000F0E0E05BF94F80810895089580EA8A956F
:102A5000F1F7089500C008950E942615089508957D
:102A60000E942F1508950E94301508950E942F1579
:102A700008950E94361508950E942F150895A7E025
:102A8000B0E0E5E4F5E10C9475280E94E916609148
:102A90005E068823E9F187E0F82E8E010F5F1F4F55
:102AA000F8018F2D11928A95E9F7862F90E0B801F1
:102AB000805B994F0E940F17882389F0809141060F
:102AC00090E047E050E0B801805B994F0E949F285A
:102AD00021E020937502892B61F410E016C08091EB
:102AE00075028823D1F3F8011192FA94E9F7109254
:102AF0007502A0914106B0E0A05BB94F87E0F801F4
:102B000001900D928A95E1F711E00E9433150DC0F6
:102B100070E0605B794F8091410690E0805B994F57
:102B20000E9498170E943C1510E0812F2796E5E03F
:102B30000C949128F894E82FE295EF70F0E031A121
:102B4000282F2F7081E090E001C0880F2A95EAF7C6
:102B5000982F9095932391A392A1892B82A3789487
:102B600008950F931F93CF93DF93C3EAD1E0899128
:102B70008F3F11F00E949A1581E0CA3AD807B9F741
:102B8000CCE9D1E003EA11E089918F3F11F00E9476
:102B90009A150C171D07C1F7DF91CF911F910F9167
:102BA0000895A0E0B0E0E7EDF5E10C9472288C0107
:102BB000C62FD0E0CE018D559E4F7C01FC01908147
:102BC0009F3F09F447C0D62EF894E92FE295EF70A5
:102BD000F0E081A19F7021E030E001C0220F9A95C2
:102BE000EAF7822B81A382A12095282322A378943F
:102BF0000E942A15ECE9F1E043EA51E031E0C12CF2
:102C000021912F3F89F0A22FA295AF70B0E090964E
:102C10008C9190E02F7002C0959587952A95E2F7E8
:102C200080FD02C0832F01C080E0C82A330F4E17F9
:102C30005F0731F7F70180818F3F11F00E949A15ED
:102C400061E0C11001C060E08D2D0E942C15C00F05
:102C5000D11FC882CDB7DEB7E8E00C948E288091F2
:102C6000020180910201811102C097E001C090E051
:102C700090935E0687E0891B809341060E94B11500
:102C80008EE0E0E5F6E0DF01982F1D929A95E9F7D6
:102C9000E2E4F6E0DF011D928A95E9F787E00E9401
:102CA00092160E9439150895AEE0B0E0EAE5F6E12B
:102CB0000C9475288E010F5F1F4F8EE0F801119262
:102CC0008A95E9F7F12C6F2DC8010E94D115F39474
:102CD000F7E0FF12F8CF4EE050E0B80182E496E052
:102CE0000E949F2821E0009709F420E0892B41F001
:102CF0008EE0F801A2E4B6E001900D928A95E1F72A
:102D000060915E0670E0605B794F47E082E496E098
:102D10000E949316182F0E943F15812B2E96E5E0F6
:102D20000C9491280895EF92FF920F931F93CF93E5
:102D3000DF937C018B01C42F222351F081E080932B
:102D400078020E948B1F909377028093760204C0D2
:102D500080917802811102C080E01AC080917602D1
:102D6000909177020E94A31F0597B0F3D0E0AE01C7
:102D7000B701C8010E949F28892B39F0AE01B70125
:102D8000C8010E94AC2881E001C080E01092780266
:102D9000CDB7DEB7E6E00C9490281F93CF93DF9376
:102DA000C8ECD0E00E945C28182F81110AC08FE384
:102DB0009CE90197F1F700C00000219799F70E9464
:102DC0005728812FDF91CF911F91089580917C0228
:102DD000089580917B0208950E94E91608950E944B
:102DE000CD1680937B020E94EC1680937C020E9499
:102DF000E616809302010E94E91681110E9447178E
:102E000008950E94E916811102C00E944A17089590
:102E100081E090917D029A3008F080E008950F9350
:102E20001F93CF93DF93EC018B0180917D028A3059
:102E300038F4B801CE010E94951781111DC00AC057
:102E40008091790290917A020E94A31F843F914061
:102E500080F715C080917D028F3F19F08F5F8093BE
:102E60007D0280917D028A3060F00E948B1F9093DA
:102E70007A028093790203C010927D0202C080E042
:102E800001C081E0DF91CF911F910F9108950E94C1
:102E9000652008950E9468200895A0E0B0E0E3E571
:102EA000F7E10C9473287901C82F880FDD0B4115C9
:102EB0005105A9F0FE0193E0EE0FFF1F9A95E1F78F
:102EC000ED5FFE4F8181928182589D4F208130E0DD
:102ED0004217530708F49A01A9010E94AC28CE01B9
:102EE0000E945021D82E8823D1F001151105B9F088
:102EF00083E0CC0FDD1F8A95E1F7FE01ED5FFE4F09
:102F0000438150E00417150708F4A801CD5FDE4F98
:102F10006C817D8162587D4FC7010E94AC288D2D48
:102F2000CDB7DEB7E7E00C948F280E948A18089589
:102F30000E94A1180895A4E0B0E0E1EAF7E10C9442
:102F400076286091990270919A0280919B029091EB
:102F50009C020E94B21F643671058105910528F11B
:102F60000E940315DC01CB010296A11DB11D8983CE
:102F70009A83AB83BC8300E010E020E030E044E0C3
:102F800050E0BE016F5F7F4F82E00E944D17182F07
:102F9000882361F00E94971F6093990270939A02B0
:102FA00080939B0290939C0201C011E0812F249694
:102FB000E4E00C949228A0E0B0E0E1EEF7E10C949C
:102FC00070287C015B016A010E940817811103C00F
:102FD00001E010E002C00AE010E0C1E0D0E0B5017D
:102FE000C701F6010995811115C021960C171D071F
:102FF00094F0CC9F9001CD9F300D300D112480E0D6
:1030000090E045E34A95F1F7000001968217930797
:10301000C1F7E5CF81E0CDB7DEB7EAE00C948C28AC
:10302000A8E0B0E0E6E1F8E10C9470287B01C090E4
:10303000AA01D090AB0101E010E09E01285F3F4F54
:1030400040E050E060E070E080E00E944D17182FF3
:10305000882309F43EC056018FEFA81AB80A609180
:1030600095027091960280919702909198020E9429
:10307000B21F643671058105910518F107E010E073
:103080009E012F5F3F4F40E050E060E070E081E044
:103090000E944D17182F67E070E0C5010E94E71AE3
:1030A00091E02885281390E0192339F10E94971F99
:1030B0006093950270939602809397029093980282
:1030C00011C067E070E0C5010E94E71A9885891376
:1030D000D5CF87E0F6013196DE01119601900D9271
:1030E0008A95E1F7112349F087E0FE013196AEE8B9
:1030F000B2E001900D928A95E1F787E0EEE8F2E008
:10310000D70101900D928A95E1F7812F2896EAE088
:103110000C948C280F931F93CF93DF93EC018B01BA
:1031200040E158E10E94DB17882331F04BE957E179
:10313000B801CE010E94DB17DF91CF911F910F9153
:1031400008950F931F93CF93DF93C091AA01D0915D
:10315000AB01CE01019627E0FB01DC0101900D924D
:103160002A95E1F767E070E00E94E71A8883688596
:1031700079858A859B8500918A0210918B02209126
:103180008C0230918D02601771078207930751F00E
:1031900060938A0270938B0280938C0290938D02CD
:1031A0000E94E614DF91CF911F910F9108950E9424
:1031B00025230E9434120E94322308950E9437234F
:1031C0000E944D120E94512308950E94221F0E94C6
:1031D0000B230E940A120E94D7180E94DE180E9438
:1031E0001312FBCF9093AD018093AC010895883208
:1031F000910530F48E319105A8F4049770F00FC05A
:103200008D32910561F018F48A9761F006C08C3414
:10321000910541F08D32924029F080E0089582E0DE
:103220000E94EE0F81E00895A0E0B0E0EAE1F9E14C
:103230000C947328EC017B01C3378CE7D80749F461
:10324000FB011581112309F48AC00E94F11910E0D5
:1032500086C00E94DB0FD82E0E94FE0F082F0E940E
:10326000BE19811102C011E07AC00E94B519F701A0
:1032700015811123C1F30D290D7909F06EC0C03AF3
:10328000F2E5DF0700F5C03682E5D80708F067C031
:10329000C115E0E5DE0780F4C115F0E4DF0708F0B2
:1032A0004AC0C63ED10509F45AC008F44AC0C11547
:1032B00080E2D80710F545C0CE01925580349105C3
:1032C00008F03FC04CC0C115E7E5DE0780F4C1152A
:1032D000F6E5DF0750F5C43B82E5D80709F43FC0A7
:1032E00080F1CE01805C92458097C8F12AC0CE0162
:1032F00087579C47029728F532C0F7018681807F67
:10330000F9F48D2F8F71823169F028F4823029F51C
:10331000C1EED0E016C0843111F18631F1F4C6EE71
:10332000D2E10FC0C5EED0E00CC0CE01805F964563
:10333000079708F498CFF7018681807F09F493CF2F
:10334000DD270E94FB0FCE010E94F718C82F8823AB
:1033500021F00E949F101C2F02C00E94D219812FC1
:10336000CDB7DEB7E7E00C948F280E948B1F8857FB
:103370009C4E90939E0280939D02089580919F029F
:103380000895089580919F0281110BC00E94EB0F58
:103390000E9454100E94B51981E080939F020E9400
:1033A000C119089580919F02882341F082E20E9412
:1033B0009E0A10929F0280E00E94C1190895809198
:1033C0009F02882369F00E948B1F20919D023091FB
:1033D0009E02821B930B8F3F9F4710F40E94D219CD
:1033E000089580919F02882319F00E94D2190895B0
:1033F0000E94C21908958B3109F469C058F58B30C9
:1034000009F490C078F4863009F446C020F4853081
:1034100009F44CC08CC0873009F44BC0883009F4E3
:1034200081C085C0803109F465C068F48E3009F030
:103430007EC08091740282FB222720F991E09227BE
:1034400090FB82F94DC0863109F46CC0893109F4D2
:1034500069C06DC08A32E9F060F4873209F464C053
:1034600028F48E3108F463C08D514FC08932F1F0D9
:103470005EC0833450F48A3308F046C0853309F4C3
:1034800053C0883309F44EC052C0833409F44CC091
:103490004EC00E94B21146C080917402817F8E7F1F
:1034A0008093740281E08093A00208950E94E50455
:1034B00039C080917402982F9095917090FB80F99B
:1034C0008093740291112EC0897F877F10C08091F4
:1034D000740281FB222720F991E0922790FB81F969
:1034E000809374029923F1F080917402816080933B
:1034F000740218C08091740283FB222720F991E0A6
:10350000922790FB83F9ECCF895321E030E0A901A9
:1035100002C0440F551F8A95E2F7CA010E94070BAB
:103520000E94B70A81E0089581E090E0F7CF80E043
:10353000089580E008950E94991A0895CF93DF932B
:10354000C82F8091A002882319F0813059F035C02E
:103550000E94DB0FD82F0E94FE0F8D2B82728232C9
:1035600071F509C00E94DB0FD82F0E94FE0F8D2B32
:103570008272823261F48C2F0E949B1A811104C0E6
:103580008C2F0E94FB1917C081E090E014C08C2F93
:103590000E94991A81110EC0C43149F018F4CB3041
:1035A00049F00FC0C93219F0C83321F00AC0109297
:1035B000A00207C081E0817006C01092A00280E0E6
:1035C00002C080E0F8CFDF91CF9108950895FC010B
:1035D000680F791F8FEF91E3E617F70771F02191DC
:1035E000822728E030E087FF03C0880F892701C0C9
:1035F000880F21503109B9F7EFCF08950895089544
:103600000E94FF1A08950E94FF1A089581E008950C
:103610000F931F93CF93DF93EC018B01842F0E94B4
:10362000031B0E94B70A0E942F0B19830883DF91A6
:10363000CF911F910F910895AF92BF92CF92DF92D9
:10364000EF92FF921F93CF93DF93EC016B01142F46
:10365000E090FB01F090FC010E94B70A0E942F0B42
:1036600087E0180250011124CC15DD0531F0CE01A0
:103670000E947B0ACA0DDB1DF7CF0E94B70AC70163
:103680000E94280B812F0E94001BDF91CF911F9178
:10369000FF90EF90DF90CF90BF90AF9008950F9381
:1036A0001F93CF93DF93EB01F8013581A881B98196
:1036B000311103C0A817B907D1F0F7E02F02C001FC
:1036C0001124BD01681B790B4617570761F037E0DD
:1036D000F80101900D923A95E1F748815981840FE4
:1036E000951F99838883B801822F0E94FE1ADF916B
:1036F000CF911F910F910895CF92DF92EF92FF9299
:103700001F93CF93DF936C01EB01142F7901842F6A
:103710000E94FF1A89EF1802A0011124CC15DD05C3
:1037200059F4F701D183C083DF91CF911F91FF90AE
:10373000EF90DF90CF900895FE01E40FF51F858193
:10374000882379F3EF01EACF8091A102813061F003
:103750008230A9F46091A2027091A3022BE131E0C2
:103760004FEF8DE196E009C06091A2027091A30233
:103770002DE131E041E084EA92E00E947C1B10924E
:10378000A10208950F931F93CF938B012091A10263
:1037900021113BC0FB01C581C11172C08435FCE71A
:1037A0009F07F1F068F483359C4709F069C041E058
:1037B00064EA72E082EA92E00E94081B81E018C08D
:1037C0008635ECE79E07B9F087359C4709F058C06D
:1037D00060911B0170911C014FEF8DE196E012C0CA
:1037E0004FEF6DE176E082EA92E00E94081B82E0F2
:1037F0008093A10248C060911D0170911E0141E0BB
:1038000084EA92E00E941C1B3EC083352CE792079D
:10381000A8F086353CE7930728F08835ECE79E074B
:1038200088F10CC021E085359C4709F420E0F801BF
:103830008581821739F10E94A41B24C0B8010E941F
:10384000061BC82F8823E1F08091A102813061F02E
:103850008230C9F440911D0150911E012FEF62EAA0
:1038600072E08DE196E009C040911B0150911C016E
:1038700021E062EA72E084EA92E00E944F1B03C0FA
:10388000C1E001C0C0E08C2FCF911F910F9108952E
:10389000CF93DF9386319C4709F5EB010E94DB0F44
:1038A0009D81992371F08A7A91E009F490E09093D8
:1038B0002406811102C089E201C085E30E94C31E73
:1038C00009C080912406811102C089E201C085E30C
:1038D0000E94CB1E0E949F1080E001C081E0DF911A
:1038E000CF910895CF93DF93FC01DB0115968C9166
:1038F000882309F4DDC09F0130572332310508F0D9
:10390000D8C0EF010E94271190933C0680933B069C
:10391000FE01E150F047E232F10520F4E759FF4F94
:103920000C94622880913B068160AAC080913C067D
:103930008860B2C080913B068260A2C080913B0645
:1039400020C080913B0688609BC080913C061EC0D1
:1039500080913C068260A0C080913B06806190C04F
:1039600080913B0680628CC080913B06806488C059
:103970000E94B70A80913B06806882C080913B0616
:10398000886084607DC080913C068260816084C0D4
:1039900080913B068E7F74C080913C06877F7CC0FF
:1039A00080913B068D7F6CC080913B0620C080914A
:1039B0003B06877F65C080913C061EC080913C0617
:1039C0008D7F6AC080913B068F7E5AC080913B06F6
:1039D0008F7D56C080913B068F7B52C00E94B70AF4
:1039E00080913B068F774CC080913B06877F8B7F11
:1039F00047C080913C068D7F8E7F4EC080913B06F4
:103A000082FB222720F991E0922790FB82F990FB1C
:103A100083F936C080913C06982F909591708E7FE7
:103A2000892B90FB81F938C080913B0686FB2227C9
:103A300020F991E0922790FB86F922C00E94B70AF4
:103A400080913B0687FB222720F991E0922790FB8B
:103A500087F916C081E001C080E00E94B5111EC048
:103A600080913B0684FB222720F991E0922790FB6E
:103A700084F906C080913B06982F909590FB80F9C1
:103A800080933B060BC080913C0683FB222720F9E4
:103A900091E0922790FB83F980933C0680913B064E
:103AA00090913C060E942C110E94B70A80E001C050
:103AB00081E0DF91CF9108950F931F93CF93DF9310
:103AC000C42FD22FFC0185818823B1F040932706B3
:103AD0000E948B1F909326068093250680E28C0F10
:103AE000883008F04DC0C77081E001C0880FCA95CA
:103AF000EAF70E94BE0744C080912706481330C0F1
:103B000080912506909126060E94A31F883C91056E
:103B100038F510E21D0FCD17B9F080E28C0F883018
:103B200040F4C77081E001C0880FCA95EAF70E948F
:103B3000C507183010F581E09D2F977001C0880FE0
:103B40009A95EAF70E94BE07802F0E94B4071830AA
:103B5000B8F4D77081E001C0880FDA95EAF70AC09F
:103B600080E28C0F883060F4C77081E001C0880F5C
:103B7000CA95EAF70E94C50703C0802F0E94B407C8
:103B8000DF91CF911F910F9108950F93FC01E851A0
:103B9000FC47E730F10590F5CB01E557FF4F0C945A
:103BA000622806E221EE41EE6AE17CE723C007E2EB
:103BB00025EE45EE6BE17CE71DC006E221EE40EE0E
:103BC00068E17CE717C007E225EE44EE69E17CE797
:103BD00011C006E221EE42EE6CE17CE70BC007E289
:103BE00025EE46EE6DE17CE705C008E221E045EEFA
:103BF0006EE17CE70E945C1D80E008C0FB018581CE
:103C0000882319F01092270601C081E00F910895D2
:103C100090932E0680932D0608950E94E916811137
:103C200003C0809128060895E0912D06F0912E069C
:103C3000309729F00190F081E02D0995089580E0FA
:103C400008950E940D1E0895E0912D06F0912E0614
:103C5000309721F00280F381E02D09950895A3E0CB
:103C6000B0E0E5E3FEE10C94782820912B0630913A
:103C70002C0628173907A1F090932C0680932B0669
:103C8000E0912D06F0912E06309751F023E0298324
:103C90009B838A830084F185E02DCE0101960995EE
:103CA0002396E2E00C949428A3E0B0E0EAE5FEE17C
:103CB0000C9478282091290630912A062817390774
:103CC000A1F090932A0680932906E0912D06F091A9
:103CD0002E06309751F024E029839B838A83008449
:103CE000F185E02DCE01019609952396E2E00C9432
:103CF0009428E0910001F0910101329697E080E074
:103D0000915029F021912223D9F38F5FF9CF0895A3
:103D1000882371F02091000130910101F901329660
:103D2000285F3F4F9191891729F0E217F307D1F7E8
:103D300080E0089581E008959C01FC0132969FEF98
:103D400080E04191461789F09F3F19F4411101C06D
:103D5000982F8F5F8630A9F79F3F39F0F901E90F5F
:103D6000F11D97FDFA956283089508959C012A5FDD
:103D70003F4FFC014281461301C012820196821717
:103D80009307B9F70895682F809100019091010180
:103D90000E949C1E0895682F80910001909101015E
:103DA0000E94B61E0895E0910001F0910101329643
:103DB00086E0DF011D928A95E9F7089508950E9433
:103DC000DE1E089583E080932F060E94DF1E089573
:103DD000811102C081E001C082E080932F060E9421
:103DE000DF1E08950E94E81E089581E080932F064B
:103DF0000E94DF1E08950E94F51E089508950E94F6
:103E0000FE1E08950E94FF1E08950E94FE1E089542
:103E10000E94FE1E08950E94FE1E0895CF930E94E8
:103E2000081F0E9454160E94051FC0E08C2F0E949C
:103E30001F15811104C0CF5FCE30C1F701C081E0F2
:103E4000CF91089585B7806885BF85B7806885BFA5
:103E500008951F920F920FB60F9211248F939F9384
:103E6000AF93BF9380913006811113C080915F069C
:103E700090916006A0916106B09162064196A11DE5
:103E8000B11D80935F0690936006A0936106B09386
:103E90006206BF91AF919F918F910F900FBE0F90CF
:103EA0001F90189580916706843031F10E94560565
:103EB0001092300620E488E190E00FB6F894A895BF
:103EC000809360000FBE2093600083B7817F846081
:103ED00083BF83B7816083BF7894889583B78E7FD3
:103EE00083BF0FB6F894A895809160008861809395
:103EF0006000109260000FBE08950E94B70A0E94F1
:103F00005B05089582E084BD93E095BD9AEF97BD6F
:103F100080936E0008952FB7F89480915F0690917A
:103F20006006A0916106B09162062FBF08952FB779
:103F3000F89460915F06709160068091610690919F
:103F400062062FBF08959C014FB7F89480915F06D9
:103F500090916006A0916106B09162064FBF821BEE
:103F6000930B0895CF92DF92EF92FF922FB7F894C0
:103F7000C0905F06D0906006E0906106F090620607
:103F80002FBFA7019601261B370B480B590BCA01FF
:103F9000B901FF90EF90DF90CF90089578941F9231
:103FA0000F920FB60F9211248F939F93AF93BF93ED
:103FB00080915F0690916006A0916106B0916206C3
:103FC0000196A11DB11D80935F0690936006A0939A
:103FD0006106B0936206BF91AF919F918F910F9050
:103FE0000FBE0F901F90189587E797E790930108F1
:103FF000809300089AE088E10FB6F894A895809322
:1040000060000FBE90936000FFCF9AE088E10FB68A
:10401000F894A895809360000FBE90936000FFCF46
:104020008EE1499B02C08150E1F7499BFECF089584
:10403000599880E28A95F1F7599A0895FC012AE08F
:104040002A95F1F728E090E080E031E040E14A95E0
:10405000F1F7880F499B02C08160932700C00000E0
:1040600040E14A95F1F7215089F720E12A95F1F7CF
:1040700029B100C0000030E13A95F1F72695217092
:1040800092272081920F90830895A1E0B0E0EBE4A5
:10409000F0E20C94742819828C017C01E60EF11C6C
:1040A0000E151F0551F00E941020CE0101960E94AE
:1040B0001E20F80181938F01F3CF81E09981911146
:1040C00080E02196E6E00C949028519A599A089540
:1040D0005198599AE99AE9E6F0E08081837F8083DC
:1040E0000895615091E001C0990F6A95EAF720E0C8
:1040F00031E0992361F0492F482319F0599A232779
:1041000001C0599840E24A95F1F79695F2CF2223E3
:1041100011F0599A01C0599880E28A95F1F759989F
:104120000895FF920F931F93CF93DF93EC018C01BF
:10413000060F111DC017D10741F0F9900E941820F9
:1041400068E08F2D0E947120F5CFCDB7DEB7E5E096
:104150000C9491281F920F920FB60F9211240F9377
:104160001F932F933F934F935F936F937F938F93FF
:104170009F93AF93BF93EF93FF93CF93DF931F92E0
:10418000CDB7DEB719820E941020CE0101960E94A1
:104190001E20082F069506950695902F96959570EA
:1041A000202F2570920F292F237096959695920FA8
:1041B000877089135FC0898181115CC0043008F069
:1041C00059C080E18A95F1F7599A519A82E08A950F
:1041D000F1F700C0599888E0089F80011124D801A8
:1041E000AD5FBE4F1696ED91FC9117973097A9F0F1
:1041F0006091AA017091AB0114962D913C91159795
:10420000260F371F11968D919C911297680F791F79
:1042100013964C9113978C910995F801ED5FFE4F21
:104220006381662351F08091AA019091AB012481B2
:104230003581820F931F0E9491200E94182080E1F7
:104240008A95F1F759985198599A80E18A95F1F732
:10425000F801ED5FFE4F6081662351F08091AA0165
:104260009091AB0121813281820F931F0E944520E2
:104270000E9410200F90DF91CF91FF91EF91BF919D
:10428000AF919F918F917F916F915F914F913F91EE
:104290002F911F910F910F900FBE0F901F901895A7
:1042A0000F931F93CF93DF93843091050CF06DC073
:1042B000EC01F894519A599885E08A95F1F700003D
:1042C0009C2F969595702C2F2570920F892F8370B7
:1042D0009695969523E0CC0FDD1F2A95E1F7980F70
:1042E0008E01092B0E94182084E08A95F1F700C006
:1042F00068E0802F0E94712080E18A95F1F7519843
:10430000599A499902C000C0FCCF87E090E0499BD0
:1043100008C0019721F4519A599A789436C000C088
:10432000F6CFFE01ED5FFE4F6381662381F0809141
:10433000AA019091AB0124813581820F931F0E94C5
:104340004520811104C0519A599A78941FC00E9447
:10435000102080E28A95F1F75998519A80E18A9568
:10436000F1F7CD5FDE4F6881662351F08091AA019D
:104370009091AB0129813A81820F931F0E94912075
:104380000E941820789481E001C080E0DF91CF91F5
:104390001F910F9108958091390608950895089509
:1043A0009B01909167069430F1F48F708093E9003F
:1043B0008FEF9091E800815095FD06C095ED9A959C
:1043C000F1F700008111F5CF8091E80085FF0BC067
:1043D000BA01C90140E050E00E94C9238091E80081
:1043E0008E778093E800089543E050E0BC0182E0BE
:1043F0000E94D0210895CF93DF93EC0148E050E074
:10440000BC0181E00E94D02188E0FE01A1E3B6E07A
:1044100001900D928A95E1F7DF91CF9108958091F7
:104420006606811109C00E9454250E94B125809121
:10443000E20084608093E200089510926606089579
:104440000E94FB1E08956091630681E0611101C026
:1044500080E00E94E21E08959091670681E094300A
:1044600009F080E0609163060E94E81E089542E032
:1044700061EC81E00E94CD2442E261EC82E00E9486
:10448000CD249091670681E0943009F080E060913E
:1044900063060E94F21E089580916906833009F434
:1044A00061C030F4813071F0823009F49BC008950E
:1044B0008A3009F487C08B3009F46CC0893009F068
:1044C000A9C020C080916806813A09F0A3C08091FC
:1044D000E800877F8093E80080916C0690916D06DC
:1044E000892B21F468E081E396E003C060E080E07E
:1044F00090E070E00E940E248091E8008B7780931A
:10450000E800089580916806813209F083C08091A7
:104510006C0690916D06029708F07CC08091E800CF
:10452000877F8093E8008091E80082FD05C080913C
:1045300067068111F8CF6EC02091F3008091F200E0
:1045400090E0922B029731F48091F100813011F0CC
:10455000863021F48091F100809339068091E80043
:104560008B7754C080916806813A09F053C08091DE
:104570006C0690916D06892B09F04CC08091E80083
:10458000877F8093E8008091E80080FFFCCF8091D6
:10459000290137C0809168068132E1F580916C066F
:1045A00090916D06892BB1F58091E800877F80930B
:1045B000E8000E94022580916A06809329010E94EA
:1045C000B70A089580916806813221F58091E8004C
:1045D000877F8093E8000E94022580916B0680937C
:1045E0003A06089580916806813AA1F48091E80026
:1045F000877F8093E8008091E80080FFFCCF809166
:104600003A068093F1008091E8008E778093E8006D
:104610000E940225089584B7877F84BF0FB6F8945F
:10462000A89580916000886180936000109260007E
:104630000FBE90E080E80FB6F894809361009093ED
:1046400061000FBE0E94F51E08950E9454250E942D
:10465000B125E2EEF0E080818460808378940E944E
:104660003C2808958FE191E00E94081E08958091F2
:1046700067068530A9F480916706853079F40E9439
:10468000521F809165068823B1F30E940E1F882374
:1046900091F30E94B3230E94B70AEDCF0E947D1FC1
:1046A000089508959A0140916E0650916F060E94F8
:1046B0005A230895492F552743305105C9F060F416
:1046C0004130510581F04230510509F044C08BE37F
:1046D00090E042E954E043C041325105E1F04232FA
:1046E000510549F138C082E190E04DEC54E037C00B
:1046F00099278130910549F028F0029761F5E8E4A7
:10470000F4E005C0EEE8F4E002C0EEE7F4E08491E6
:1047100090E0AF0124C06115710541F06130710571
:10472000D1F489E090E04DEB54E019C089E090E0CD
:1047300044EA54E014C06115710541F0613071051F
:1047400051F482E390E04FED54E009C084E490E03E
:1047500041E155E004C080E090E040E050E0F90124
:1047600051834083089580E189BD82E189BD09B408
:1047700000FEFDCF8091D8008F7D8093D80080917E
:10478000E00082608093E0008091E00081FDFCCF3A
:104790000895A0E0B0E0EFECF3E20C947228EC0195
:1047A0008B017A010E942125811133C0E114F104AB
:1047B00039F0F70180819181081B190BC80FD91FAF
:1047C000C12CD12C0115110519F18091E80085FD4E
:1047D00016C08091E8008E778093E800E114F10420
:1047E00049F0F70180819181C80ED91ED182C08223
:1047F00085E00FC00E942125882321F30AC08991FA
:104800008093F10001501109FFEFCF1ADF0ADACFD0
:1048100080E0CDB7DEB7E8E00C948E2820916E06DC
:1048200030916F062617370748F06115710539F486
:104830002091E8002E772093E80001C0B901FC0127
:1048400020E06115710579F1809167068823F1F107
:104850008530F1F18091E80083FD3CC08091E80053
:1048600082FD2EC08091E80080FFEBCF2091F30005
:104870008091F20090E0922B6115710551F0883023
:10488000910538F421912093F1006150710901964E
:10489000F3CF21E0089709F020E08091E8008E77BF
:1048A0008093E800CECF2111CFCF0AC08091670658
:1048B000882361F0853061F08091E80083FD0AC0B3
:1048C0008091E80082FFF2CF80E0089582E00895B1
:1048D00083E0089581E0089520916E0630916F067F
:1048E0002617370748F06115710539F42091E80063
:1048F0002E772093E80001C0B901FC0120E061158A
:10490000710591F180916706882309F440C08530D4
:1049100009F43FC08091E80083FD3DC08091E8002C
:1049200082FD2FC08091E80080FFE9CF2091F30045
:104930008091F20090E0922B6115710559F088305A
:10494000910540F424912093F10031966150710952
:104950000196F2CF21E0089709F020E08091E8006D
:104960008E778093E800CBCF2111CCCF0AC0809105
:104970006706882361F0853061F08091E80083FD4F
:104980000AC08091E80082FFF2CF80E0089582E0C3
:10499000089583E0089581E00895982F973068F591
:1049A0009093E900981739F07091EC002091ED0098
:1049B0005091F00003C0242F762F50E021FD02C05B
:1049C0009F5FECCF3091EB003E7F3093EB00309156
:1049D000ED003D7F3093ED003091EB00316030937E
:1049E000EB007093EC002093ED005093F0002091C9
:1049F000EE0027FDE5CF80E008958F708093E900F9
:104A000081E008958091680687FF11C08091E800D9
:104A100082FD05C0809167068111F8CF11C0809199
:104A2000E8008B770BC080916706882349F080915E
:104A3000E80080FFF8CF8091E8008E778093E8004F
:104A400008952091E4003091E50095E64091EC0056
:104A5000842F817040FF23C08091E80080FD1DC03D
:104A600080916706882399F0853099F08091EB005A
:104A700085FD11C04091E4005091E50024173507F1
:104A800029F3915011F09A01E1CF84E0089582E07A
:104A9000089583E0089581E0089580E008954091AD
:104AA000E80042FFDDCF08950E94C3250E94CB2578
:104AB000E0EEF0E0808181608083E8EDF0E08081CD
:104AC0008F77808319BCA7EDB0E08C918E7F8C939B
:104AD00080818F7E80831092660608950F931F93C6
:104AE000CF93DF930E94C3250E94CB25C8EDD0E071
:104AF00088818F77888388818068888388818F7D8B
:104B0000888319BC1092670610926306109265069E
:104B10001092640600EE10E0F80180818B7F8083A4
:104B200088818160888342E060E080E00E94CD243B
:104B3000E1EEF0E080818E7F8083E2EEF0E0808124
:104B400081608083808188608083F80180818E7F8E
:104B50008083888180618883DF91CF911F910F913D
:104B60000895E8EDF0E080818F7E8083E7EDF0E04E
:104B700080818160808384E082BF81E080936606CB
:104B80000E946E250895E8EDF0E080818E7F80839D
:104B90001092E20008951092DA001092E100089558
:104BA0001F920F920FB60F9211242F933F934F93A2
:104BB0005F936F937F938F939F93AF93BF93EF9385
:104BC000FF938091E10082FF0BC08091E20082FFA1
:104BD00007C08091E1008B7F8093E1000E943B2819
:104BE0008091DA0080FF1FC08091D80080FF1BC039
:104BF0008091DA008E7F8093DA008091D90080FF67
:104C00000DC080E189BD82E189BD09B400FEFDCF00
:104C100081E0809367060E940F2205C019BC1092A4
:104C200067060E941D228091E10080FF19C08091DB
:104C3000E20080FF15C08091E2008E7F8093E20049
:104C40008091E20080618093E2008091D8008062D0
:104C50008093D80019BC85E0809367060E942322C8
:104C60008091E10084FF30C08091E20084FF2CC07D
:104C700080E189BD82E189BD09B400FEFDCF80914C
:104C8000D8008F7D8093D8008091E1008F7E809343
:104C9000E1008091E2008F7E8093E2008091E2004B
:104CA00081608093E20080916306882311F084E0A4
:104CB00007C08091E30087FD02C081E001C083E06E
:104CC000809367060E942C228091E10083FF29C017
:104CD0008091E20083FF25C08091E100877F80936F
:104CE000E10082E080936706109263068091E10004
:104CF0008E7F8093E1008091E2008E7F8093E200BE
:104D00008091E20080618093E20042E060E080E018
:104D10000E94CD248091F00088608093F0000E9472
:104D20002022FF91EF91BF91AF919F918F917F9141
:104D30006F915F914F913F912F910F900FBE0F9008
:104D40001F9018951F920F920FB60F9211242F9358
:104D50003F934F935F936F937F938F939F93AF9303
:104D6000BF93CF93DF93EF93FF93C091E900CF7090
:104D70008091EC00D82FD17080FDD0E81092E9002E
:104D80008091F000877F8093F00078940E94E6265F
:104D90001092E9008091F00088608093F000CD2BA4
:104DA000CF70C093E900FF91EF91DF91CF91BF9158
:104DB000AF919F918F917F916F915F914F913F91B3
:104DC0002F910F900FBE0F901F901895AAE2B0E0A0
:104DD000ECEEF6E20C947728E8E6F6E08091F1003C
:104DE000819326E0E037F207C9F70E944C228091B8
:104DF000E80083FF2EC18091680690916906492FD3
:104E000050E04A30510508F024C1FA01EE56FF4F38
:104E10000C946228803821F0823809F01AC108C049
:104E20008091640690916506992389F082600FC095
:104E300080916C068F70873008F00BC18093E90079
:104E40008091EB0085FB882780F91092E900909112
:104E5000E800977F9093E8008093F1001092F100B2
:104E6000D1C0282F2D7F09F0F4C0882319F082309B
:104E700061F0EFC080916A06813009F0EAC093309A
:104E800009F080E0809365062EC080916A0681114A
:104E90002AC080916C068F702FEF280F263008F003
:104EA000D8C08093E9002091EB0020FF1CC0933014
:104EB00021F48091EB00806214C09091EB0090612E
:104EC0009093EB0021E030E0A90102C0440F551F90
:104ED0008A95E2F74093EA001092EA008091EB0095
:104EE00088608093EB001092E9008091E800877F52
:104EF0008093E8000E940225ACC08111AAC01091E5
:104F00006A061F778091E3008078812B8093E3000D
:104F10008091E800877F8093E8000E9402258091BD
:104F2000E80080FFFCCF8091E30080688093E3007D
:104F3000111102C082E001C083E08093670689C03E
:104F40008058823008F085C080916A0690916B0687
:104F50008C3D53E0950779F583E08A838AE2898363
:104F60004FB7F894DE01139620E03EE051E2E32FC4
:104F7000F0E050935700E49120FF03C0E295EF70FA
:104F80003F5FEF708E2F90E0EA3010F0C79601C0BF
:104F9000C0968D939D932F5F243149F74FBF809129
:104FA000E800877F8093E8006AE270E0CE01019616
:104FB0000E940E2416C060916C0670916D06AE01C1
:104FC0004F5F5F4F0E945223BC01892B09F441C0FF
:104FD0009091E800977F9093E80089819A810E94E0
:104FE0006C248091E8008B778093E80032C0803891
:104FF00081F58091E800877F8093E80080916306C7
:105000008093F1008091E8008E7772CF811121C0EA
:1050100080916A0690916B0699270297D4F480914B
:10502000E800877F8093E80080916A06809363069A
:105030000E94022580916306811106C08091E300E1
:1050400087FD02C081E001C084E0809367060E9472
:1050500037228091E80083FF0AC08091E800877FB3
:105060008093E8008091EB0080628093EB00AA9629
:10507000E3E00C9493280895CF93809167068823EA
:10508000A1F0C091E900CF709091EC00892F817060
:1050900090FD80E8C82B1092E9008091E80083FD24
:1050A0000E94E626CF70C093E900CF9108950E9438
:1050B00054251092670608958091E300881F882781
:1050C000881F0895EE0FFF1F0590F491E02D0994BD
:1050D0002F923F924F925F926F927F928F929F9208
:1050E000AF92BF92CF92DF92EF92FF920F931F93F6
:1050F000CF93DF93CDB7DEB7CA1BDB0B0FB6F894A7
:10510000DEBF0FBECDBF09942A88398848885F84E6
:105110006E847D848C849B84AA84B984C884DF8057
:10512000EE80FD800C811B81AA81B981CE0FD11D3B
:105130000FB6F894DEBF0FBECDBFED010895FB01A1
:10514000DC0104C08D910190801921F44150504040
:10515000C8F7881B990B0895FB01DC0102C0019080
:105160000D9241505040D8F70895F999FECF92BD65
:1051700081BDF89A992780B50895A8E1B0E042E092
:1051800050E00C94F928DC01A40FB51F41505040A9
:1051900048F0CB01840F951F2E910E94D4284150D6
:1051A0005040D0F70895262FF999FECF92BD81BDCA
:1051B000F89A019700B4021639F01FBA20BD0FB655
:1051C000F894FA9AF99A0FBE08950396272F0E9431
:1051D000D4280E94D328252F0E94D428242F0C9451
:1051E000D4280196272F0E94D4280C94D328DC01C0
:1051F000CB01FC01F999FECF06C0F2BDE1BDF89AE2
:10520000319600B40D9241505040B8F70895F8948B
:02521000FFCFCE
:10521200520201000000010000000000000007012E
:1052220000000004080000000000001D06A402CBDC
:1052320021FB21CE21CF21F42101E200E900EA0085
:10524200B500B600B700CD008301CC008A019201FF
:1052520094012102230224022502260227022A02A5
:10526200B300B4006F0070009F01CB019F02A00247
:10527200818283E200E900EA00B500B600B700CD02
:10528200008301CC008A01920194012102230224AD
:10529200022502260227022A02B300B4006F007020
:1052A200009F01CB019F02A002818283F5F6F731B4
:0C52B20033323690946697C634357E0285
:00000001FF
