:100000000C94AB020C94C8020C945C200C94C802B3
:100010000C94C8020C94C8020C94C8020C94C80238
:100020000C94C8020C94C8020C9482250C9454269B
:100030000C94DB1E0C94C8020C94C8020C94C802E9
:100040000C94C8020C94C8020C94C8020C94C80208
:100050000C94C8020C94801F0C94C8020C94C80223
:100060000C94C8020C94C8020C94C8020C94C802E8
:100070000C94C8020C94C8020C94C8020C94C802D8
:100080000C94C8020C94C8020C94C8020C94C802C8
:100090000C94C8020C94C8020C94C8020C94C802B8
:1000A0000C94C8020C94C8020C94C802C307C3077E
:1000B000EF07EF076908EC099109EC098508FD08CD
:1000C0000F090F099D09BD09A309A609B009AB09CC
:1000D000B5097A1CEC1C821C4C1C501C861C531C41
:1000E000891C941C5E1CE21C621C981C661C9C1CD7
:1000F000C61C6A1CA01CD01C701CA61CB01C571C63
:100100008D1C5A1C901C751CAB1CBC1CDC1CDE1C02
:10011000481C7E1CF51C8F1D951D831D891D9B1D74
:10012000A11DA71DBC26E326DB27E326DB272F27FF
:100130005227DB27A927B82700000107020703077A
:100140000407050706000001010802080308040867
:10015000050806010002010902090309040905094D
:1001600006020003010A020A030A040A050A06033A
:100170000004010402040304040405040604000549
:10018000010502050305040505050605000601062F
:100190000206030604060506060600070107020715
:1001A00003070407050706070008010802080308FB
:1001B00004080508060800090109020903090409E1
:1001C00005090609000A010A020A030A040A050AC7
:1001D000060A000B010B020B030B040B050B060BAD
:1001E000000C010C020C030C040C050C060C000D99
:1001F000010D020D030D040D050D060D29001E0055
:100200001F0020002100220045002B0414001A00CA
:100210000800150017002D002B0004001600070031
:1002200009000A002E00A2521D001B000600190042
:1002300005000000737C6252A85261522C004C00F1
:1002400000000000000000000000A452A1520000C5
:100250000000000000000000F056280000004400EC
:100260002300240025002600270035002F001C0055
:1002700018000C0012001300310030000B000D00BC
:100280000E000F0033003400000011001000360093
:1002900037003800B25200002A00280052005100F6
:1002A00050004F00000068006900000000000000DE
:1002B00000000000460049000000000000000000AF
:1002C00001003A003B003C003D003E0001000100FF
:1002D0000100010001000100010001000100010016
:1002E0000100010001000100010001000100010006
:1002F00001000100010000000100010001000100F7
:1003000001000100000000000000000000000100EA
:1003100001000000000000000000000001000100DA
:10032000000001003F004000410042004300010086
:1003300001000100010001000100010001000100B5
:1003400001000100010001000100010000000100A6
:100350000100010001000100010000000100010096
:100360000100010001000100000001000100000087
:10037000000000000000000001000100000000007B
:100380000000000001003A003B003C003D003E0040
:100390000100010063005F0060006100540056002E
:1003A000010062005C005D005E0055005700010026
:1003B000000059005A005B0000000000010001002D
:1003C000007C0100010001000000000000000000AE
:1003D000000001000100000000000000000000001B
:1003E00001000100000001003F0040004100420008
:1003F0004300000000004A004D00520000004B0086
:10040000000000000000500051004F0000000000FC
:1004100000004E000000000000000000010000008D
:1004200001000100537C567C547C577C0000010085
:1004300001000000000000000000000001000100B9
:10044000000000000000000034034400610063006D
:10045000740079006C002D004D0061006E00750085
:1004600066006F0072006D002000280035007800E3
:1004700036002B0033002B003200290000000E0351
:100480006A006500720076006900730000000403D2
:10049000090409023B00020100A0FA09040000015E
:1004A0000301010009211101000122440007058117
:1004B00003080001090401000103000000092111E3
:1004C0000100012232000705820320000112010011
:1004D00002000000084D44373520000102000105EC
:1004E000010980A101850319012AB700150126B76A
:1004F00000950175108100C0050C0901A10185045A
:1005000019012AA002150126A0029501751081008B
:10051000C005010906A101050719E029E715002515
:10052000019508750181029501750881010507197A
:100530000029FF150026FF009506750881000508B3
:1005400019012905150025019505750191029501EF
:1005500075039101C00011241FBECFEFDAE0DEBFAA
:10056000CDBF11E0A0E0B1E0E6E7F1E502C0059003
:100570000D92AC3AB107D9F726E0ACEAB1E001C080
:100580001D92AE36B207E1F70E9497180C94B92875
:100590000C940000CF93FC01C5818091AF01CC2366
:1005A00061F091E09093AE01811102C0C1E00CC0F6
:1005B000862F0E947306C0E007C01092AE01882308
:1005C000A9F3862F0E94FD068C2FCF9108958131CB
:1005D000910569F020F40C97049780F408C08831E5
:1005E000910529F08C31910511F0439739F4FB0105
:1005F0008581882319F081E08093AE0181E0089520
:10060000CF939C01CB012131310509F467C0B8F4C7
:100610002D30310509F456C038F42C30310509F07D
:1006200063C062E570E050C02E30310509F450C05F
:100630002F30310509F058C06FE470E045C02C310F
:10064000310509F448C058F42331310509F449C093
:100650002831310509F048C06DE470E035C0293219
:10066000310521F0243A324541F03EC0FB01C581FD
:10067000C1113BC00E949D0F37C0FB012681322F64
:10068000307F91F5C581CC2369F0C22FC17020FF66
:1006900004C08091AE01882341F181E08093AF01D5
:1006A000C0E023C01092AF010E948D0F82FF03C0F3
:1006B00084E00E94960F84E00E94ED0F84E00E9487
:1006C000C20F13C060E570E00E94CA02C82F0DC0BF
:1006D00061E570E0F9CF6AE470E0F6CF6EE470E0B7
:1006E000F3CF6BE470E0F0CFC1E08C2FCF91089591
:1006F000CF93DF93C82FD62F8FE99FE00197F1F7B3
:1007000000C000008C2F0E94730661E070E08D2F06
:100710000E944E078C2F0E94FD06DF91CF91089515
:10072000CF93DF93EC0162E00E94E60A882339F060
:100730000E94D31D80FD03C083E50E946607CE01A1
:100740000E941205813039F020F0823041F460E2DD
:1007500003C06EE101C06FE18AE60E947803CE011A
:10076000DF91CF9108950E94C405882311F066E2BD
:1007700001C067E28AE60E9478030895CF93DF9371
:10078000C82FD62F811114C06FE18BE60E94780329
:1007900061E28BE60E94780363E28BE60E947803B5
:1007A00065E28BE60E94780367E28BE60E9478039D
:1007B000C1FF06C0D1FF02C06EE121C06FE11FC0C2
:1007C000C5FF06C0D5FF02C060E219C061E217C0D4
:1007D000C2FF06C0D2FF02C062E211C063E20FC0D6
:1007E000C0FF06C0D0FF02C064E209C065E207C0D6
:1007F000C3FF08C0D3FF02C066E201C067E28BE618
:100800000E947803DF91CF9108958330B0F46E3069
:10081000A0F4473090F492E6899FF001112487E01C
:10082000689FE00DF11D1124E40FF11DEE0FFF1F75
:10083000E450FE4F85919491089581E090E00895F1
:100840000E940504089581E008950E94E70208953A
:100850000E940003089508950E942B040895A6E0C5
:10086000B0E0E5E3F4E00C94292849835A839E83A1
:100870003091C20189819A81311115C03E813323A3
:1008800059F0222349F00E94CA0B182F682F898142
:100890009A810E94A60B03C00E94B80B182F698191
:1008A0007A81812F04C00E94CA0B69817A810E94DB
:1008B00093132696E3E00C944528FC01262F4081F3
:1008C000518162817381848195810E942F040895F2
:1008D000CF93DF93EC0161E00E945D04BE010E94B2
:1008E0002504DF91CF910895CF93DF93EC0160E071
:1008F0000E945D04BE010E942C04DF91CF910895F7
:1009000081E008950E9480040895CF93C82F0E942B
:10091000690A8C2F0E9482042FEF84E39CE021500F
:1009200080409040E1F700C00000CF91089581E041
:100930000E9485040E94A61F089580E00E948504FD
:100940000E94B71F08950F931F93CF93DF938C01DD
:1009500061E00E945D04EC01B8010E94741B8823D1
:1009600009F450C0B801CE010E942804882309F47C
:1009700049C0B801CE010E94C618882309F442C0BC
:10098000B801CE010E94771D8823E1F1B801CE01A4
:100990000E94241C8823B1F1B801CE010E94FA1BE9
:1009A000882381F1F8018581882341F1C3308CE7E8
:1009B000D807D1F040F4C115FCE7DF0791F0C13052
:1009C000DC47A1F01BC0CB35ECE7DE07A9F0CC3546
:1009D000FCE7DF0771F0CA35DC4781F40E94B510EF
:1009E0000DC00E9497040EC00E94BD100E949D047D
:1009F00009C00E94AB1002C00E94B910C8010E9439
:100A0000230401C080E0DF91CF911F910F910895E1
:100A10000E94B41E0E94550508950E9459050E9427
:100A2000BD1E0895292F33272115310519F0C9015D
:100A300048E001C040E09C0164E0369527956A9546
:100A4000E1F72115310511F04C5FC9019C01369584
:100A50002795369527952115310511F04E5FC9016F
:100A60009C0136952795232B09F04F5F842F08951D
:100A7000089581E008950895CF93DF93D82F0E94C1
:100A80003905C82F882319F08D2F0E943B058C2F24
:100A9000DF91CF9108950895CF93C82F0E94380514
:100AA0008C2F0E943C05CF91089580E00E944C0558
:100AB00008950E94BF1D0E944C050895CF930E9487
:100AC000BF1DC82F8091B001C81779F0C093B00145
:100AD0000E94491F6093B1017093B2018093B301EA
:100AE0009093B4018C2F0E944C05CF91089544231C
:100AF00019F08091C40108959C0143E03695279533
:100B00004A95E1F7FB01E20FF31F9C0127703327A1
:100B100081E090E001C0880F2A95EAF79081982340
:100B200081E009F480E008959C0153E03695279513
:100B30005A95E1F7DC01A770BB2781E090E001C086
:100B4000880FAA95EAF7FB01E20FF31F442319F07F
:100B50009081892B03C0809590818923808308959B
:100B600081E08093C4010E94B30308951092C401F0
:100B70000E94B30308959091C40181E08927809376
:100B8000C4010E94B30308958091C4010895A0E0B8
:100B9000B0E0EDECF5E00C942428FC018481813078
:100BA000B9F581818E30A0F5C081C73088F58F01FD
:100BB000C82ED12CD0E07E0197E0899FE00CF11C7B
:100BC0001124458165EB71E0C7010E9477058823F8
:100BD000C9F087E08C9DF0018D9DF00D1124CE0FA2
:100BE000DF1FCC0FDD1FFE01E75CFE4FE491D80153
:100BF0001196EC93FE01E85CFE4FC491F801C083AE
:100C000041E001C040E065EB71E0C7010E9494053E
:100C1000CDB7DEB7E8E00C944028ADE0B0E0E3E10A
:100C2000F6E00C942828488759876A877B878C8749
:100C30009D8791110E94AD0F8C85882321F0CE01F4
:100C400008960E94C7058E010F5F1F4F87E0F801CD
:100C500011928A95E9F786E0FE013896D801019055
:100C60000D928A95E1F780913A0682FF11C00E94A9
:100C7000210F882319F082E00E947F100E94080F44
:100C800081110E9406100E94370F81110E94610F8E
:100C90008D8181110AC029813A814B815C816D81EE
:100CA0007E818F810E94830E05C0C8010E94680466
:100CB0008111F1CF2D96E4E00C944428CF93FC01F0
:100CC000C481C13071F4808191810E94FC0B9295A6
:100CD0009F70963031F4863F21F00E94BB05C0938F
:100CE000C301CF910895CF93882309F484C0C82FFE
:100CF0008238A1F40E94D31D81FD7DC089E30E944A
:100D0000751E0E9451102FEF87EE93E02150804016
:100D10009040E1F700C0000089E315C08338C1F4BA
:100D20000E94D31D80FD67C083E50E94751E0E944E
:100D300051102FEF81EE94E0215080409040E1F778
:100D400000C0000083E50E947D1E0E94511053C028
:100D50008438A1F40E94D31D82FD4DC087E40E9417
:100D6000751E0E9451102FEF81EE94E021508040BB
:100D70009040E1F700C0000087E4E5CF8CEF8C0FD6
:100D8000813A98F48C2F0E94501A811134C08C2F14
:100D90000E943A1E882329F08C2F0E947D1E0E94FB
:100DA00051108C2F0E94751ED0CF80E28C0F88309E
:100DB00048F4C77081E001C0880FCA95EAF70E9425
:100DC000900FC3CFEBE5EC0FE33040F4F0E0E05AD6
:100DD000FE4F808190E00E94E11D0DC0C85ACB31CA
:100DE00050F4EC2FF0E0EE0FFF1FE65DFE4F808128
:100DF00091810E94061ECF910895882309F44DC069
:100E0000823859F40E94D31D81FF47C089E30E94B4
:100E1000751E0E94511089E30CC0833879F40E943A
:100E2000D31D80FF3AC083E50E94751E0E945110B9
:100E300083E50E947D1E0E9451100895843859F464
:100E40000E94D31D82FF29C087E40E94751E0E9464
:100E5000511087E4EECF9CEF980F913A50F390E257
:100E6000980F983050F4877091E001C0990F8A95DF
:100E7000EAF7892F0E94960FDECF9BE5980F9330FB
:100E800028F480E090E00E94E11D0895885A8B319B
:100E900020F480E090E00E94061E08951F93CF93F7
:100EA000DF93182FEB010E947306209741F08FE922
:100EB0009FE00197F1F700C000002197F6CF812F46
:100EC0000E94FD06DF91CF911F910895893319F09B
:100ED00060E070E002C060E570E00E944E07089597
:100EE000882321F00E94900F0E94511008958823BA
:100EF00021F00E94960F0E9451100895A0E0B0E0EA
:100F0000E4E8F7E00C9423286C01EB01FC01158167
:100F1000F680F2949FE0F9220E94860F882319F14F
:100F2000112309F18D2F807F803481F090E29C0F96
:100F30009830C8F09D2F907E903221F4C23098F006
:100F4000FF2089F0803611F4C63F69F080913A069F
:100F500082FF09C082E00E947F100E94860F91E00C
:100F6000E82EE92601C0E12CBD2EB2948FE0B82214
:100F70008B2D90E08C30910508F02EC2FC01EA5ACE
:100F8000FF4F0C9414280D2F0F708D2F807F11F0C0
:100F90000295007F112399F0002309F4A3C180E298
:100FA0008C0F883010F0C11104C0802F0E94900F68
:100FB00003C0802F0E94A00F0E94511093C18C2F5C
:100FC0000E94FD06002309F407C280E28C0F8830DE
:100FD00048F1CC2339F1802F0E94A60F26C00D2F97
:100FE0000F708D2F807F803211F00295007FCC230F
:100FF00021F0C13009F448C053C080913A0682FD07
:1010000017C0112349F0002329F0802F0E94900F70
:101010000E94511080E067C180E00E94FD0600231D
:1010200009F4DAC1802F0E94960F0E945110D4C19A
:101030001123B1F0FF20C1F1F1E0FF1204C0802FB5
:101040000E94D60FC9C122E0F212C6C1802F0E94B1
:101050007007802F0E94ED0F802F0E94B60FBCC139
:10106000FF2041F081E0F812B7C10E948D0F80236C
:1010700009F4B2C1802F0E947707802F0E94ED0FE4
:10108000802F0E94C20FA8C1112329F095E09F155F
:1010900008F4A2C109C0E4E0EF1508F49DC115C031
:1010A000112331F0F1101EC1802F0E94700794C1EE
:1010B000FF2059F0C93309F02BC1FFEF27EE83E081
:1010C000F15020408040E1F721C1802F0E94770736
:1010D00083C18D2F86958695837019F0813059F0E4
:1010E0007BC1112319F0CE01937002C080E090E023
:1010F0000E94E11D79C1112319F0CE01937002C045
:1011000080E090E00E94061E6FC18D2F8370B9F5BC
:10111000111166C14C2F429546954770440F440FFC
:101120008C2F8F7090E09C01042E02C0220F331F81
:101130000A94E2F7C4FF0AC08FE090E002C0880F73
:10114000991F4A95E2F78095909502C080E090E063
:101150004D2F469546954370822B932B423049F094
:1011600058F4413019F00E94C50A3AC10E94BC0AE5
:1011700037C10E94CE0A34C10E94B90A31C111237D
:1011800019F08D2F817001C08695882309F428C13C
:101190004C2F429546954770440F440F8C2F8F700B
:1011A00090E09C01042E02C0220F331F0A94E2F744
:1011B000C4FF0AC08FE090E002C0880F991F4A95D3
:1011C000E2F78095909502C080E090E04D2F469523
:1011D00046954370822B932B423049F058F44130AE
:1011E00019F00E94410BFCC00E94380BF9C00E940C
:1011F0004A0BF6C00E94DA0AF3C00D2F0F701123BC
:1012000039F0802F0E94060B8C2F0E947007E8C0D7
:101210008C2F0E947707802F0E94160BE1C0C23FDF
:10122000D9F028F4C03F41F0C13F51F157C0C33F4E
:10123000C9F0C43F09F152C0112329F094E09F1571
:1012400008F4CAC004C0E5E0EF1508F4C5C08D2F4E
:101250008F710E94280BC0C08D2F8F71112309F44C
:1012600047C05CC0112329F08D2F8F710E94FA0AAC
:10127000B3C00E94E10AB0C080913A0682FD06C068
:101280008D2F8F71112309F449C032C01123B9F099
:101290000E941D0F843039F40E9475108D2F8F71BC
:1012A0000E94160B98C0F1E0FF1508F494C00D2FB2
:1012B0000F71802F0E94060B63E0802F08C021E091
:1012C0002F1540F40E94751064E08D2F8F710E94DD
:1012D000571081C081E00E947F107DC0112359F01A
:1012E000FF2021F08C2F0E94730676C08D2F8F7106
:1012F0000E94060B71C0FF2079F0C93349F48FEFCB
:1013000097EEE3E081509040E040E1F700C000003C
:101310008C2F0E94FD0660C08D2F8F710E94160BCE
:101320005BC08C2F90E0FC01E05FF109E730F10534
:1013300088F5EE59FF4F0C941428112309F45DC071
:101340000E94BB0551C01093C4014EC081E08127AB
:101350008093C40149C0111147C00E94B0054DC01F
:10136000111142C00E94B60548C0112319F00E9415
:101370004A0F3AC00E946A0F40C0112339F0809191
:10138000C3018823E9F21092C3012EC0F4E0FF15D7
:10139000A0F1D6CF8091C301FF20A1F0882321F0D6
:1013A0000E94BB051092C3018C2F112319F00E94DB
:1013B00073061AC00E94FD0687E0F60111928A9515
:1013C000E9F71BC0882381F011110EC00E94BB05F4
:1013D0001092C30112C0E12C88EF8B0D843020F4F1
:1013E0000E94BF1D0E944C05112339F0D07FD036DA
:1013F00011F4C63F11F00E94780FEE2089F00E9490
:101400001D0F80FD0DC0F60115820E94170F0E946E
:10141000060BC6010E942D0A0E94170F0E94160B90
:10142000CDB7DEB7E9E00C943F280F931F93CF931D
:10143000DF93EC01688179818D810E94070C8C011A
:101440000E94530B0E94AA0AB801CE010E947E0797
:10145000DF91CF911F910F910895CF93DF93FC01FE
:1014600024812223D1F0EC010E94A30481110FC03A
:101470000E94860F882389F08D81882371F08091E6
:101480003A0682FF0AC082E00E947F1006C0CE01A9
:101490000E94150ACE010E947404DF91CF91089535
:1014A000882321F00E94A60F0E945110089580E029
:1014B00090E00E94E11D80E090E00E94061E0E94E4
:1014C000AD0F0E94511008950E94851E0E94570A78
:1014D00008950E949D0F0E94640A089592959F703E
:1014E000963079F010F4925001C09A50923068F41E
:1014F000803F69F018F4883E40F409C0843F29F425
:1015000006C0883E20F0813F11F080E0089581E020
:101510000895FC012481222339F0808191810E9469
:10152000FC0B0E946E0A089580E00895A6E0B0E0EA
:10153000ECE9FAE00C942A282696E2E00C9446287E
:10154000A7E0B0E0E6EAFAE00C942A282796E2E069
:101550000C944628089508950E94AB0A08950E94AD
:10156000AC0A08950E94AF0A9093FC018093FB019E
:1015700008950E94B20A08952091FB013091FC0168
:10158000822B932B0E94B20A08952091FB01309187
:10159000FC01822393230E94B20A08952091FB014B
:1015A0003091FC01822793270E94B20A08950E947D
:1015B000900308950E94D70A9093FA018093F9014D
:1015C000089580E090E00E94DA0A0895009721F4DF
:1015D00081E0662371F00CC021E030E002C0220FF0
:1015E000331F6A95E2F72823392381E0232B09F47E
:1015F00080E0089521E030E0A90102C0440F551FAA
:101600008A95E2F7CA010E94DA0A089521E030E0E3
:1016100002C0220F331F8A95E2F78091F901909161
:10162000FA01822B932B0E94DA0A089521E030E020
:1016300002C0220F331F8A95E2F7209530958091E2
:10164000F9019091FA01822393230E94DA0A089506
:1016500021E030E002C0220F331F8A95E2F780912B
:10166000F9019091FA01822793270E94DA0A0895DE
:101670002091F9013091FA01822B932B0E94DA0A12
:1016800008952091F9013091FA01822393230E9459
:10169000DA0A08952091F9013091FA0182279327FF
:1016A0000E94DA0A08950895962F9770A1E001C06C
:1016B000AA0F9A95EAF793E0769567959A95E1F7E0
:1016C000660F771F660F771FFA01E60FF71F40E0DE
:1016D00050E0682F70E090819B01042E02C0369587
:1016E00027950A94E2F72170219529272A23292793
:1016F00021934F5F5F4F4430510569F70895FB0117
:10170000782F777023E0969587952A95E1F7880FD3
:10171000991F880F991FE80FF91F40E050E080E003
:10172000219130E0072E02C0369527950A94E2F702
:1017300021703327042E01C0220F0A94EAF7822B6E
:101740004F5F5F4F4430510559F70895282F9E3061
:1017500070F4873060F4862F622F70E027E0929F4C
:10176000600D711D112445EC51E00E94540B089549
:101770009E3070F4873060F4292F90E065EC71E0C2
:1017800037E0239F800D911D11240E947F0B089547
:1017900080E00895A0E0B0E0E0EDFBE00C942328A9
:1017A0007C010091F9011091FA018091FB01909167
:1017B000FC01082B192BCFE0D0E0CC24C394D12C12
:1017C000C6010C2E02C0880F991F0A94E2F78023ED
:1017D0009123892B21F4219798F7B12C07C0BC2EB7
:1017E000B7018C2F0E949F130197A9F38B2DCDB7C2
:1017F000DEB7E9E00C943F28CF93DF93EC010E9421
:10180000CA0BBE010E949F13DF91CF9108951F93D1
:10181000CF93DF93EB019091C201992321F0CB018B
:101820000E94FC0B13C0882349F0CB010E94CA0B15
:10183000182F682FCE010E94A60B04C0CB010E9476
:10184000B80B182FBE01812F0E949F13DF91CF91FB
:101850001F9108951F93CF93DF93C091FD0117E06F
:101860008091FE01C817A1F0D0E01C9FF0011D9FE0
:10187000F00D1124E150FE4F2081318142815381CE
:101880006481758186810E94A00A2196C770E8CF85
:10189000DF91CF911F910895209137023091380246
:1018A0004091390250913A0260913B0270913C02A2
:1018B00080913D020E94A00A0895CF93DF9380910A
:1018C0003D0282958F7009F04EC080913C028823C2
:1018D00009F449C08091FD014091FE015091380208
:1018E00060913702C0913902D0913A0277E08417B3
:1018F000D1F190E0789FF001799FF00D1124DF0184
:10190000A150BE4F14962C911497222349F11196A1
:101910002C911197251324C02C91261321C01596C4
:101920002C91159721111CC012962D913C91139763
:101930002C1B3D0B283C310598F480913D028F70A3
:10194000806180933D02EB5FFD4F80818F708061ED
:10195000808387E392E00E942D0A0E942A0C03C034
:1019600001968770C4CFDF91CF9108952091FD013A
:101970009091FE0157E02917A9F030E0529FF00145
:10198000539FF00D1124E150FE4F7181761306C074
:101990007081781303C07581741306C02F5F3F4FA9
:1019A0002770E9CF80E0089581E00895A4E1B0E0D8
:1019B000ECEDFCE00C9420288C0186E0F801DE01BF
:1019C0001F9601900D928A95E1F7D80114968C919B
:1019D00014971596EC9097E3A92E92E0B92E90916A
:1019E0003B02911118C0882309F486C1EE20D9F179
:1019F000C8010E94890AF82E8823A9F187E0F8011E
:101A0000D50101900D928A95E1F7C5010E945E060D
:101A10000E945D0C6EC1F801C080D18082809380ED
:101A2000F0903C022091390230913A02A401421B0D
:101A3000530BFF2009F400C1483C510508F0ACC02D
:101A4000882309F45BC180913D02282F207F90916B
:101A50003802222361F09D1509F46DC0C8010E946F
:101A6000890A811170C0C8010E942D0A45C19D11CB
:101A700016C0909137029C1112C0E11010C08F70F7
:101A8000806180933D020E944C0C87E392E00E94AB
:101A90002D0A80913D02D80116968C9317C0E11053
:101AA00044C040E06D2D8C2D0E94B60CE82E88239A
:101AB00079F087E392E00E942D0AE7E3F2E087E005
:101AC000DF011D928A95E9F70E944C0CF12C16C19A
:101AD000CF86D88A8F8598890E94FC0B292F229562
:101AE0002F70243020F49F70223028F009C02A5033
:101AF000223080F014C0992349F0811107C013C02F
:101B0000992321F0F8019681907F69F0805E8830FA
:101B100030F409C0803F38F0815F833020F0C80185
:101B20000E942D0AEF2CFE2CE9C080913D028160BD
:101B300080933D02CBCF909137029C118FCFE11063
:101B40008DCFD801A4C0EE2009F48DCF20913D02A5
:101B5000822F82958F7090E002978CF080913702EF
:101B600090913802998788879B868A8680913B026C
:101B70008C871D862E87CE0108960E942D0A87E04D
:101B8000F801A7E3B2E001900D928A95E1F70E9477
:101B90005D0C0E944C0CB0C090913D02292F207F1B
:101BA00091F4682D9A8A898AA6017A899E2D0E94CD
:101BB000960A87E392E00E942D0A87E0F5011192D0
:101BC0008A95E9F781CF882309F498C0809138027B
:101BD0008D1110C0809137028C110CC0E1100AC029
:101BE0009683C8010E942D0A87E0F50111928A951B
:101BF000E9F784C0C8010E94890A882309F433CF19
:101C0000EE2009F430CF20913D02822F82958F7013
:101C100090E002970CF4B3CF809137029091380294
:101C20009A8389839C828B8280913B028D831E8262
:101C30002F83CE010196A1CF483C510508F04CC03E
:101C4000882309F459C0FE2CEE2009F40CCF8091B2
:101C500038028D1133C0809137028C112FC09091C2
:101C60003D0290FD22C0892F82958F70282F30E091
:101C700021153105D1F0D80196832F30310549F077
:101C80008F5F982F9295907F86818F70892B169603
:101C90008C93C8010E942D0A87E0F801A7E3B2E007
:101CA00001900D928A95E1F724C087E0F801A7E33F
:101CB000B2E001900D928A95E1F720C0C8010E9420
:101CC000890A81115CCF80913D02816080933D0241
:101CD000C8010E942D0A12C0682D9A8A898AA6011D
:101CE0007A899E2D0E94960A87E0F50111928A95C5
:101CF000E9F70E944C0C02C0FF24F3948F2D6496E8
:101D0000ECE00C943C28AEE0B0E0E9E8FEE00C9496
:101D10002928288739874A875B876C877D878E8744
:101D2000CE0108960E94D60C882361F06C8566234C
:101D3000A9F1288539854A855B857D858E850E9438
:101D4000A00A2CC087E0FE013896DE0111960190B2
:101D50000D928A95E1F76C85662301F12091FE01D1
:101D600030E0C9010196877099274091FD0150E04C
:101D700084179507E1F16D8397E0929FD001939FBF
:101D8000B00D1124A150BE4FFE01319601900D926D
:101D90009A95E1F78093FE010E942A0C17E080914A
:101DA000FD019091FE01891779F1189FC00111245E
:101DB00081509E4F0E94D60C882331F1E091FD01A5
:101DC0001E9FF0011124E150FE4F2081318142819C
:101DD00053816481758186810E94A00A8091FD01F2
:101DE00090E00196877099278093FD01D8CF0E94DB
:101DF000690A1092FE011092FD01E7E3F2E087E02C
:101E0000DF011D928A95E9F72E96E3E00C944528B0
:101E10000E943D1F20914C0230914D02821B930B7A
:101E20009C0181E02838334108F480E008958091D6
:101E30004B02869586958695089580914B02877012
:101E400008950E943D1F2091480230914902821B53
:101E5000930B8838934140F080914B0282FB882796
:101E600080F991E0892701C080E0817008950E9487
:101E70003D1F2091460230914702821B930B883808
:101E8000934128F081E090914A02913009F080E07E
:101E90008170089582E080934A0281E08093C401BA
:101EA0000E943D1F90934702809346022091480272
:101EB00030914902232B21F09093490280934802EC
:101EC000089510924A021092C40110924702109293
:101ED0004602089580914A02823019F481E080938D
:101EE0004A0280914A02833011F40E94610F0895E2
:101EF00080914A02823019F483E080934A028091F3
:101F00004A02813011F40E94610F089590914B02B2
:101F1000977081E009F480E0089580915902089556
:101F200090915902892B8093590208958095909140
:101F300059028923809359020895109259020895F5
:101F400090915802892B8093580208958095909122
:101F500058028923809358020895109258020895D8
:101F600080914F0208950E94BE03089560914E0231
:101F7000962F9823891729F0682B60934E020E94B0
:101F8000B30F089590914E02292F282339F0682F1E
:101F90006095692360934E020E94B30F08950895DF
:101FA0000E94CF0F08950E94D00F0895CF93909173
:101FB0004F029823891779F0C82F0E943D1F9093F4
:101FC0004D0280934C0280914F028C2B80934F02E4
:101FD0008C2F0E94D30FCF91089590914F02292FFB
:101FE000282399F08095892380934F02882319F044
:101FF0000E943D1F02C080E090E090934D028093CC
:102000004C0280914F020E94D30F089580914F029D
:10201000882349F010924F0210924D0210924C0208
:1020200080E00E94D30F08950F931F93CF93DF9307
:102030000091000110910101C09159028091580254
:10204000C82B80914F02882369F00E94080F8111EC
:102050000E94061080914F02C82B0E942B1E8111F6
:102060000E940610F801C083C0910001D0910101C7
:1020700048E050E06EE372E0CE010E945128892BC7
:1020800059F088E0FE01AEE3B2E001900D928A952E
:10209000E1F7CE010E94D61DDF91CF911F910F91E4
:1020A00008950E94141008950E94CF0F08959091F2
:1020B0003A0692FF17C098E0899F90011124262BC1
:1020C00020934B020E94060B0E943D1F90934902F1
:1020D0008093480280914B028695869586950E9452
:1020E000541008950E94060B089510924B0210920E
:1020F00049021092480280E00E9454100895909185
:102100004B028095892380934B02282F277069F416
:10211000981759F090913A0692FF07C086958695D8
:1021200086950E94160B0E947510089590913A06AC
:1021300092FB222720F9281769F080FB92F99093EF
:102140003A068091390690913A060E94DE1082E0AC
:102150000E947F10089580913A0682FB882780F9BB
:1021600091E089270E949610089581E00E949610C0
:10217000089580E00E94961008956FEF7FEF80E051
:1021800090E00E94A328089580E090E00E946F28CC
:1021900021E0863E9E4F09F020E0822F089582E0E4
:1021A00090E00E946728089583E090E00E946728ED
:1021B000089584E090E00E946F280895BC0184E0B7
:1021C00090E00E94A3280895AB01BC018FE090E04D
:1021D0000E9497280895AB01BC0183E190E00E9422
:1021E0009728089560E070E0CB010E94EB100895FD
:1021F00060E070E0CB010E94E4100E94F2100895AC
:10220000A8E0B0E0E6E0F1E10C942A2866EE7EEF6B
:1022100080E090E00E94A32860E082E090E00E94CD
:10222000852881E090E09093FC018093FB0161E0C0
:1022300083E090E00E94852860E074E184E090E013
:102240000E94A32860E086E090E00E94852860E07C
:1022500087E090E00E94852840E050E0BA0188E0E5
:1022600090E00E94972860E084E290E00E94852838
:1022700060E087E190E00E94852860E08CE090E0DB
:102280000E94852860E08DE090E00E9485281982F8
:102290001A821B821C821D821E821F82188648E0C1
:1022A00050E068E170E0CE0101960E94752840E0A0
:1022B00050E0BA0180E290E00E9497280E94F81056
:1022C0002896E2E00C9446280E9400110895682F99
:1022D0008EE090E00E9485280895A6E0B0E0E3E754
:1022E000F1E10C9428280E943D1F8C0180915A0234
:1022F00090915B020817190781F019821A820E94D7
:102300003D1F682F49815A81792F80E090E00E941B
:102310000D0610935B0200935A022696E4E00C949B
:1023200044280E94B51460936E0270936F028093EC
:1023300070029093710260936A0270936B028093B3
:102340006C0290936D02089581E008950E949B169F
:10235000089508950E94A91108950E94A911089551
:102360000E94AD1108950E94A91108950E94B31111
:1023700008950E94A91108958FEC94E10E94A41879
:102380000E94B9110E94B61108950E94AA110E94DC
:10239000A91108950E94C410811102C00E94641105
:1023A0000E94CF10809372020E94D91090933A0637
:1023B000809339060E94D41090E00E94B90A80915F
:1023C000F9019091FA010E94D70A08950E94341FE2
:1023D0000E948F140E94A1160E94E1150E94CA114A
:1023E0000E944B050E94981A0E94B3160E94B011D9
:1023F00008950E949B1681110E9491190895A6E0EC
:10240000B0E0E5E0F2E10C9421280E94A4118111D2
:1024100003C00E946D1153C00E9406168CE5E82E81
:1024200082E0F82E670100E0F60111916F01802F24
:102430000E94D11481270F5F0E3019F08823A1F379
:1024400002C0882331F38091720281FD0E94D7146B
:102450000E94A611A82E10E099249394812F0E9427
:10246000D114B82EF701C080C82609F100E0DD24A0
:10247000D3948C2D8D21A9F0AA2099F009831A8379
:102480000E943D1F9C838B839D8291E08B2D8D212B
:1024900009F490E049815A816B817C818D810E9491
:1024A0000D060F5FDD0C073021F7F701B0821F5FCB
:1024B000FFEFEF1AFF0A1E3089F60E9491110E9469
:1024C000F9110E945E052696EBE00C943D280F93CF
:1024D0001F93CF93DF930E94A413EC01C11582E5F3
:1024E000D80708F04CC0C11590E5D90708F0EDC039
:1024F000C03ED10530F5CD3CD10508F099C0C83AB1
:10250000D10578F4C53AD10508F088C0C130D105AD
:1025100009F481C008F4FEC0C430D10508F0FDC044
:10252000F9C0C33CD10508F0F5C0C85AD0E0CC0FC3
:10253000DD1FCD59DE4F0990D881C02DCE019464A6
:10254000EDC0C11580E2D80750F4C11591E0D9075C
:1025500008F071C0C83ED10508F4DFC0DBC08E01B1
:102560001127C11580E4D80708F4C8C0C8010E942B
:10257000A413CC27DF70D06A8C2B9D2BCFC0C03822
:1025800092E5D90728F5C03682E5D80708F078C06B
:10259000C03492E5D90708F061C0C03282E5D8079F
:1025A00008F054C04C2F4695469590E2499FA001F3
:1025B0001124C37021E030E0C90102C0880F991FC7
:1025C000CA95E2F7EA01C82BD92BCE019D68A6C0B7
:1025D000C03C92E5D90768F48C2F8F71C03AD24580
:1025E00008F062C090E0D82FCC27CE01846F906AAB
:1025F00095C0C03E82E5D80708F45FC0CE0196556D
:102600008F3F910511F008F085C0CE0199270E94F7
:10261000A413906683C081E090E080C0C55AD0E0EA
:10262000C756DE4F8881C82FD0E0CE01906476C0B7
:10263000CE01906573C08D2F0E944014182FCE01DB
:1026400099270E94A4131F71912B68C0CF71D0E00D
:10265000DC2FCC27CE01816F906A60C08C2F8F71E8
:102660008695869590E2899F90011124C37081E040
:1026700090E002C0880F991FCA95E2F79C6811C0CC
:102680008C2F8F718695869590E2899F90011124F9
:10269000C37081E090E002C0880F991FCA95E2F7ED
:1026A0009A68822B932B3AC00E9440148F7190E05D
:1026B000D82FCC27CE01906231C0CF71DD27DC2F1F
:1026C000CC27CE01806F906A29C08C2F8F710E9419
:1026D000401495E0D695C7959A95E1F7CF70D0E074
:1026E000DC2FCC27282F30E084FF05C084E0220FA8
:1026F000331F8A95E1F7D069CE01D3CF8D2F8F712B
:102700000E944014C82FC8010E94A413CF71906288
:102710009C2B04C080E090E001C0CE01DF91CF91FE
:102720001F910F9108957E3038F4673028F4462FBA
:10273000672F0E942004089580E090E008950E9491
:1027400093130E94671208958238910569F1B0F4DD
:102750008133910509F475C048F48932910509F473
:1027600067C08A32910509F471C0089585339105D7
:1027700009F459C089339105B9F00895833E910554
:1027800089F138F4803E9105D1F0823E910529F11E
:102790000895863E9105C9F1873E9105D9F1843EA1
:1027A000910509F06CC027C02091390620FD57C063
:1027B00021FD55C020913A0623FD5BC0089580910C
:1027C000390680FD48C080913A0680FF48C080915C
:1027D000390684FD46C083EE51C08091390682FFE0
:1027E0003CC0F5CF8091390682FD37C080913A0612
:1027F00080FD35C0ECCF80913A0681FF36C08091D4
:10280000390684FD2EC087EE39C08091390683FFDA
:102810002AC0F5CF8091390683FD25C080913A0604
:1028200081FD23C0ECCF8091390685FD22C01FC0F9
:102830008091390685FD1BC080913A0683FF19C03F
:102840000AC08091390686FD16C017C080913906EE
:1028500086FD13C010C089E311C082EE0FC080EE68
:102860000DC080E00BC086EE09C084EE07C085E392
:1028700005C089E203C08AE201C081E390E00895C7
:102880009091390692FF10C041E0282F2471243026
:1028900009F040E031E0282F2871283009F030E0BD
:1028A000431711F02CE0822793FF10C041E0282F3E
:1028B0002471243109F040E031E0282F28712831BB
:1028C00009F030E0431711F02CE0822730913A06EE
:1028D00030FF10C051E0282F2171213009F050E065
:1028E00041E0282F2871283009F040E0541711F0FA
:1028F00029E0822731FF10C041E0282F21712131CA
:1029000009F040E031E0282F2871283109F030E04B
:10291000431711F029E0822794FD877E08951092D5
:102920003B0610923C0610923D0610923E0608951A
:10293000CF92DF92EF92FF926B017C010E949B1677
:1029400081110EC00E94491FC61AD70AE80AF90A67
:10295000C0923B06D0923C06E0923D06F0923E06C5
:10296000FF90EF90DF90CF9008950F931F930E94F8
:102970009B16882319F00E94491F0EC00E94491F10
:1029800000913B0610913C0620913D0630913E0699
:10299000600F711F821F931F1F910F91089580E098
:1029A0000895E82FF0E0E25BF94F808108950895E3
:1029B00080EA8A95F1F7089500C008950E94D8141E
:1029C000089508950E94E11408950E94E214089564
:1029D0000E94E11408950E94E81408950E94E114F1
:1029E0000895A7E0B0E0E7EFF4E10C9427280E94F7
:1029F0009B1660915C068823E9F187E0F82E8E0132
:102A00000F5F1F4FF8018F2D11928A95E9F7862FDE
:102A100090E0B801825B994F0E94C116882389F02B
:102A200080913F0690E047E050E0B801825B994F0B
:102A30000E94512821E020937302892B61F410E059
:102A400016C0809173028823D1F3F8011192FA9491
:102A5000E9F710927302A0913F06B0E0A25BB94F74
:102A600087E0F80101900D928A95E1F711E00E944C
:102A7000E5140DC070E0625B794F80913F0690E0F5
:102A8000825B994F0E944A170E94EE1410E0812F3A
:102A90002796E5E00C944328F894E82FE295EF7030
:102AA000F0E031A1282F2F7081E090E001C0880F65
:102AB0002A95EAF7982F9095932391A392A1892BB9
:102AC00082A3789408950F931F93CF93DF93C3EA63
:102AD000D1E089918F3F11F00E944C1581E0CA3AF4
:102AE000D807B9F7CCE9D1E003EA11E089918F3F2B
:102AF00011F00E944C150C171D07C1F7DF91CF9103
:102B00001F910F910895A0E0B0E0E9E8F5E10C9481
:102B100024288C01C62FD0E0CE018D559E4F7C011C
:102B2000FC0190819F3F09F447C0D62EF894E92F0D
:102B3000E295EF70F0E081A19F7021E030E001C0EC
:102B4000220F9A95EAF7822B81A382A12095282350
:102B500022A378940E94DC14ECE9F1E043EA51E00E
:102B600031E0C12C21912F3F89F0A22FA295AF70A7
:102B7000B0E090968C9190E02F7002C0959587956B
:102B80002A95E2F780FD02C0832F01C080E0C82AA9
:102B9000330F4E175F0731F7F70180818F3F11F038
:102BA0000E944C1561E0C11001C060E08D2D0E94B3
:102BB000DE14C00FD11FC882CDB7DEB7E8E00C9499
:102BC00040288091020180910201811102C097E0AA
:102BD00001C090E090935C0687E0891B80933F06DC
:102BE0000E9463158EE0EEE4F6E0DF01982F1D925F
:102BF0009A95E9F7E0E4F6E0DF011D928A95E9F79E
:102C000087E00E9444160E94EB140895AEE0B0E005
:102C1000ECE0F6E10C9427288E010F5F1F4F8EE049
:102C2000F80111928A95E9F7F12C6F2DC8010E94E5
:102C30008315F394F7E0FF12F8CF4EE050E0B801AF
:102C400080E496E00E94512821E0009709F420E0FA
:102C5000892B41F08EE0F801A0E4B6E001900D92DE
:102C60008A95E1F760915C0670E0625B794F47E01E
:102C700080E496E00E944516182F0E94F114812BE3
:102C80002E96E5E00C9443280895EF92FF920F935F
:102C90001F93CF93DF937C018B01C42F222351F02C
:102CA00081E0809376020E943D1F9093750280938D
:102CB000740204C080917602811102C080E01AC0C3
:102CC00080917402909175020E94551F0597B0F390
:102CD000D0E0AE01B701C8010E945128892B39F01C
:102CE000AE01B701C8010E945E2881E001C080E00A
:102CF00010927602CDB7DEB7E6E00C9442281F931F
:102D0000CF93DF93C8ECD0E00E940E28182F8111DA
:102D10000AC08FE39CE90197F1F700C000002197FA
:102D200099F70E940928812FDF91CF911F91089573
:102D300080917A0208958091790208950E949B16ED
:102D400008950E947F16809379020E949E168093B8
:102D50007A020E949816809302010E949B168111AC
:102D60000E94F91608950E949B16811102C00E94CC
:102D7000FC16089581E090917B029A3008F080E083
:102D800008950F931F93CF93DF93EC018B018091F4
:102D90007B028A3038F4B801CE010E9447178111B6
:102DA0001DC00AC080917702909178020E94551F41
:102DB000843F914080F715C080917B028F3F19F0CE
:102DC0008F5F80937B0280917B028A3060F00E944B
:102DD0003D1F909378028093770203C010927B028C
:102DE00002C080E001C081E0DF91CF911F910F917F
:102DF00008950E94172008950E941A200895A0E0C7
:102E0000B0E0E5E0F7E10C9425287901C82F880FA0
:102E1000DD0B41155105A9F0FE0193E0EE0FFF1FF8
:102E20009A95E1F7ED5FFE4F8181928184589D4F25
:102E3000208130E04217530708F49A01A9010E944B
:102E40005E28CE010E940221D82E8823D1F00115E0
:102E50001105B9F083E0CC0FDD1F8A95E1F7FE0183
:102E6000ED5FFE4F438150E00417150708F4A801F9
:102E7000CD5FDE4F6C817D8164587D4FC7010E941C
:102E80005E288D2DCDB7DEB7E7E00C9441280E9477
:102E90003C1808950E9453180895A4E0B0E0E3E5BB
:102EA000F7E10C9428286091970270919802809124
:102EB000990290919A020E94641F643671058105FF
:102EC000910528F10E94B514DC01CB010296A11DE9
:102ED000B11D89839A83AB83BC8300E010E020E0BE
:102EE00030E044E050E0BE016F5F7F4F82E00E941F
:102EF000FF16182F882361F00E94491F60939702E4
:102F0000709398028093990290939A0201C011E005
:102F1000812F2496E4E00C944428A0E0B0E0E3E99B
:102F2000F7E10C9422287C015B016A010E94BA1629
:102F3000811103C001E010E002C00AE010E0C1E02E
:102F4000D0E0B501C701F6010995811115C02196A0
:102F50000C171D0794F0CC9F9001CD9F300D300DC4
:102F6000112480E090E045E34A95F1F700000196D6
:102F700082179307C1F7E5CF81E0CDB7DEB7EAE06E
:102F80000C943E28A8E0B0E0E8ECF7E10C9422288D
:102F90007B01C090AA01D090AB0101E010E09E013E
:102FA000285F3F4F40E050E060E070E080E00E942A
:102FB000FF16182F882309F43EC056018FEFA81A78
:102FC000B80A609193027091940280919502909159
:102FD00096020E94641F643671058105910518F1FF
:102FE00007E010E09E012F5F3F4F40E050E060E0BF
:102FF00070E081E00E94FF16182F67E070E0C501C5
:103000000E94991A91E02885281390E0192339F13C
:103010000E94491F609393027093940280939502DB
:103020009093960211C067E070E0C5010E94991A62
:1030300098858913D5CF87E0F6013196DE01119688
:1030400001900D928A95E1F7112349F087E0FE0186
:103050003196ACE8B2E001900D928A95E1F787E0F5
:10306000ECE8F2E0D70101900D928A95E1F7812F0B
:103070002896EAE00C943E280F931F93CF93DF939A
:10308000EC018B0142EC57E10E948D17882331F04F
:103090004DE457E1B801CE010E948D17DF91CF9129
:1030A0001F910F9108950F931F93CF93DF93C091BA
:1030B000AA01D091AB01CE01019627E0FB01DC0112
:1030C00001900D922A95E1F767E070E00E94991A4D
:1030D0008883688579858A859B850091880210910F
:1030E000890220918A0230918B0260177107820752
:1030F000930751F0609388027093890280938A024B
:1031000090938B020E949814DF91CF911F910F91A1
:1031100008950E94D7220E94E6110E94E422089599
:103120000E94E9220E94FF110E94032308950E9439
:10313000D41E0E94BD220E94BC110E9489180E94C8
:1031400090180E94C511FBCF9093AD018093AC0104
:1031500008958832910530F48E319105A8F40497D2
:1031600070F00FC08D32910561F018F48A9761F00C
:1031700006C08C34910541F08D32924029F080E0F8
:10318000089582E00E94A00F81E00895A0E0B0E0E1
:10319000ECECF8E10C942528EC017B01C3378CE7BB
:1031A000D80749F4FB011581112309F48AC00E9454
:1031B000A31910E086C00E948D0FD82E0E94B00F78
:1031C000082F0E947019811102C011E07AC00E947C
:1031D0006719F70115811123C1F30D290D7909F044
:1031E0006EC0C03AF2E5DF0700F5C03682E5D807C9
:1031F00008F067C0C115E0E5DE0780F4C115F0E412
:10320000DF0708F04AC0C63ED10509F45AC008F4E9
:103210004AC0C11580E2D80710F545C0CE019255CD
:103220008034910508F03FC04CC0C115E7E5DE07CA
:1032300080F4C115F6E5DF0750F5C43B82E5D807F9
:1032400009F43FC080F1CE01805C92458097C8F1BF
:103250002AC0CE0187579C47029728F532C0F70154
:103260008681807FF9F48D2F8F71823169F028F487
:10327000823029F5C1EED0E016C0843111F18631DB
:10328000F1F4C6EED2E10FC0C5EED0E00CC0CE0125
:10329000805F9645079708F498CFF7018681807F75
:1032A00009F493CFDD270E94AD0FCE010E94A9182B
:1032B000C82F882321F00E9451101C2F02C00E94A9
:1032C0008419812FCDB7DEB7E7E00C9441280E9426
:1032D0003D1F88579C4E90939C0280939B020895BB
:1032E00080919D020895089580919D0281110BC0E7
:1032F0000E949D0F0E9406100E94671981E0809332
:103300009D020E947319089580919D02882341F0C7
:1033100082E20E94500A10929D0280E00E9473197E
:10332000089580919D02882369F00E943D1F20919D
:103330009B0230919C02821B930B8F3F9F4710F49E
:103340000E948419089580919D02882319F00E949B
:10335000841908950E94741908958B3109F469C085
:1033600058F58B3009F490C078F4863009F446C0E3
:1033700020F4853009F44CC08CC0873009F44BC070
:10338000883009F481C085C0803109F465C068F4D3
:103390008E3009F07EC08091720282FB222720F9D4
:1033A00091E0922790FB82F94DC0863109F46CC000
:1033B000893109F469C06DC08A32E9F060F487325E
:1033C00009F464C028F48E3108F463C08D514FC0F5
:1033D0008932F1F05EC0833450F48A3308F046C07D
:1033E000853309F453C0883309F44EC052C0833486
:1033F00009F44CC04EC00E94641146C08091720214
:10340000817F8E7F8093720281E080939E02089577
:103410000E94970439C080917202982F9095917004
:1034200090FB80F98093720291112EC0897F877F73
:1034300010C08091720281FB222720F991E092272F
:1034400090FB81F9809372029923F1F080917202CE
:1034500081608093720218C08091720283FB2227E0
:1034600020F991E0922790FB83F9ECCF895321E07A
:1034700030E0A90102C0440F551F8A95E2F7CA0146
:103480000E94B90A0E94690A81E0089581E090E0F3
:10349000F7CF80E0089580E008950E944B1A0895C8
:1034A000CF93DF93C82F80919E02882319F081303B
:1034B00059F035C00E948D0FD82F0E94B00F8D2B70
:1034C0008272823271F509C00E948D0FD82F0E943E
:1034D000B00F8D2B8272823261F48C2F0E944D1AB4
:1034E000811104C08C2F0E94AD1917C081E090E0BB
:1034F00014C08C2F0E944B1A81110EC0C43149F0A8
:1035000018F4CB3049F00FC0C93219F0C83321F09C
:103510000AC010929E0207C081E0817006C010921E
:103520009E0280E002C080E0F8CFDF91CF91089545
:103530000895FC01680F791F8FEF91E3E617F707F5
:1035400071F02191822728E030E087FF03C0880FC7
:10355000892701C0880F21503109B9F7EFCF0895AD
:10356000089508950E94B11A08950E94B11A08950D
:1035700081E008950F931F93CF93DF93EC018B01AC
:10358000842F0E94B51A0E94690A0E94E10A1983D9
:103590000883DF91CF911F910F910895AF92BF9251
:1035A000CF92DF92EF92FF921F93CF93DF93EC01C4
:1035B0006B01142FE090F901F090FA010E94690A62
:1035C0000E94E10A87E0180250011124CC15DD05A4
:1035D00031F0CE010E942D0ACA0DDB1DF7CF0E94EB
:1035E000690AC7010E94DA0A812F0E94B21ADF918C
:1035F000CF911F91FF90EF90DF90CF90BF90AF9051
:1036000008950F931F93CF93DF93EB01F80135815A
:10361000A881B981311103C0A817B907D1F0F7E02B
:103620002F02C0011124BD01681B790B46175707F3
:1036300061F037E0F80101900D923A95E1F7488189
:103640005981840F951F99838883B801822F0E9426
:10365000B01ADF91CF911F910F910895CF92DF9211
:10366000EF92FF921F93CF93DF936C01EB01142F26
:103670007901842F0E94B11A89EF1802A001112448
:10368000CC15DD0559F4F701D183C083DF91CF91CB
:103690001F91FF90EF90DF90CF900895FE01E40F0F
:1036A000F51F8581882379F3EF01EACF80919F028E
:1036B000813061F08230A9F46091A0027091A10282
:1036C0002BE131E04FEF8BE196E009C06091A00261
:1036D0007091A1022DE131E041E082EA92E00E9486
:1036E0002E1B10929F0208950F931F93CF938B016F
:1036F00020919F0221113BC0FB01C581C11172C005
:103700008435FCE79F07F1F068F483359C4709F0A6
:1037100069C041E062EA72E080EA92E00E94BA1A6F
:1037200081E018C08635ECE79E07B9F087359C47E5
:1037300009F058C060911B0170911C014FEF8BE1A3
:1037400096E012C04FEF6BE176E080EA92E00E94D3
:10375000BA1A82E080939F0248C060911D01709167
:103760001E0141E082EA92E00E94CE1A3EC08335FB
:103770002CE79207A8F086353CE7930728F08835B8
:10378000ECE79E0788F10CC021E085359C4709F4E1
:1037900020E0F8018581821739F10E94561B24C070
:1037A000B8010E94B81AC82F8823E1F080919F02C7
:1037B000813061F08230C9F440911D0150911E01A9
:1037C0002FEF60EA72E08BE196E009C040911B01A7
:1037D00050911C0121E060EA72E082EA92E00E94CE
:1037E000011B03C0C1E001C0C0E08C2FCF911F912D
:1037F0000F910895CF93DF9386319C4709F5EB0134
:103800000E948D0F9D81992371F08A7A91E009F4CD
:1038100090E090932206811102C089E201C085E305
:103820000E94751E09C080912206811102C089E2A2
:1038300001C085E30E947D1E0E94511080E001C0FE
:1038400081E0DF91CF910895CF93DF93FC01DB01FD
:1038500015968C91882309F4DDC09F0130572332DF
:10386000310508F0D8C0EF010E94D91090933A06B4
:1038700080933906FE01E150F047E232F10520F471
:10388000E759FF4F0C941428809139068160AAC033
:1038900080913A068860B2C0809139068260A2C0E9
:1038A0008091390620C08091390688609BC0809144
:1038B0003A061EC080913A068260A0C08091390607
:1038C000806190C08091390680628CC080913906F9
:1038D000806488C00E94690A80913906806882C02D
:1038E00080913906886084607DC080913A0682604C
:1038F000816084C0809139068E7F74C080913A06C1
:10390000877F7CC0809139068D7F6CC0809139069D
:1039100020C080913906877F65C080913A061EC01D
:1039200080913A068D7F6AC0809139068F7E5AC099
:10393000809139068F7D56C0809139068F7B52C0A9
:103940000E94690A809139068F774CC080913906B0
:10395000877F8B7F47C080913A068D7F8E7F4EC0D8
:103960008091390682FB222720F991E0922790FB73
:1039700082F990FB83F936C080913A06982F909592
:1039800091708E7F892B90FB81F938C08091390628
:1039900086FB222720F991E0922790FB86F922C02E
:1039A0000E94690A8091390687FB222720F991E05D
:1039B000922790FB87F916C081E001C080E00E9449
:1039C00067111EC08091390684FB222720F991E0FF
:1039D000922790FB84F906C080913906982F909524
:1039E00090FB80F9809339060BC080913A0683FBE7
:1039F000222720F991E0922790FB83F980933A06E1
:103A00008091390690913A060E94DE100E94690A60
:103A100080E001C081E0DF91CF9108950F931F9363
:103A2000CF93DF93C42FD22FFC0185818823B1F07F
:103A3000409325060E943D1F909324068093230601
:103A400080E28C0F883008F04DC0C77081E001C063
:103A5000880FCA95EAF70E94700744C08091250636
:103A6000481330C080912306909124060E94551F70
:103A7000883C910538F510E21D0FCD17B9F080E2B2
:103A80008C0F883040F4C77081E001C0880FCA9560
:103A9000EAF70E947707183010F581E09D2F9770A4
:103AA00001C0880F9A95EAF70E947007802F0E9444
:103AB00066071830B8F4D77081E001C0880FDA9536
:103AC000EAF70AC080E28C0F883060F4C77081E0AA
:103AD00001C0880FCA95EAF70E94770703C0802FBC
:103AE0000E946607DF91CF911F910F9108950F9368
:103AF000FC01E851FC47E730F10590F5CB01E557B3
:103B0000FF4F0C94142806E221EE41EE6AE17CE7B7
:103B100023C007E225EE45EE6BE17CE71DC006E21F
:103B200021EE40EE68E17CE717C007E225EE44EEA7
:103B300069E17CE711C006E221EE42EE6CE17CE730
:103B40000BC007E225EE46EE6DE17CE705C008E21A
:103B500021E045EE6EE17CE70E940E1D80E008C08A
:103B6000FB018581882319F01092250601C081E0B0
:103B70000F91089590932C0680932B0608950E9430
:103B80009B16811103C0809126060895E0912B06B3
:103B9000F0912C06309729F00190F081E02D0995E5
:103BA000089580E008950E94BF1D0895E0912B06BE
:103BB000F0912C06309721F00280F381E02D0995D9
:103BC0000895A3E0B0E0E7EEFDE10C942A282091EF
:103BD000290630912A0628173907A1F090932A0662
:103BE00080932906E0912B06F0912C06309751F036
:103BF00023E029839B838A830084F185E02DCE0115
:103C0000019609952396E2E00C944628A3E0B0E0E3
:103C1000ECE0FEE10C942A2820912706309128063A
:103C200028173907A1F09093280680932706E09182
:103C30002B06F0912C06309751F024E029839B83CA
:103C40008A830084F185E02DCE01019609952396A3
:103C5000E2E00C944628E0910001F09101013296D7
:103C600097E080E0915029F021912223D9F38F5FD2
:103C7000F9CF0895882371F020910001309101015E
:103C8000F9013296285F3F4F9191891729F0E21789
:103C9000F307D1F780E0089581E008959C01FC01CD
:103CA00032969FEF80E04191461789F09F3F19F4CB
:103CB000411101C0982F8F5F8630A9F79F3F39F0DF
:103CC000F901E90FF11D97FDFA95628308950895B2
:103CD0009C012A5F3F4FFC014281461301C01282C2
:103CE000019682179307B9F70895682F8091000114
:103CF000909101010E944E1E0895682F809100014D
:103D0000909101010E94681E0895E0910001F091D8
:103D10000101329686E0DF011D928A95E9F7089548
:103D200008950E94901E089583E080932D060E94BE
:103D3000911E0895811102C081E001C082E080934C
:103D40002D060E94911E08950E949A1E089581E0FA
:103D500080932D060E94911E08950E94A71E08952B
:103D600008950E94B01E08950E94B11E08950E94F9
:103D7000B01E08950E94B01E08950E94B01E0895BE
:103D8000CF930E94BA1E0E9406160E94B71EC0E082
:103D90008C2F0E94D114811104C0CF5FCE30C1F7A7
:103DA00001C081E0CF91089585B7806885BF85B750
:103DB000806885BF08951F920F920FB60F9211244D
:103DC0008F939F93AF93BF9380912E06811113C061
:103DD00080915D0690915E06A0915F06B0916006AD
:103DE0004196A11DB11D80935D0690935E06A09340
:103DF0005F06B0936006BF91AF919F918F910F9036
:103E00000FBE0F901F90189580916506843031F198
:103E10000E94080510922E0620E488E190E00FB67B
:103E2000F894A895809360000FBE2093600083B73C
:103E3000817F846083BF83B7816083BF78948895D6
:103E400083B78E7F83BF0FB6F894A89580916000EA
:103E5000886180936000109260000FBE08950E94F8
:103E6000690A0E940D05089582E084BD93E095BD26
:103E70009AEF97BD80936E0008952FB7F8948091C4
:103E80005D0690915E06A0915F06B09160062FBF1F
:103E900008952FB7F89460915D0670915E06809149
:103EA0005F06909160062FBF08959C014FB7F8946C
:103EB00080915D0690915E06A0915F06B0916006CC
:103EC0004FBF821B930B0895CF92DF92EF92FF9228
:103ED0002FB7F894C0905D06D0905E06E0905F0624
:103EE000F09060062FBFA7019601261B370B480BE9
:103EF000590BCA01B901FF90EF90DF90CF90089560
:103F000078941F920F920FB60F9211248F939F9364
:103F1000AF93BF9380915D0690915E06A0915F067E
:103F2000B09160060196A11DB11D80935D0690932E
:103F30005E06A0935F06B0936006BF91AF919F911C
:103F40008F910F900FBE0F901F90189587E797E7FE
:103F500090930108809300089AE088E10FB6F894E6
:103F6000A895809360000FBE90936000FFCF9AE009
:103F700088E10FB6F894A895809360000FBE9093E7
:103F80006000FFCF8EE1499B02C08150E1F7499B61
:103F9000FECF0895599880E28A95F1F7599A0895CD
:103FA000FC012AE02A95F1F728E090E080E031E07A
:103FB00040E14A95F1F7880F499B02C08160932741
:103FC00000C0000040E14A95F1F7215089F720E157
:103FD0002A95F1F729B100C0000030E13A95F1F7D8
:103FE0002695217092272081920F90830895A1E059
:103FF000B0E0EDEFFFE10C94262819828C017C01E2
:10400000E60EF11C0E151F0551F00E94C21FCE01D5
:1040100001960E94D01FF80181938F01F3CF81E0B8
:104020009981911180E02196E6E00C944228519A02
:10403000599A08955198599AE99AE9E6F0E08081F1
:10404000837F80830895615091E001C0990F6A9544
:10405000EAF720E031E0992361F0492F482319F075
:10406000599A232701C0599840E24A95F1F796954D
:10407000F2CF222311F0599A01C0599880E28A9513
:10408000F1F759980895FF920F931F93CF93DF9301
:10409000EC018C01060F111DC017D10741F0F990FA
:1040A0000E94CA1F68E08F2D0E942320F5CFCDB754
:1040B000DEB7E5E00C9443281F920F920FB60F92E3
:1040C00011240F931F932F933F934F935F936F93FD
:1040D0007F938F939F93AF93BF93EF93FF93CF9370
:1040E000DF931F92CDB7DEB719820E94C21FCE01A7
:1040F00001960E94D01F082F069506950695902FD1
:1041000096959570202F2570920F292F23709695E4
:104110009695920F877089135FC0898181115CC069
:10412000043008F059C080E18A95F1F7599A519A04
:1041300082E08A95F1F700C0599888E0089F8001D5
:104140001124D801AD5FBE4F1696ED91FC911797E3
:104150003097A9F06091AA017091AB0114962D914E
:104160003C911597260F371F11968D919C911297B0
:10417000680F791F13964C9113978C910995F8014C
:10418000ED5FFE4F6381662351F08091AA0190910B
:10419000AB0124813581820F931F0E9443200E942E
:1041A000CA1F80E18A95F1F759985198599A80E190
:1041B0008A95F1F7F801ED5FFE4F6081662351F0BB
:1041C0008091AA019091AB0121813281820F931FCE
:1041D0000E94F71F0E94C21F0F90DF91CF91FF91A5
:1041E000EF91BF91AF919F918F917F916F915F916F
:1041F0004F913F912F911F910F910F900FBE0F90F4
:104200001F9018950F931F93CF93DF9384309105E0
:104210000CF06DC0EC01F894519A599885E08A959C
:10422000F1F700009C2F969595702C2F2570920F1A
:10423000892F83709695969523E0CC0FDD1F2A95E4
:10424000E1F7980F8E01092B0E94CA1F84E08A951E
:10425000F1F700C068E0802F0E94232080E18A955A
:10426000F1F75198599A499902C000C0FCCF87E0F4
:1042700090E0499B08C0019721F4519A599A78948B
:1042800036C000C0F6CFFE01ED5FFE4F63816623AE
:1042900081F08091AA019091AB0124813581820F38
:1042A000931F0E94F71F811104C0519A599A789464
:1042B0001FC00E94C21F80E28A95F1F75998519A57
:1042C00080E18A95F1F7CD5FDE4F6881662351F07A
:1042D0008091AA019091AB0129813A81820F931FAD
:1042E0000E9443200E94CA1F789481E001C080E0B0
:1042F000DF91CF911F910F91089580913706089516
:10430000089508959B01909165069430F1F48F70A3
:104310008093E9008FEF9091E800815095FD06C0F1
:1043200095ED9A95F1F700008111F5CF8091E800A5
:1043300085FF0BC0BA01C90140E050E00E947B2319
:104340008091E8008E778093E800089543E050E084
:10435000BC0182E00E9482210895CF93DF93EC019B
:1043600048E050E0BC0181E00E94822188E0FE012B
:10437000AFE2B6E001900D928A95E1F7DF91CF911F
:10438000089580916406811109C00E9406250E944B
:1043900063258091E20084608093E200089510928A
:1043A000640608950E94AD1E08956091610681E043
:1043B000611101C080E00E94941E089590916506ED
:1043C00081E0943009F080E0609161060E949A1EBD
:1043D000089542E061EC81E00E947F2442E261ECBA
:1043E00082E00E947F249091650681E0943009F07C
:1043F00080E0609161060E94A41E08958091670686
:10440000833009F461C030F4813071F0823009F4F6
:104410009BC008958A3009F487C08B3009F46CC0C2
:10442000893009F0A9C020C080916606813A09F060
:10443000A3C08091E800877F8093E80080916A069E
:1044400090916B06892B21F468E08FE296E003C01F
:1044500060E080E090E070E00E94C0238091E8007E
:104460008B778093E800089580916606813209F089
:1044700083C080916A0690916B06029708F07CC019
:104480008091E800877F8093E8008091E80082FDBA
:1044900005C0809165068111F8CF6EC02091F300B0
:1044A0008091F20090E0922B029731F48091F1001C
:1044B000813011F0863021F48091F100809337062D
:1044C0008091E8008B7754C080916606813A09F0AC
:1044D00053C080916A0690916B06892B09F04CC0FD
:1044E0008091E800877F8093E8008091E80080FF5A
:1044F000FCCF8091290137C0809166068132E1F5B9
:1045000080916A0690916B06892BB1F58091E80045
:10451000877F8093E8000E94B4248091680680938E
:1045200029010E94690A089580916606813221F569
:104530008091E800877F8093E8000E94B4248091F6
:10454000690680933806089580916606813AA1F441
:104550008091E800877F8093E8008091E80080FFE9
:10456000FCCF809138068093F1008091E8008E772F
:104570008093E8000E94B424089584B7877F84BFA5
:104580000FB6F894A89580916000886180936000D0
:10459000109260000FBE90E080E80FB6F894809310
:1045A0006100909361000FBE0E94A71E08950E94B3
:1045B00006250E946325E2EEF0E08081846080831E
:1045C00078940E94EE2708958FE191E00E94BA1D31
:1045D0000895809165068530A9F48091650685303F
:1045E00079F40E94041F809163068823B1F30E942E
:1045F000C01E882391F30E9465230E94690AEDCFB3
:104600000E942F1F089508959A0140916C065091C1
:104610006D060E940C230895492F552743305105FC
:10462000C9F060F44130510581F04230510509F084
:1046300044C08BE390E042E954E043C0413251056D
:10464000E1F04232510549F138C082E190E04DEC91
:1046500054E037C099278130910549F028F002973E
:1046600061F5E8E4F4E005C0EEE8F4E002C0EEE74E
:10467000F4E0849190E0AF0124C06115710541F030
:1046800061307105D1F489E090E04DEB54E019C040
:1046900089E090E044EA54E014C06115710541F0EE
:1046A0006130710551F482E390E04FED54E009C0B0
:1046B00084E490E041E155E004C080E090E040E017
:1046C00050E0F90151834083089580E189BD82E182
:1046D00089BD09B400FEFDCF8091D8008F7D809305
:1046E000D8008091E00082608093E0008091E0003B
:1046F00081FDFCCF0895A0E0B0E0E1E8F3E20C9486
:104700002428EC018B017A010E94D324811133C04B
:10471000E114F10439F0F70180819181081B190B34
:10472000C80FD91FC12CD12C0115110519F1809189
:10473000E80085FD16C08091E8008E778093E80040
:10474000E114F10449F0F70180819181C80ED91E6E
:10475000D182C08285E00FC00E94D324882321F338
:104760000AC089918093F10001501109FFEFCF1A1F
:10477000DF0ADACF80E0CDB7DEB7E8E00C9440285E
:1047800020916C0630916D062617370748F06115A9
:10479000710539F42091E8002E772093E80001C0DC
:1047A000B901FC0120E06115710579F18091650680
:1047B0008823F1F18530F1F18091E80083FD3CC060
:1047C0008091E80082FD2EC08091E80080FFEBCF51
:1047D0002091F3008091F20090E0922B6115710519
:1047E00051F08830910538F421912093F100615007
:1047F00071090196F3CF21E0089709F020E080913C
:10480000E8008E778093E800CECF2111CFCF0AC089
:1048100080916506882361F0853061F08091E80021
:1048200083FD0AC08091E80082FFF2CF80E0089506
:1048300082E0089583E0089581E0089520916C0658
:1048400030916D062617370748F06115710539F468
:104850002091E8002E772093E80001C0B901FC0107
:1048600020E06115710591F180916506882309F4B6
:1048700040C0853009F43FC08091E80083FD3DC011
:104880008091E80082FD2FC08091E80080FFE9CF91
:104890002091F3008091F20090E0922B6115710558
:1048A00059F08830910540F424912093F10031961D
:1048B000615071090196F2CF21E0089709F020E0DC
:1048C0008091E8008E778093E800CBCF2111CCCF88
:1048D0000AC080916506882361F0853061F080917F
:1048E000E80083FD0AC08091E80082FFF2CF80E0FB
:1048F000089582E0089583E0089581E00895982F57
:10490000973068F59093E900981739F07091EC00B2
:104910002091ED005091F00003C0242F762F50E03D
:1049200021FD02C09F5FECCF3091EB003E7F3093C2
:10493000EB003091ED003D7F3093ED003091EB00C6
:1049400031603093EB007093EC002093ED005093B6
:10495000F0002091EE0027FDE5CF80E008958F70F4
:104960008093E90081E008958091660687FF11C079
:104970008091E80082FD05C0809165068111F8CF25
:1049800011C08091E8008B770BC080916506882369
:1049900049F08091E80080FFF8CF8091E8008E77A1
:1049A0008093E80008952091E4003091E50095E6B9
:1049B0004091EC00842F817040FF23C08091E8007B
:1049C00080FD1DC080916506882399F0853099F09F
:1049D0008091EB0085FD11C04091E4005091E5000D
:1049E0002417350729F3915011F09A01E1CF84E0A3
:1049F000089582E0089583E0089581E0089580E0BD
:104A000008954091E80042FFDDCF08950E9475258A
:104A10000E947D25E0EEF0E0808181608083E8EDFA
:104A2000F0E080818F77808319BCA7EDB0E08C9196
:104A30008E7F8C9380818F7E808310926406089590
:104A40000F931F93CF93DF930E9475250E947D25BE
:104A5000C8EDD0E088818F778883888180688883DB
:104A600088818F7D888319BC10926506109261063B
:104A7000109263061092620600EE10E0F801808149
:104A80008B7F808388818160888342E060E080E062
:104A90000E947F24E1EEF0E080818E7F8083E2EE51
:104AA000F0E0808181608083808188608083F8016C
:104AB00080818E7F8083888180618883DF91CF9120
:104AC0001F910F910895E8EDF0E080818F7E808343
:104AD000E7EDF0E080818160808384E082BF81E047
:104AE000809364060E9420250895E8EDF0E080811F
:104AF0008E7F80831092E20008951092DA00109267
:104B0000E10008951F920F920FB60F9211242F9378
:104B10003F934F935F936F937F938F939F93AF9345
:104B2000BF93EF93FF938091E10082FF0BC08091D0
:104B3000E20082FF07C08091E1008B7F8093E1005B
:104B40000E94ED278091DA0080FF1FC08091D8007D
:104B500080FF1BC08091DA008E7F8093DA00809105
:104B6000D90080FF0DC080E189BD82E189BD09B413
:104B700000FEFDCF81E0809365060E94C12105C043
:104B800019BC109265060E94CF218091E10080FF40
:104B900019C08091E20080FF15C08091E2008E7FF5
:104BA0008093E2008091E20080618093E200809136
:104BB000D80080628093D80019BC85E08093650698
:104BC0000E94D5218091E10084FF30C08091E200F5
:104BD00084FF2CC080E189BD82E189BD09B400FE5B
:104BE000FDCF8091D8008F7D8093D8008091E10027
:104BF0008F7E8093E1008091E2008F7E8093E200BF
:104C00008091E20081608093E200809161068823B8
:104C100011F084E007C08091E30087FD02C081E0CD
:104C200001C083E0809365060E94DE218091E1004F
:104C300083FF29C08091E20083FF25C08091E100BD
:104C4000877F8093E10082E0809365061092610681
:104C50008091E1008E7F8093E1008091E2008E7F61
:104C60008093E2008091E20080618093E20042E064
:104C700060E080E00E947F248091F0008860809353
:104C8000F0000E94D221FF91EF91BF91AF919F91CF
:104C90008F917F916F915F914F913F912F910F90E5
:104CA0000FBE0F901F9018951F920F920FB60F9284
:104CB00011242F933F934F935F936F937F938F9321
:104CC0009F93AF93BF93CF93DF93EF93FF93C091E5
:104CD000E900CF708091EC00D82FD17080FDD0E832
:104CE0001092E9008091F000877F8093F000789423
:104CF0000E9498261092E9008091F00088608093CD
:104D0000F000CD2BCF70C093E900FF91EF91DF91C0
:104D1000CF91BF91AF919F918F917F916F915F9153
:104D20004F913F912F910F900FBE0F901F901895AC
:104D3000AAE2B0E0EEE9F6E20C942928E6E6F6E015
:104D40008091F100819326E0EE36F207C9F70E94C8
:104D5000FE218091E80083FF2EC18091660690912C
:104D60006706492F50E04A30510508F024C1FA0186
:104D7000EE56FF4F0C941428803821F0823809F049
:104D80001AC108C08091620690916306992389F048
:104D900082600FC080916A068F70873008F00BC167
:104DA0008093E9008091EB0085FB882780F91092C1
:104DB000E9009091E800977F9093E8008093F100DC
:104DC0001092F100D1C0282F2D7F09F0F4C0882364
:104DD00019F0823061F0EFC080916806813009F0EF
:104DE000EAC0933009F080E0809363062EC0809182
:104DF000680681112AC080916A068F702FEF280FF4
:104E0000263008F0D8C08093E9002091EB0020FF05
:104E10001CC0933021F48091EB00806214C090910B
:104E2000EB0090619093EB0021E030E0A90102C01B
:104E3000440F551F8A95E2F74093EA001092EA006A
:104E40008091EB0088608093EB001092E9008091E4
:104E5000E800877F8093E8000E94B424ACC08111F1
:104E6000AAC0109168061F778091E3008078812B9B
:104E70008093E3008091E800877F8093E8000E94A0
:104E8000B4248091E80080FFFCCF8091E30080682B
:104E90008093E300111102C082E001C083E080939F
:104EA000650689C08058823008F085C08091680608
:104EB000909169068C3D53E0950779F583E08A83EC
:104EC0008AE289834FB7F894DE01139620E03EE032
:104ED00051E2E32FF0E050935700E49120FF03C02C
:104EE000E295EF703F5FEF708E2F90E0EA3010F0A8
:104EF000C79601C0C0968D939D932F5F243149F7CB
:104F00004FBF8091E800877F8093E8006AE270E0FD
:104F1000CE0101960E94C02316C060916A0670916E
:104F20006B06AE014F5F5F4F0E940423BC01892BCB
:104F300009F441C09091E800977F9093E80089813F
:104F40009A810E941E248091E8008B778093E8006C
:104F500032C0803881F58091E800877F8093E80037
:104F6000809161068093F1008091E8008E7772CF86
:104F7000811121C080916806909169069927029756
:104F8000D4F48091E800877F8093E80080916806E0
:104F9000809361060E94B42480916106811106C04D
:104FA0008091E30087FD02C081E001C084E080932E
:104FB00065060E94E9218091E80083FF0AC0809184
:104FC000E800877F8093E8008091EB008062809307
:104FD000EB00AA96E3E00C9445280895CF938091C6
:104FE00065068823A1F0C091E900CF709091EC0094
:104FF000892F817090FD80E8C82B1092E900809184
:10500000E80083FD0E949826CF70C093E900CF91FD
:1050100008950E9406251092650608958091E30088
:10502000881F8827881F0895EE0FFF1F0590F491B1
:10503000E02D09942F923F924F925F926F927F9250
:105040008F929F92AF92BF92CF92DF92EF92FF9298
:105050000F931F93CF93DF93CDB7DEB7CA1BDB0B44
:105060000FB6F894DEBF0FBECDBF09942A883988E9
:1050700048885F846E847D848C849B84AA84B984F0
:10508000C884DF80EE80FD800C811B81AA81B981FC
:10509000CE0FD11D0FB6F894DEBF0FBECDBFED0110
:1050A0000895FB01DC0104C08D910190801921F469
:1050B00041505040C8F7881B990B0895FB01DC0153
:1050C00002C001900D9241505040D8F70895F999CF
:1050D000FECF92BD81BDF89A992780B50895A8E1C9
:1050E000B0E042E050E00C94AB28DC01A40FB51F07
:1050F0004150504048F0CB01840F951F2E910E94E3
:10510000862841505040D0F70895262FF999FECFB8
:1051100092BD81BDF89A019700B4021639F01FBA0A
:1051200020BD0FB6F894FA9AF99A0FBE0895039627
:10513000272F0E9486280E948528252F0E948628D6
:10514000242F0C9486280196272F0E9486280C94E1
:105150008528DC01CB01FC01F999FECF06C0F2BD28
:10516000E1BDF89A319600B40D9241505040B8F725
:065170000895F894FFCF42
:1051760050020100000001000000000000000701CD
:1051860000000004080000000000001B06A2027DCB
:1051960021AD2180218121A62101E200E900EA005A
:1051A600B500B600B700CD008301CC008A0192019C
:1051B60094012102230224022502260227022A0242
:1051C600B300B4006F0070009F01CB019F02A002E4
:1051D600818283E200E900EA00B500B600B700CD9F
:1051E600008301CC008A019201940121022302244A
:1051F600022502260227022A02B300B4006F0070BD
:10520600009F01CB019F02A002818283F5F6F73150
:0C52160033323690946697C634357C0223
:00000001FF
